:0200000480007A
:100000007370043073504030971100109381819CBD
:1000100017010110130101FF97120000938242940F
:100020007390523073F05130996273A002307310A4
:10003000300017050000130525099705000093857A
:10004000A5086300B50217C600001306A68963FA67
:10005000C5008322050023A0550011059105E3EAA0
:10006000C5FE17C500001305E587970500109385A9
:1000700065F91386418763FAC5008322050023A032
:10008000550011059105E3EAC5FE13854187938567
:10009000019D6377B500232005001105E36DB5FED2
:1000A000EF0090571775000013056593EF6030124D
:1000B000EF601016EF009064014581452120EF109C
:0400C000201501A066
:1000C400597186D6A2D4A6D2CAD0CECED2CCD6CAA4
:1000D400DAC8A2E6054513010181EF307077856621
:1000E4009382068210087D773383C200AA87B30304
:1000F400E3002394F37E09451EC6EF307075B244C5
:100104002A840D452395847EEF3090743248AA8565
:1001140011452316B87EEF30B0738948894517B569
:100124000000130565B146DAEF70403C1545EF3029
:100134003072630905542ADC056993090982130A9C
:1001440001017D75B38A4901338BAA00032E8B7E8E
:100154005AC663150E5032460313C67E630C035C05
:10016400625985651388058293080101FD74B30003
:1001740018013385900093792900130A0106333B53
:100184003001137E19002AC62328457F231C01044D
:10019400937A4900330F6E0163880A00930F1F009E
:1001A40093970F0113DF07019306007D33D5E60310
:1001B400014A7D772AD8631A0E4C639D09506397D0
:1001C4000A4E631F0E3E639409421376490015C21A
:1001D4008563138403820408B30594007D73B38894
:1001E400650003A6C87F8395887E425546C6EF30D6
:1001F40070505259631B090A8560FD79138A008285
:100204000808054E1388897E330BAA0072DAB30AF4
:100214000B0197040010938424FD0100D25E014475
:10022400139F2E00B30FDF0193971F003EDAEF30C8
:10023400A021525982C882CA630C09028545568599
:10024400EF00907D83550105EF309065AA86FD553A
:1002540056852318D104EF00307C83550105EF3017
:1002640030642318A1046301043C0504E31889FCE9
:10027400EF30C020EF30C023EF3000269040D44050
:10028400AA892E84EF509033E34A05F84E85A2855F
:10029400EF6060176306054AA94233D6A202D2531F
:1002A40013031600B30573022EDAEF30E019056B61
:1002B400130E0B82130801017D7A93088A7E33059D
:1002C4000E014695EF10D037EF30401BEF30401E43
:1002D400930E0101930A0B82338FDA01B30F4F019E
:1002E400AA8403958F7E2E8981457EC6EF40004DFA
:1002F400B247AA850395A77EEF40404CB246AA8533
:100304000395C67EEF40804BAA8503150103EF4099
:10031400E04A2167130457B0AA89630B854C636DC7
:10032400A43089639385238F630CB54C9568138B34
:10033400F8EA6317654F17B5000013052598094AB5
:10034400EF70002F625E231C010413781E00630EFD
:10035400080213151A0097BA0000938AAAEAB38E0A
:10036400AA000356210583D60E006300D6028145F8
:1003740017B500001305059DEF704017035F810555
:10038400625E930F1F00231CF10593772E008DCF1F
:1003940093161A0017B70000130787E73304D70032
:1003A40003564105835604006300D602814517B500
:1003B40000001305259CEF70601383528105625E73
:1003C40013861200231CC10493704E006380000244
:1003D40013131A0097B30000938343E4B3856300B7
:1003E4000356610583D605006311D632835A81050D
:1003F400EF408062C255338EAA0013180E0117B560
:1004040000001305659D13540841EF70200EA68566
:1004140017B500001305C59DEF70400D2685CA85EC
:10042400EF30800B2A86AE8617B500001305C59DF4
:10043400EF70C00B2685CA85EF30000A014681465D
:10044400EF50F00C6359A0025255EF6020052A8B3F
:10045400AE8A2685CA85EF3020082A86AE865A855C
:10046400D685EF5020222A86AE8617B500001305E4
:10047400259BEF70A007D25517B500001305C5D012
:10048400EF70C00697B500009385C5AD17B50000A1
:10049400130505D1EF70800597B500009385859EFF
:1004A40017B50000130545D1EF70400497B500005F
:1004B4009385C5AD17B50000130585D1EF70000312
:1004C400CE8517B50000130525D2EF702002E2593E
:1004D40093FE190063930E3013FF290063140F2E4B
:1004E40093FF490063960F2C03560105814517B508
:1004F4000000130565C2EF60707F63050424635434
:10050400802217B50000130565A9EF706012D2565A
:1005140037470F0093020724B3B5560233855602BA
:10052400EF40E04F5304A520CA852685EF40204FB5
:100534005374A4182945EF60307F2945EF60D07EBD
:1005440017B500001305C5ACEF70800E2945EF60A8
:10055400B07DD25517B50000130545AFEF60107993
:10056400A68517B50000130525B0EF60307817B5E0
:100574000000130525B1EF70A00B17B5000013059B
:10058400E5B2EF70E00A53058420EF60200D2A865F
:10059400AE8617B50000130565B4EF6030752945C4
:1005A400EF6090781301017FB65026549654065993
:1005B400F649664AD64A464B3664014565618280EF
:1005C4008569138E0982130801017D79B3000E0138
:1005D400338A200103168A7E83254A7F52C6EF1090
:1005E400E04362592ADE93792900E38009BE056B52
:1005F400930E0B82130F01017D75B38FEE01B38748
:10060400AF003EC632478396A77E4255831A877E43
:100614008325877F9392060133E652019400EF20ED
:10062400302C62595DB601002319A1040547E3018A
:10063400E9C4054421B10100A560938220A06309A7
:10064400551C3D661303569F631C651C17A50000CB
:100654001305C5690D4AEF60B07DEDB1854EE31118
:10066400DEB1324F831FCF7EE39C0FAE3247B737E4
:10067400153493865741930260062324D77E2316AC
:10068400577EF9BC9D4006DC45BC85621386028218
:1006940013030101B30366003384E300841022C60C
:1006A400232A947E054AE38C09B02DA0B30AAA023A
:1006B4008563138403820408FD729010B3059400CB
:1006C400B388550046C63303560123AE687EE30C57
:1006D4000EAEFDB5B305AA02056F930F0F821C0879
:1006E400FD78130B0106B386FF0013081A00338745
:1006F400160193100801B30EBB003AC6232CD77F12
:1007040013DA0001E38F0AAA55B7814517A5000043
:1007140013058569EF60905D83588105138B18007C
:10072400231C6105E1B117B5000013052588EF60AE
:100734003070F1BB3244930360062316747E0DB40B
:10074400054599BE17A500001305056FEF60506EAF
:100754008D47E31EFADA5255EF5050542A8A2E84FC
:100764002685CA85EF2050572A86AE865285A285F3
:10077400EF4050712A86AE8697A700009387877052
:1007840017A700001307077E17A500001305457E71
:10079400EF60D05597A500009385457F17A500000D
:1007A4001305457FEF6090542945EF60F05785B3FA
:1007B40003566105814517B500001305A597EF6041
:1007C400F0521DB303564105814517B500001305CA
:1007D4002598EF60B051E25921B3035621058145B4
:1007E40017B5000013058598EF605050E259EDB13C
:1007F40017A500001305C549054AEF60706399B653
:1008040017A5000013054551114AEF6070621DBE23
:1008140017A5000013050545014AEF6070611DB678
:10082400416A930AFAFF7D5AE1B60000A54723AC5A
:10083400F1887D55828000007300501073005010C1
:100844007300501073005010730050107300501058
:100854007300501073005010C5B700007D15854714
:1008640063E8A7000963014523A2650082800100B3
:10087400A5427D5523AC51888280000005458280C5
:10088400000000000545828000000000D94723AC29
:10089400F1887D55828000000145828000000000BF
:1008A40001C57D558280010041113735011022C4F4
:1008B40006C62E84C522AA872300F400B24022442F
:1008C4000545410182800000170700101307479077
:1008D4001C439386019D3E95636CD50097F20010EE
:1008E400938202F263E6A20008C33E85828001007F
:1008F400FD573E8582800000011122CC4EC606CEF3
:1009040026CA4AC82E84B289EF60305421C53309FF
:100914003401A944638E090083470400373501106C
:10092400B545638F97000504BE851922E31624FF9D
:100934004E85F2406244D2444249B2490561828004
:10094400C52883450400373501100504D520E31577
:1009540089FCF9BF7D55F1BF5D7106C012C216C492
:100964001AC61EC82ACA2ECC32CE36D03AD23ED4AB
:1009740042DC46DEF2C0F6C2FAC4FEC6F3221034EC
:1009840016D6F322203416D8F322003016DA732553
:1009940020348A855129B25273901234C252739012
:1009A4002234D2527390023082401242A242324325
:1009B400C2435245E245724682561257A2576258C4
:1009C400F258064E964E264FB64F616173002030A2
:1009D400AA8719C5584D0145D98DCCCF8280010015
:1009E4007D55828000000000AA871DCD17F7FF0FF8
:1009F4000327477EB355B702930200082326550008
:100A04001308600C8D4801451383F5FF935383004D
:100A140013F6F30FD0C39376F30F94C323A4070103
:100A240023A61701828001007D558280000000000A
:100A3400AA8739CDD84B937207026398020403A3A3
:100A440047019373030263920304C84B13760502B0
:100A54000DEED44B13F806026319080283A847016C
:100A640013FE080263130E0283AE470113FF0E0246
:100A7400631D0F0083AF470113F70F0219E783A229
:100A8400470113F30202E30703FA01458CC3828092
:100A94007D55828025C15C4993F217006397020457
:100AA4000323450193731300639103044C4913F624
:100AB400150005EE544913F7160005EB032845010C
:100AC4009378180063930802032E4501937E1E0059
:100AD400639D0E00032F4501937F1F0063970F0052
:100AE4005C4993F21700E38802FA08411375F50F85
:100AF400828001001305F00F82800000B7C7000256
:100B040003A787FF83A7C7FF411106C622C426C2D5
:100B140037C60002032886FF8328C6FFF32600B0E9
:100B2400631A0707032886FF8328C6FFF32600B04D
:100B340063120707032886FF8328C6FFF32600B045
:100B4400631A0705032886FF8328C6FFF32600B02F
:100B540063120705032886FF8328C6FFF32600B027
:100B6400631A0703032886FF8328C6FFF32600B011
:100B740063120703032886FF8328C6FFF32600B009
:100B8400631A0701032886FF8328C6FFF32600B0F3
:100B9400E30207F9B7C0000283A280FF83A6C0FF67
:100BA400732700B0631A580603A580FF83A5C0FF0E
:100BB400732700B06312A80603A380FF83A5C0FFB8
:100BC400732700B0631A680483A380FF83A5C0FF62
:100BD400732700B06312780403A480FF83A5C0FFC9
:100BE400732700B0631A880283A480FF83A5C0FF23
:100BF400732700B06312980283A680FF83A5C0FF09
:100C0400732700B0631AD80083A880FF83A5C0FFB0
:100C1400732700B0E30218F983A680FF83A7C0FFFF
:100C2400B7C50002368E83AE85FF83A7C5FF732F39
:100C340000B0631BDE0783AE85FF83A7C5FF732F58
:100C440000B06313DE0783AE85FF83A7C5FF732F50
:100C540000B0631BDE0583AE85FF83A7C5FF732F3A
:100C640000B06313DE0583AE85FF83A7C5FF732F32
:100C740000B0631BDE0383AE85FF83A7C5FF732F1C
:100C840000B06313DE0383AE85FF83A7C5FF732F14
:100C940000B0631BDE0183AE85FF83A7C5FF732FFE
:100CA40000B0E302DEF90100B7CF000213073006FB
:100CB40083A78FFF83A6CFFF3384D741F32400B0EB
:100CC4006368870803A68FFF83A6CFFF3304D6414A
:100CD400F32400B0636E870603A88FFF83A6CFFFBB
:100CE4003304D841F32400B06364870683A08FFFE4
:100CF40083A6CFFF3384D041F32400B0636A870412
:100D040083A28FFF83A6CFFF3384D241F32400B0A4
:100D14006360870403A58FFF83A6CFFF3304D54107
:100D2400F32400B06366870203A38FFF83A6CFFF7B
:100D34003304D341F32400B0636C870083A38FFF93
:100D440083A6CFFF3384D341F32400B0E37287F644
:100D5400B384E441B3F88402228681461395F800F3
:100D640093D51801EF307051B3D68402B2402244B7
:100D7400924441019395F6002E9582800000000074
:100D8400411122C42A8417A50000130565DE06C696
:100D9400EF60100AA28517A500001305A5DEEF6019
:100DA400E074F325103417A500001305A5DEEF60E9
:100DB400E073F325303417A500001305A5DEEF60BA
:100DC400E07201A000000000411122C42A8417A58A
:100DD4000000130525DE06C6EF609005A28517A561
:100DE4000000130525DAEF606070F325103417A5B1
:100DF4000000130525DAEF60606FF32530342244D8
:100E0400B24017A500001305E5D941016F60006EDB
:100E140000000000B7B7C4049382074017F7FF0F20
:100E2400232A573A82800000411106C622C4AA87A9
:100E3400634605049316450193D0460129462E873F
:100E4400637E1600170300001303C3F3BA853E85BF
:100E54000293B240224401454101828093922000D2
:100E64009383018D3384530003230400E31003FEB2
:100E7400B24022440145410182800100131845011A
:100E8400935848012D4E6381C803939E2800138F05
:100E9400818AB30FDF0183A70F00C5DF8297B240B9
:100EA4002244014541018280732740F1B700200CA0
:100EB4009316C700138640003383C600032403003F
:100EC400C142E3E882F8931324001388C18FB30866
:100ED400780003AE080063030E00029E732540F100
:100EE400B70E200C9315C500138F4E00B38FE50188
:100EF40023A08F00B9BF0000411106C622C4FD3EE5
:100F0400AA8717F4FF0F1304E42CB7050300372551
:100F140001101CC0753CF16593850520373501101F
:100F2400E13417A60000130626CA97A5000093858E
:100F340065CA17A500001305A5CAEF60205B97A535
:100F44000000938565CC17A50000130525CCEF6040
:100F5400E0590C4017A50000130585CCEF6000593B
:100F640097020000938282E61387C18F1706000060
:100F7400130646E19386018D1383818A90C2D0C201
:100F840090C6D0C690CAD0CA90CED0CE90D2D0D27D
:100F940090D62320570023225700232457002326CA
:100FA400570023285700232A5700232C5700232EA9
:100FB40057002320570223225702232457022326B3
:100FC400570223285702232A5702232C5702232E81
:100FD40057022320570423205300232253002324A1
:100FE40053002326530023285300232A5300232C81
:100FF4005300232E53002320530223225302F323AE
:1010040040F13728000C13957300B308050103AEB3
:101014000800B70E000C137FEEFF23A0E80123A005
:101024000E00F32F40F193977F00338407010C40A7
:1010340013F6D5FF10C023A20E00F32640F19392BD
:10104400760033870201032307009373B3FF232041
:10105400770023A40E00732540F193187500338E96
:101064000801032F0E00937F7FFF2320FE0123A698
:101074000E00F32740F113947700B3050401904167
:101084009376F6FE94C123A80E00F32240F1139741
:101094007200330307018323030013F5F3FD2320B8
:1010A400A30023AA0E00F32840F1139E7800330F07
:1010B4000E01832F0F0093F7FFFB2320FF0023ACC7
:1010C4000E00732440F193157400B3860501904219
:1010D4009372F6F723A0560023AE0E00732740F157
:1010E40013137700B303030103A503009378F5EF0B
:1010F40023A0130123A00E02732E40F1131F7E00C0
:10110400B30F0F0183A70F0013F4F7DF23A08F00A1
:1011140023A20E02F32540F193967500B3820601D3
:1011240003A602001377F6BF23A0E20023A40E0255
:10113400732340F193137300B388030103AE0800D3
:101144007D7F1305FF7FB37FAE0023A0F80123A6A4
:101154000E02F32740F113947700B30604018C4286
:101164009302FFFF33F6550090C223A80E027327A3
:1011740040F113137700B303030183A80300797EBE
:10118400130FFEFF33F5E80123A0A30023AA0E02E8
:10119400F32F40F193977F00338407011440F175D6
:1011A4009382F5FF33F6560010C023AC0E0273276A
:1011B40040F113137700B303030183A80300617E96
:1011C400130FFEFF33F5E80123A0A30023AE0E02A4
:1011D400F32F40F193977F003E9803240800C176D3
:1011E4009385F6FFB372B4002320580023A00E04A5
:1011F400F32E40F13707200CB24022441396CE0060
:101204003303E60023200300410182808280000032
:101214008280000082800000031E45001D71A2CC64
:101224006AD886CEA6CACAC8CEC6D2C4D6C2DAC0C6
:101234005EDE62DC66DA6ED602CA2EC640512A8DA4
:101244002E836357C07D0145814E814F8148B24052
:101254009377F50F3ECA63C1003A630D047AA28303
:1012640031A0010083A303006389030083A4430026
:10127400324683952400E397C5FE03290400814781
:101284001CC0630109088329090023208900A2875F
:101294004A846389090603AA090023A02901CA878D
:1012A4004E8463010A06832A0A0023203A01CE876A
:1012B400528463890A0403AB0A0023A04A01D2873B
:1012C400568463010B04832B0B0023205B01D68718
:1012D4005A8463890B0203AC0B0023A06B01DA87E9
:1012E4005E8463010C02832C0C0023207C01DE87C6
:1012F400628463890C00668403290400E2871CC0AD
:10130400E31309F8638A033083AD430013881F0095
:10131400131F080183970D00935F0F0193F01700CB
:10132400638B000013D79740937217009698939697
:10133400080193D8060183A4030089C88C4023A024
:10134400B3008323040023A0740004C0B24B63C918
:101354000B00138C1B00931C0C0193DD0C416EC617
:1013640005051318050113550841E312AEEE139E4B
:101374002F00330FDE41B38FE80193970F0193D011
:10138400070106CC634A603A032D0400324FA28A57
:1013940083240D0003234D00C84003AE0400232220
:1013A400AD0023A264002320CD0123A004006345E3
:1013B4000F2203A74A00B24883122700638A12014E
:1013C40083AA0A00E3970AFE832A040063840A0CB2
:1013D4005440E24503950600EF30403E03A90A005D
:1013E4002ACC6305090A83234400AA8503950300D4
:1013F400EF30C03C832A09002ACCAA8563880A08F6
:10140400504003150600EF30603B03AB0A002ACCC2
:10141400AA85630D0B06832E440003950E00EF305E
:10142400E039832B0B002ACCAA8563810B06832D1C
:10143400440003950D00EF30603883AC0B002ACCD8
:10144400AA8563850C04032A440003150A00EF30BF
:10145400E03603AC0C002ACCAA8563090C0283296C
:10146400440003950900EF306035032D0C002ACCAD
:10147400AA85630D0D000328440003150800EF300E
:10148400E033832A0D002ACCE3940AF4832A04006F
:1014940003A3440083A54A0003A50A00054BCCC05E
:1014A40023A26A0088C081460149014F23A09A0003
:1014B400854F0100137E7B00A2870146050F630B55
:1014C4000E04854063031E040943630D6E028D44BC
:1014D40063079E0211476301EE029542630B5E00AF
:1014E400994863051E011C400546ADC79C4305068B
:1014F400B5C39C430506B9CF9C430506A1CF9C43C5
:101504000506A9CB9C430506B1C79C430506B9C390
:101514006302CB049C430506B2838DCF9C4305062E
:1015240095CB9C431386230095C79C4313863300B5
:1015340095C39C431386430091CF9C431386530069
:1015440091CB9C431386630091C79C43138673001D
:10155400E1F30100DA8535C2F5C1EDC3832044000F
:1015640083A2470003970000039E22008398200073
:101574001313070193530301937B07F093DD830057
:10158400B3EEBB012390D001839C0200338AC8418F
:10159400139C0C0193590C0113FD0CF013D8890012
:1015A400B36A0D0123905201635A40093E85FD152B
:1015B4009C43C9CA88C2AA8645F2C9C9E5FB23A0CF
:1015C4000600630BFF09060B63050908CA87014F70
:1015D400814601493E84F9BD83AF4A00D24083C7A6
:1015E4000F00E38717DE83AA0A00E3970AFE832A23
:1015F4000400E39F0ADC79BD630E0440A28329A0A2
:1016040083A30300E38B03C603A74300D2468342AC
:101614000700E39756FE95B1D043850E13990E014A
:1016240083091600935E090113FA1900B38A48016D
:10163400139B0A0193580B0111BB010022857D16EF
:101644000040ADFA2A89AA8685BF0100ADDB3E843D
:1016540095B523200000029083240900D5CC032FE4
:101664004900E24503150F00EF30401580402ACCB5
:1016740045C4832F4900AA8503950F00EF30001459
:10168400832B04002ACCAA8563880B08832649008F
:1016940003950600EF30801283AD0B002ACCAA8597
:1016A400638C0D06832E490003950E00EF30001164
:1016B40083AC0D002ACCAA8563800C06032A49005A
:1016C40003150A00EF30800F03AC0C002ACCAA8566
:1016D40063040C048329490003950900EF30000ECC
:1016E400032D0C002ACCAA8563080D0203284900A7
:1016F40003150800EF30800C832A0D002ACCAA853C
:10170400638C0A000325490003150500EF30000B24
:1017140083A40A002ACCA1F4F64066446245D64468
:101724004649B649264A964A064BF25B625CD25C4D
:10173400425DB25D25618280054313078D021AC4A0
:101744003ACEE30804F0014C814902C8054A01007D
:10175400C246A242A28D9384160093F8720026C852
:10176400814C638A08068545638FB804894363877F
:1017740078040D46638FC802914E6387D8031549D8
:10178400638F2801994A63875801832D0400854C8F
:1017940063820D0A83AD0D00850C638D0D0883AD46
:1017A4000D00850C63880D0883AD0D00850C6383E3
:1017B4000D0883AD0D00850C638E0D0683AD0D0001
:1017C400850C63890D0683AD0D00850C63840D06BD
:1017D400224B63816C0783AD0D00850CE68B638B14
:1017E4000D0483AD0D00850C63860D0483AD0D00DF
:1017F400938C2B0063800D0483AD0D00938C3B0010
:10180400638A0D0283AD0D00938C4B0063840D023B
:1018140083AD0D00938C5B00638E0D0083AD0D00D2
:10182400938C6B0063880D0083AD0D00938C7B005B
:10183400E3900DFAA28B224B6E8463860C040100A4
:1018440063020B0625C083A44B00832D4400839AB6
:10185400040093F70A08CDC713F9FA07839A0D0019
:1018640093F40A08B1C893F4FA07B30D9940635B83
:10187400B00322897D1B0040630C0C0223202C0141
:101884004A8CE39F0CFA63010B0C65F423200C00D3
:10189400424C054A4E84E3094CAFA24913981900FF
:1018A40042C445B55E89FD1C83AB0B00E3180CFCF8
:1018B400CA894A8CF9B7010093D73A4013F6F70066
:1018C400931F460013FF7A00B365F60163020F10FD
:1018D40063004F0F939E0A01D68313D50E018355DF
:1018E4008D0393F4F307EF20A07B13F80AF0B3E51C
:1018F4000401231CAD0293E605082390DD00B5B76F
:1019040013D63A40137FF60093104F0093FF7A00EA
:10191400B3651F00638E0F04638C4F0313980A0191
:10192400D68E1355080183558D0313F9FE07EF2056
:10193400207793F50AF0B366B900231CAD0213E5D2
:1019440006082390A40019BFE31404E081B7010042
:1019540003568D037245A92B0353CD03931305013D
:1019640093DE0341E31103FC231EAD026DBF0100AE
:101974009302200283578D032E8763D455001307E7
:10198400200283162D0003160D0083254D01032527
:101994008D011377F70FEF1070388358ED03131E82
:1019A4000501935E0E41E39008F8231FAD02A5BF25
:1019B40003568D037245ED29035ECD031313050110
:1019C40093530341E31D0EF0231EAD0209BF010032
:1019D4009300200283578D03AE8263D415009302D3
:1019E400200283162D0003160D0083254D010325C7
:1019F4008D0113F7F20FEF1070320357ED039318B4
:101A0400050193D30841E31C07EC231FAD02C1BDBC
:101A140002CC8DBA83270000029000005148B352D3
:101A24000503B28E617523A005001307050893878B
:101A34000501938685001388E2FF131638002E965D
:101A4400D0C193182800231106002310E600B29891
:101A54001303460063F1C73E13078600637D173DF9
:101A640023A4050094C123A665009343F5FF7D5E7E
:101A74002312C60123137600630D0820139F0E0161
:101A8400E17F937238000145135F0F0113C3FFFF19
:101A9400638D020C854363847208094E638DC2030F
:101AA4009382870063F7C21E930F470063F41F03FA
:101AB40013153F0094C3937385079CC193968300C9
:101AC400D8C333EE76002310C70123116700BE8606
:101AD4007E87968705459382870063FCC21A930329
:101AE400470063FD1303931F050193DF0F0133CEFA
:101AF400EF010E0E93FF7F00137E8E0794C3336EA7
:101B0400FE019CC193168E00D8C3B3EFC601231007
:101B1400F70123116700BE861E8796870505938209
:101B2400870063F8C2169303470063FD1303131E73
:101B34000501935F0E0133CEEF010E0E93FF7F007C
:101B4400137E8E0794C3336EFE019CC193168E00E0
:101B5400D8C3B3EFC6012310F70123116700BE8673
:101B64001E87968705056306A8129383870063F290
:101B7400C3129302470063FD1203131E0501935F12
:101B84000E0133CEEF010E0E93FF7F00137E8E07FE
:101B940094C3336EFE019CC193168E00D8C3B3EF79
:101BA400C6012310F701BE86231167009E8716879E
:101BB40093828700050563FEC20C9303470063FD0F
:101BC4001303131E0501935F0E0133CEEF010E0EB6
:101BD40093FF7F00137E8E0794C3336EFE019CC176
:101BE40093168E00D8C3B3EFC6012310F701231157
:101BF4006700BE861E87968793828700130E1500A2
:101C040063F9C2089303470063FD1303931F0E0196
:101C140093DF0F0133CEEF010E0E93FF7F00137E8F
:101C24008E0794C3336EFE019CC193168E00D8C3F5
:101C3400B3EFC6012310F70123116700BE861E8788
:101C4400968793828700130E250063F4C2049303DE
:101C5400470063FD1303931F0E0193DF0F0133CE7F
:101C6400EF010E0E93FF7F00137E8E0794C3336E35
:101C7400FE019CC193168E00D8C3B3EFC601231096
:101C8400F70123116700BE861E8796870D05E31EA4
:101C9400A8EC904229CA9548335F1803116385471D
:101CA40009489302F3FF63FEE70103A346000842D9
:101CB40005082311F30085071DC5B2862A86E3E6CD
:101CC400E7FF9313880003AE460093FF0370B3C687
:101CD400FE00084233E7DF00B378570023111E01EA
:101CE4008507050879F9854F0148014581428543F7
:101CF40093FE7F00AE8701468502638B0E04054F79
:101D04006383EE05094E638DCE038D466387DE0241
:101D140011476381EE029548638B1E011943638565
:101D24006E009C410546ADC79C430506B5C39C4364
:101D34000506B9CF9C430506A1CF9C430506A9CB54
:101D44009C430506B1C79C430506B9C36302F60567
:101D54009C430506B28E8DCF9C43050695CB9C43D0
:101D640013862E0095C79C4313863E0095C39C435F
:101D740013864E0091CF9C4313865E0091CB9C4307
:101D840013866E0091C79C4313867E00E1F3010025
:101D9400FE8625C6D1C2C9C303AE450003A34700CE
:101DA40003170E00031F230083182E00931E070140
:101DB40093DE0E0193DE8E00137707F03367D701AD
:101DC4002310EE00831E0300B388E841139E0E0126
:101DD400135F0E0113F70EF0935E8F00336ED7017D
:101DE4002310C301635A10033E83FD169C43630A08
:101DF4000802232068001A8851FE9DC6F5F72320A7
:101E0400080063897202860F1DC1AA8781420148B6
:101E14000145BE85F1BD01002E837D168C41E31A78
:101E240008FC1A851A88C9BFF9DBBE85D1B5232001
:101E3400000002908280B6871A87814635B9000077
:101E440041114AC00329C50106C622C426C2232C57
:101E54000502232E0502630D09022A848144010030
:101E640085452285EFF04FBB83558403EF20402343
:101E7400231CA402FD552285EFF00FBA8355840379
:101E8400EF200022231CA40281CC8504E31A99FCD0
:101E9400B24022449244024901454101828001003A
:101EA400231DA4028547E305F9FE854455BF0000C0
:101EB4001D7158416AD8032D0500CAC8CEC6D2C4C4
:101EC4007D7986CEA2CCA6CAD6C2DAC05EDE62DC3A
:101ED40066DA6ED63AC832CE8329C500032A850055
:101EE40033E9250163140D006F10401DAE86931471
:101EF4001D003308A04133069700139B06011313FA
:101F0400180032858145135B0B010A08B308A3004E
:101F1400B30015419382E0FF93D31200138413009E
:101F2400937A7400C68763880A08054E638CCA07CF
:101F3400894B63827A070D4C63888A05914C638EC2
:101F44009A03954D6384BA03994E638ADA0103DFD9
:101F5400080093872800B30FEB012390F80103D7FF
:101F640007008907B300EB00239F17FE83D2070005
:101F74008907B3035B00239F77FE03D40700890717
:101F8400B30A8B00239F57FF03DE07008907B30BB7
:101F9400CB01239F77FF03DC07008907B30C8B0178
:101FA400239F97FF83DD07008907B30EBB01239F9F
:101FB400D7FF6385A70683D0070083D3270083D286
:101FC400470083DF670003DF870003D4A70083DAB9
:101FD400C70003D7E700B30B1B00330C7B00B30C23
:101FE4005B00B30DFB01B300EB01B30E8B00330EAA
:101FF4005B01B303EB0023907701239187012392C4
:1020040097012393B701239417002395D7012396AF
:10201400C70123977700C107E39FA7F8138415002E
:102024003385084163048D00A285CDB5014E814EF0
:10203400B308C300B30716419382E7FF93DF12008E
:10204400138F1F00931A2E0013777F004685B387E2
:102054003A0151CF854B63027709094C630787071F
:102064008D4C630C9705914D6301B705954063064C
:1020740017029943630B77008392080013852800A5
:102084009107B38FD20223AEF7FF031F0500910718
:102094000905B30ADF0223AE57FF031705009107B2
:1020A4000905B30BD70223AE77FF031C0500910784
:1020B4000905B30CDC0223AE97FF831D05009107CD
:1020C4000905B380DD0223AE17FE831305009107D3
:1020D4000905B382D30223AE57FE831F0500090509
:1020E4009107338FDF0223AEE7FF6307C506831B27
:1020F4000500831A2500031C4500831C6500831D0D
:102104008500831FA500031FC5000317E500B380E6
:10211400DB02410593870702B383DA0223A017FE8B
:10212400B302DC0223A277FEB38BDC0223A457FEA6
:10213400B38ADD0223A677FF338CDF0223A857FF7F
:10214400B30CDF0223AA87FFB30DD70223AC97FF9A
:1021540023AEB7FFE31DC5F813851E00229E338608
:1021640008416384D501AA8EE1B5931E2400B38D82
:10217400D9013303804076CAEE860145814E8147FA
:1021840081480E03B30FD800338FF6411307CFFFF6
:10219400935027009383100093F273007E8E63881C
:1021A400021C854B6386720D894A6385520B0D4C64
:1021B40063848209914C6383920715466382C20447
:1021C400194F6381E203768E83AE0F00F697E35BCB
:1021D400F96C9307A5009393070113D50341814735
:1021E400138E4F00F682832E0E00F697635CF92A55
:1021F400930CA50013960C01135506418147110E4B
:10220400768F832E0E00F6976356F9289307A50060
:102214009393070113D503418147110EF682832E50
:102224000E00F697635FF924930CA50013960C0136
:10223400135506418147110E768F832E0E00F697B3
:102244006359F9229307A5009393070113D503411A
:102254008147110EF682832E0E00F6976352F92001
:10226400930CA50013960C01135506418147110EDA
:10227400768F832E0E00F697635CF91C9307A500F6
:102284009393070113D503418147110E6311DE0EA9
:10229400138F1800B3866F40638F1521FA88DDB55C
:1022A40003274E00B3AE5E00B38BAE00939A0B01CE
:1022B400B380EC0013D50A41110E635E190C832A16
:1022C4004E00930EA5008140939B0E01338C500168
:1022D40093D20B41635F890D83238E001387A20081
:1022E400014C131F0701B3077C0093500F41635047
:1022F400F90E0326CE00138CA0008147931C0C0119
:102304003385C70093DA0C416351A90E832E0E0165
:102314009387AA00014593920701B30BD50193D388
:1023240002416352790F032F4E011385A300814BA1
:1023340093100501B383EB0113D600416353790E67
:10234400930EA600939A0E01832E8E01814393DB94
:102354000A41B387D3016354F90E1385AB0093107C
:10236400050113D500418147710EE303DEF2832298
:102374000E00B38C5700E35599F303274E00130C5A
:10238400A500814C13160C01B380EC0013550641D3
:10239400110EE34619F2832A4E0033AFE200B3076D
:1023A400AF0093930701338C500193D20341E3456B
:1023B40089F383238E00B32C570133865C001315F5
:1023C4000601B3077C0093500541E344F9F2032668
:1023D400CE00B3A27A00B38E1200939B0E01338514
:1023E400C70093DA0B41E343A9F2832E0E01B3A095
:1023F400C30033875001131F0701B30BD501935357
:102404000F41E34279F3032F4E01B32AD601338CF3
:102414007A00931C0C01B383EB0113D60C41E34106
:1024240079F233A7EE01832E8E01B307C70093928E
:102434000701B387D30193DB0241E340F9F2332C64
:10244400DF01B30C7C0113960C011355064129BF1F
:102454003327DF013A959310050113D5004135B5B3
:10246400B3ABD201B38AAB00139C0A0113550C41E0
:10247400FDBB3327DF013A959310050113D50041C5
:10248400C9BBB3ABD201B38AAB00139C0A01135589
:102494000C4155B33327DF013A959310050113D549
:1024A4000041A5BBB3ABD201B38AAB00139C0A01B4
:1024B40013550C41A9B38145EF2040305246AA88F8
:1024C40081454E8546C0EF40405ACE85814FB302C8
:1024D4009A000100B38342411387E3FF935B170023
:1024E400C247938A1B00939E1F0013FC7A005287F5
:1024F4000146F69763050C0A854C63079C09094558
:10250400630BAC068D40630F1C04114E6303CC05B2
:10251400154363076C021948630B0C01039607000B
:10252400031F0A00890713072A003306E60383966C
:1025340007008318070089070907B38316031E964B
:10254400839B0700831A070089070907B38E5B037F
:102554007696039C0700831C070089070907330547
:102564009C032A9683900700031E07008907090726
:102574003383C0031A9603980700031F07008907D3
:102584000907B306E8033696839807008313070008
:1025940009078907B38B78025E9663055708839A07
:1025A400070003150700839C2700031F2700031C53
:1025B4004700839E4700B386AA02031E6700839BDD
:1025C400670003938700831A87008398A70083100A
:1025D400A7000398C7008313C7000395E700338F50
:1025E400EC03831CE70036964107C107B38E8E03C4
:1025F400330CE601B38BCB03B306DC01330E530378
:1026040033837601B38A1802B308C301B300780296
:1026140033885801B3039503330518003306750056
:10262400E31F57F690C19105A29FE395B5EB0148CE
:102634000145014381478148931D2800B38FB901A7
:102644009A8203A30F009305F4FF13FF35009A97B2
:10265400E35DF9189307A500939E070113D50E4176
:102664008147854613874F0063F98614630B0F0C6B
:102674006302DF04094C63008F039A8B03A34F00AA
:102684009A97E357F9209303A50013950301418515
:102694008147850611079A8D032307009A97E35B08
:1026A400F918130FA500931C0F0113D50C41814792
:1026B400850611071A86032307009A97E352F91631
:1026C4009307A500139E070113550E418147850604
:1026D400110763E88606D5A0032F4700332353016F
:1026E400B300A30093930001B38CED0193D2034193
:1026F40085061107635B9907032E4700938BA2009D
:10270400814C93970B01B38ACC0113DC0741635CC2
:102714005907032387001305AC00814A931F050161
:10272400B3876A0093DD0F41635DF9069385AD00BD
:10273400139605018D06135506418147310763FE43
:102744008606832A0700B38D5701E357B9F9032F8F
:1027540047002905814D931F0501B38CED0193D2E8
:102764000F4185061107E34999F9032E4700B3A5E4
:10277400EA0133865500931E0601B38ACC0113DCAB
:102784000E41E34859F93323CF01B30083010323F6
:1027940087009393000193DD0341B3876A00E34705
:1027A400F9F8B3226E00338FB201931C0F018D062A
:1027B40013D50C413107E3E686F885082298E3ED4A
:1027C40088E68245914AEF10707F2ACCE3150D0EFE
:1027D400C24B4E8D014C0100568681456A85EF40FF
:1027E400C028AA821686528501480100839E0B00E8
:1027F400031E05009300F4FF8545B386CE0393F3CF
:10280400700013872B00B307950063F78516638C5C
:10281400030A638EB308894D6381B3098D4F6384C2
:10282400F307114363876304154F638AE303994CE9
:10283400638D930183180700039D0700894513875F
:102844004B00B38EA803A697F696031E0700839049
:10285400070085050907B3031E02A6979E96831DEC
:102864000700839F0700850509073383FD03A697A7
:102874009A96031F0700839C070085050907B30880
:102884009F03A697C696031D0700839E0700850530
:102894000907330EDD03A697F2968310070083938E
:1028A400070085050907B38D7002A697EE96831F6E
:1028B40007000393070085050907338F6F02A69766
:1028C400FA9663FB850A831C0700839E0700338DF9
:1028D4009700330E9D00B38DDC03B3009E00B383D9
:1028E400900083180D00B3879300831F2700031DF6
:1028F4000E0003930700031F4700A697B38F1F031F
:10290400831E6700839C00001AC003930700EE96A1
:10291400031E87001AC20313E70083900300330FDA
:10292400AF03A6971AC4039307008313A700338D3C
:10293400F6018318C7001AC61243A105B38D9E037E
:10294400B30EED01224F324D4107A697B30C1E0280
:102954008240338EBE01B3831302B30F9E01B3884A
:102964006802B3867F00B30DAF03B38E1601B3863E
:10297400BE01E3EA85F4010014C205081106090545
:10298400E36688E65245050CA69B338DA200E365F9
:102994008CE401480145014381478148931B280089
:1029A400338C79019A8203230C001306F4FF937588
:1029B40036009A976359F9609307A500939007012D
:1029C40013D500418147854613074C0063F78614ED
:1029D400F1C96382D5048943638075029A8F032306
:1029E4004C009A97635DF968930EA50013950E0148
:1029F40041858147850611079A8B032307009A971F
:102A0400635DF9649305A500939C050113D50C41FE
:102A14008147850611071A8E032307009A9763508E
:102A2400F95E9307A500139F070113550F418147D2
:102A34008506110763E88606CDA0010050433323C1
:102A4400A301B30DA300939E0D01B38CCB0093D2CD
:102A54000E4185061107635A9907032F4700938F88
:102A6400A200814C93970F01338DEC0193D307415E
:102A7400635BA907032387001385A300014D131C7F
:102A84000501B3076D00935B0C41635CF906938504
:102A9400AB00139E05018D0613550E418147310786
:102AA40063FD8606032D0700B38BA701E35879F96C
:102AB40050432905814B131C0501B38CCB00935261
:102AC4000C4185061107E34A99F9032F4700B32502
:102AD400CD00338E550093100E01338DEC0193D34A
:102AE4000041E349A9F93323E601B30D730003233D
:102AF4008700939E0D0193DB0E41B3076D00E348FD
:102B0400F9F8B3226F0033867201931C06018D0617
:102B140013D50C413107E3E786F885082298E3EFE3
:102B240088E6E245814DEF107049424DCE83AA8B71
:102B3400568681451E85EF3050732A8CD28C2A8E9E
:102B44000143010083100D00839F0C00130FF4FF59
:102B54008545B38EF00393723F0013052D00B386B1
:102B64009C0093D72E4013D65E4093F8F70013775A
:102B7400F607B387E80263FB851263860208638E57
:102B8400B204094863870203831305008390060097
:102B9400894513054D00B38F1302A69613DF2F400A
:102BA40093DE5F409372FF0013F6FE07B388C20200
:102BB400C697031705000398060085050905B303A6
:102BC4000703A69693D0234093DF534013FFF000EE
:102BD40093FEFF07B302DF0396978318050003965D
:102BE4000600850509053387C802A69613582740B1
:102BF400935357409370F80093FFF307338FF00318
:102C0400FA9763F5850AB3889600831E05008392BC
:102C140006003387980003182500039608008313E1
:102C24004500B306970083100700338F5E028312BA
:102C34006500839E060091052105A696B308C80287
:102C4400935F2F4013585F4093FFFF001377F807FB
:102C5400B380130213D6584093D328401378F60751
:102C640093F8F300B38ED20313DF504093D2204085
:102C740093F0F2009373FF073387EF0213D65E409D
:102C840093DF2E4093F2FF00937EF607B388080388
:102C9400BA9733887002338F1701B380D203B3031A
:102CA4000F01B3871300E3E085F601002320FE0043
:102CB4000503110E890CE36783E8D24C850D269D2C
:102CC400B3039C01E3E68DE6814801450147814752
:102CD4000143010093942800338A9900BA8A032798
:102CE4000A00130DF4FF937D3D00BA976356F92E45
:102CF40029059316050113D5064181470548130696
:102D04004A00637A8814638B0D0C63820D05894F26
:102D14006381FD03BA8203274A00BA976358F934E2
:102D24009307A5009393070113D503418147050831
:102D34001106BA8C1842BA976358F930130DA500DE
:102D4400931D0D0113D50D418147050811063A8CD9
:102D54001842BA97635EF92A9306A500939F060169
:102D640013D50F4181470508110663698806E5A05C
:102D7400444233275700B30EA700139F0E01B38AB2
:102D84009700935C0F410508130A4600635C5907DA
:102D940003254A00138EAC00814A93150E01B38FAC
:102DA400AA0013DC0541635DF90703278A00130FAA
:102DB400AC00814F93100F01B387EF0093DE004105
:102DC400635EF906938AAE0013960A010D08135543
:102DD400064181471306CA00637F880683220600E2
:102DE4009697E357F9F844429300A50081479393DB
:102DF4000001B38A970093DC03410508130A4600D7
:102E0400E34859F903254A0033A69200330D96018D
:102E1400931D0D01B38FAA0013DC0D41E347F9F9AB
:102E2400B3A6A400B382860113970201935E0741FF
:102E340003278A00B387EF00E346F9F8B323E500DC
:102E4400B38CD30193940C010D0813D504411306DC
:102E5400CA00E36588F80503A298E36D83E6DE857E
:102E6400EF10D01501498149424A931B1900130CF4
:102E7400F4FF330D7A01835D0D008546937F7C005A
:102E8400338E6D412310CD0193072D0063F486101A
:102E9400638E0F086382DF0889456387BF068D420E
:102EA400638C5F04914E6381DF05154F6386EF03E6
:102EB4009940638B1F0003572D00894693074D00EB
:102EC400B303674123117D0083DC0700850689076E
:102ED400B3846C41239F97FE83DA07008506890734
:102EE40033886A41239F07FF03D6070085068907B5
:102EF40033036641239F67FE83D80700850689074D
:102F0400B38B6841239F77FF03DA0700850689079F
:102F1400330D6A41239FA7FF83DD070085068907D8
:102F2400338C6D41239F87FF63F6860603DE07001B
:102F340083D2270083DE470083D0670083D38700D2
:102F440083D5A70083DCC70003D7E700B30F6E4126
:102F5400338F6241B3846E41B38A604133886341E5
:102F64003383654133866C41B30867412390F7018D
:102F74002391E70123929700239357012394070198
:102F8400239567002396C70023971701A106C1075D
:102F9400E3EE86F885092299E3E889EC1314050128
:102FA400135504416644F245F640D6444649B649B1
:102FB400264A964A064BF25B625CD25C425DB25D85
:102FC40025616F10A07F33A76200B30CA700139E86
:102FD4000C0113550E41C5BA33ACEA00330EAC00F4
:102FE40093150E0113D5054111BB33A76200B30C31
:102FF400A70013960C01135506416FF08FE6B3201A
:103004006E00B383A000939F030113D50F410DB449
:10301400332EEC00B305AE00139505014185A1B331
:10302400B32E6600338CAE00931B0C0113D50B41F9
:103034006FF0EFE9B3AF6D00B382AF009395020177
:1030440013D505416FF0CFE6B3A4EC00338AA40096
:10305400931A0A0113D50A41CDB933AC6B00B302FC
:10306400AC00139602011355064165B2B3AEE200FB
:10307400338FAE0093100F0113D500414DB933AF18
:103084006F00330DAF00931D0D0113D50D419DB29B
:1030940033AE6B00B30AAE0093900A0113D500411E
:1030A4006FF02FDF3327DE013A959310050113D516
:1030B40000416FF0EF92D24A6FF08FF181450145E4
:1030C400EF10C06FAA850145EF10406FAA85014536
:1030D400EF10C06EAA850145EF10406EC1B5000027
:1030E40079714AD222D626D44ED052CE56CC5ACA60
:1030F4005EC862C666C46AC22A87368911E205467A
:1031040081476309073213881700B30608039388BD
:103114002700138E3700938E4700138F5700938F29
:103124006700938277003E85A1079393360033832B
:10313400180363F1E306131B33004285B309CE037E
:10314400637AEB04139C39004685B38BDE03637307
:10315400EC04139D3B007285B30CEF03637CED021A
:10316400939A3C007685B384FF0363F5EA02139ACD
:1031740034007A8533845202637EEA009316340065
:103184007E853388F70263F7E600931838001685C6
:10319400E3EBE8F68D0593F4C5FFAA8A3307A5028D
:1031A40013141700338A8400630C0524416E814391
:1031B400054F930EFEFF9309F5FF93161500D28277
:1031C400A68F01003306E60393170F0113DB0701F3
:1031D4001303F5FF937B3300054E93051F0093887B
:1031E400220013882F00135CF641935C0C01330D0D
:1031F40096013377DD0133069741B307CB00139370
:103204000701135C0301629B23908201937CFB0FF3
:1032140023909F01637CAE1C638E0B0C6389CB09E6
:10322400094D6385AB053306B602C20593DB050180
:10323400094E93052F001357F641935707013303A3
:10324400F600337CD3013306FC40338BCB00931C54
:103254000B0113DD0C01EA9B2390A80193F8FB0FEB
:10326400231018019388420013884F003306B602D6
:103274001397050193570701050E85058908090869
:103284001353F641135C0301330B8601B37CDB015A
:1032940033868C41338DC700931B0D0113D70B016B
:1032A400BA97239FE8FE13F3F70F231F68FE330634
:1032B400B602139C0501135B0C01050E85058908F4
:1032C4000908935CF64113DD0C01B30BA60133F737
:1032D400DB013306A741B307CB0013930701135C4B
:1032E4000301629B239F88FF937CFB0F231F98FF9E
:1032F400637EAE0E3306B60293871500938B3500BA
:10330400139D0501935C0D0113930701139D0B019C
:10331400135C030113530D0113872500135DF6415C
:10332400135D0D016A963376D601330DA641B307BA
:10333400FD023386AC01131D060113560D012390C3
:10334400C800B29C13FDFC0F2310A801131B070136
:10335400135B0B0113D6F741935C0601E69733FD2B
:10336400D70133069D413307E602B30CCC00939793
:103374000C0113DD07012391A8016A9C1376FC0F4D
:103384002311C800110E9105935CF74113DD0C0164
:103394006A97B377D701338CA741B30B7C03330609
:1033A4008B01931C060113DD0C012392A8016A9B77
:1033B4001377FB0F2312E800A108210893D7FB41E0
:1033C40013DC0701E29B33F6DB0133068641B30CC1
:1033D400C300139D0C01135B0D015A93239F68FFD7
:1033E4001377F30F231FE8FEE366AEF0050F014EDB
:1033F40011C14E8E8503729FB692B69FE3E4A3DC9F
:10340400529493033400325493FEC3FF2322990051
:1034140023244901232059012326D901A2541259F6
:103424008259724AE24A524BC24B324CA24C124D60
:10343400456182808D0593F4C5FFFD5A7D5509448D
:10344400138A2400A5B300004111F32700B83EC23B
:10345400F32200B016C4732300B81AC61247B2434D
:1034640063057700732500B02AC4B246A2451386CB
:10347400818854C20CC24101828000004111F327AB
:1034840000B83EC2F32200B016C4732300B81AC6B3
:103494001247B24363057700732500B02AC4B246CD
:1034A400A2451386018954C20CC2410182800000E6
:1034B40093870189138781888C43084383A247003B
:1034C400032347003385A540B3B3A5003386624088
:1034D400B3057640828000009397850121814111D4
:1034E4005D8DA18106C622C426C2EF30000097D2AA
:1034F400FF0F83A222CEAA8413D582002E84EF204C
:10350400F0792A86AE862685A285EF20A017B240E0
:103514002244924441018280000000007571CEDE95
:10352400DED6E2D4E6D206C722C526C34AC1D2DC1F
:10353400D6DADAD8EAD0EECE03C80500930901033F
:1035440002D823A2090023A4090023A6090023A862
:10355400090023AA090023AC090023AE090002C80C
:1035640002CA02CC02CE02D002D202D402D62AC6A9
:103574002E8F328CB68BBA8CBE856301082E9307CE
:10358400C002E309F80EC288FA8E814601478142DF
:10359400814701468140014B0144014A8143814AEC
:1035A40001458144938D08FD13F9FD0F254D636397
:1035B4002D0D83C81E00050513831E00114E854F73
:1035C40063830826930EC002638BD8051309E002B7
:1035D400254D930DC0026385280D938808FD93FF44
:1035E400F80F637BFD1D83481300054B854F054E83
:1035F4000504930E130001000A0E13030105330999
:10360400C301032D09FC930D1D002320B9FD63891B
:1036140008021303C002014EE39668F876838348D8
:103624001300930E13000A0E130301053309C3019B
:10363400032D09FC930D1D002320B9FDE39B08FC19
:1036440063830A0026DA63830F002AD863030A001F
:103654001EDC63030B00A2C011C286C26383020096
:103664003EDE638D061E3245BAC43304AF00636C7C
:103674008F1E85A6930FB002638CF8151303D00236
:1036840063886814130EE002638AC87D83C81E0031
:10369400854F854A054E85040505850EB1BF010099
:1036A4008348130005040503154E854F054B638CB1
:1036B4000816930EC002E384D8F713095004254D6D
:1036C400930DC00213FEF80D63022E03938808FDC8
:1036D40093FFF80F637CFD15834813000546854F5F
:1036E400054E8500930E13003DBF0100834813006F
:1036F4008500930E13000D4E854F0546E38E08EEAC
:103704001309C002E38C28F1938258FD93FED20F73
:10371400638A0E00834823008542054E8507930E75
:103724002300D9BD834823008507930E2300194E37
:103734008542E38308ECE38328EF938608FD13FDB9
:10374400F60FA54D63FAAD01834833008546054E57
:103754000507930E33004DB58348330005070D0369
:103764001D4E85466381080CE38B28EB2549130D18
:10377400C002138608FD137EF60F637FC9018348D8
:103784001300854685420546854F854A054E8504C6
:10379400930E130095B5010083481300930E130094
:1037A4001D4E854F054685428546E38708E4E38739
:1037B400A8E776837DBF010083481300930E1300AE
:1037C400114E854FE38A08E2E38AB8E5768321B592
:1037D40083C81E00050513831E00094E854F6384AC
:1037E4000804930EC002E38CD8E3138A08FD937D8A
:1037F400FA0F25496370B903130DE0026384A80529
:1038040083481300054A854F054E8503930E130024
:10381400E5B301008348130085030503114E854F6A
:10382400054AE39108DA9A8EC1BB0100834813006C
:10383400930E1300154E854FE38008DCE380B8DF58
:10384400768349B58348130085030503154E854FD8
:10385400054AE39008E69A8E45B30100B248330462
:103864001F0163768F160548639A0C6583420F0027
:103874009347FFFF3306F4009300C002137B7600E6
:103884006386120033CA820123004F0193071F008D
:1038940063FD871263050B0A854363077B08894A26
:1038A400630B5B078D44630F9B04114E6303CB05CD
:1038B400154363076B021949630B2B0103CD070002
:1038C40063061D00B34D8D012380B701850703C531
:1038D400070063061500B348850123801701850797
:1038E40003C8070063061800B34E88012380D7017C
:1038F400850783CF070063861F00B3C68F0123802B
:10390400D700850703C7070063061700B342870182
:1039140023805700850703C6070063061600334B50
:10392400860123806701850703CA070063061A001E
:10393400B3438A0123807700850763F8870883CA25
:10394400070063861A00B3C48A012380970003CE5C
:1039540017001383170063061E0033498E01A380EA
:103964002701834713006386170033CD8701A30023
:10397400A301834D230063861D0033C58D012301FC
:10398400A300834833006386180033C88801A30169
:103994000301834E430063861E00B3CF8E012302CE
:1039A400F301834653006386160033C78601A302DE
:1039B400E300834263006386120033C6820123035B
:1039C400C30093077300E3EC87F603480F00630515
:1039D4000810130CC002D2504253625E8643964DC7
:1039E400F258A64E630E884FFA86814F81440149EE
:1039F4000145814A014A81A89307B0026308F83A55
:103A04001306D0026304C83A130CE002630C884323
:103A140003C8160005460549854285000503850649
:103A2400139B2200130D0105B3026D0103A702FCD1
:103A34009307170023A0F2FC630E0806130CC002C0
:103A44008142630B883F130B08FD137DFB0F254751
:103A5400E364A7FB03C8160005031387160091420D
:103A640005466300083A9307C0026309F824130B60
:103A7400E002254C130DC00263026821130808FDFF
:103A84001376F80F6378CC308542139B2200130D14
:103A94000105B3026D01034817009306170003A73D
:103AA40002FC054A05469307170023A0F2FC850390
:103AB400E31608F86303090006DA11C21AD891C0A4
:103AC40072DC63030A009EC063830F00EEC211C15F
:103AD40046DE63830A00F6C463738F16054663915A
:103AE400CC3C834C0F00134EFFFFB30DC401930372
:103AF400C00293F87D0063867C00B3CE7C01230072
:103B0400DF01050F637D8F126385080A054C638707
:103B140088098946638BD8068D4F638FF8059144D5
:103B2400638398041549638728031945638BA800A8
:103B3400834A0F0063867A0033CA7A0123004F0157
:103B4400050F034B0F0063067B00334D7B012300FD
:103B5400AF01050F83420F006386720033C7720101
:103B64002300EF00050F83470F006386770033C6F9
:103B740077012300CF00050F03480F006306780088
:103B8400B340780123001F00050F03430F006306B1
:103B94007300B34C730123009F01050F034E0F0004
:103BA40063067E00B34D7E012300BF01050F6378D9
:103BB4008F0883480F0063867800B3CE7801230012
:103BC400DF01034C1F00930F1F0063067C00B34604
:103BD4007C01A300DF0003CF1F0063067F00B34412
:103BE4007F01A3809F0003C92F006306790033453A
:103BF40079012381AF0083CA3F0063867A0033CA08
:103C04007A01A3814F0103CB4F0063067B00334D40
:103C14007B012382AF0183C25F006386720033C7D6
:103C24007201A382EF0083C76F006386770033C6F7
:103C340077012383CF00138F7F00E36C8FF6930B00
:103C440001014E8403A50B00910B11047525AA856F
:103C54000325C4FF5525AA85E39679FFBA402A4473
:103C64009A440A49F659665AD65A465BB65B265CAC
:103C7400965C065DF64D4961828001000348170099
:103C84008503050795420546054A630C0816930605
:103C9400C0026305D802130B5004254C130DC00257
:103CA4009372F80D63826203930708FD13F8F70F0C
:103CB400637C0C15854F05468542850D0348170026
:103CC40093061700B1BB010003481700850D930646
:103CD40017008D420546854FE30408D4130BC00238
:103CE400630C6815130558FD9376D50F91CA0348E4
:103CF40027000545854285089306270015B3010072
:103D04000348270085089306270099420545E309DF
:103D140008D063036813930A08FD13FCFA0F254DBA
:103D2400637A8D0103483700854A8542850E9306E0
:103D34003700FDB103483700850E0D079D42854AC3
:103D44006301080CE30C68F7A547130BC002930F3B
:103D540008FD13F6FF0F63FFC70003481700854AE9
:103D64000545854F0546054985428500930617009C
:103D740045B9010003481700930617009D42054604
:103D8400854F0545854AE30D08C86307680B3687E8
:103D94007DBF0100034817009306170091420546B2
:103DA400E30008C8630AA8093687F9B103C81600F6
:103DB4000503138716008942054663040804930625
:103DC400C002E30DD8EE930408FD93F2F40F254BE3
:103DD40063705B02130DE0026304A8050348170037
:103DE400854405468542050E9306170015B9010062
:103DF40003481700050E0507914205468544E31460
:103E040008C6BA8631B901000348170093061700A3
:103E140095420546E30608C06300A803368749B502
:103E240003481700050E0507954205468544E3102F
:103E340008E6BA86F5B601003687034817009306EC
:103E44001700F9BE03C81600050313871600954230
:103E54000546E31E08E2BA86E1B6010083C81E00E7
:103E6400050513831E00154E854FE39408849A8E2E
:103E74006FF08FF87A8383481300814A8144814626
:103E840001478142814701468140014B0144014A77
:103E94008143814F0145014E930E13006FF0AFF83B
:103EA4001308C00283400F006386000133C370010E
:103EB40023006F00669FE3678FFE51B37A87930EEA
:103EC400C0020100834F07006386DF01B3C68F0180
:103ED4002300D7006697E36787FE03480F00C5BC3D
:103EE4007A870149814A0145814F014A814401464B
:103EF4008142E9B3130EF5FF8547328363F2C71598
:103F0400850541119392050122C626C493D5020169
:103F14004AC24EC00148A14F130FC0029D4E9148A2
:103F24000546977400009384243D1774000013041D
:103F3400A43B977300009383233D97720000938200
:103F4400A23979A063EEE80C9306D7FF9399060192
:103F54001359190093D709011377C900636CF60A42
:103F6400B309E40003A70900A5462149C29663F5F5
:103F7400C60983490700B3070301238037010348B7
:103F84001700A380070183492700238137010348D1
:103F94003700A3810701630419038349470023827F
:103FA400370103485700A38207018349670023832D
:103FB40037016316F90103477700A383E7008505FA
:103FC4003E993688939605012300E90193D50601AD
:103FD4009396050113F7750013D90641E314D7F737
:103FE4009359190093F7C900A5463387F200C29686
:103FF40018432149E3EFC6F7637EA8023244A24482
:1040040012498249330605418145330503014101C3
:104014006F20B025B386E400984211499546B9B79C
:104024009359190093F7C9003387F3001843A54641
:1040340021492DBF3244A244124982494101828060
:104044000148330605418145330503016F20F02102
:10405400977600009386462C131725009547B302E4
:10406400D70063ECA70203A30200B303D300828347
:1040740003A501888280010003A581878280010055
:1040840003A5C1878280010017C5FF0F0325C5144E
:104094008280010003A5C1808280014582800000E6
:1040A400B3C6A5009377F50F93F2160013D7170044
:1040B40093D81500638B0200697393031300B3C58F
:1040C4007800139605019358060133CEE800937ED9
:1040D4001E0013DF270013D81800638B0E00E97F3E
:1040E40093861F00B342D8001397020113580701A7
:1040F4003343E8019373130093D83700135F180018
:10410400638B03006976130E1600B345CF01939EAB
:10411400050113DF0E01B34F1F0193F21F0093D665
:10412400470093581F00638B020069771308170038
:1041340033C308019313030193D8030133C6D80092
:10414400137E160093DE570013D81800630B0E007D
:10415400697F930F1F00B345F8019392050113D8AB
:104164000201B346D80113F7160013D36700935E18
:10417400180011CBE9739388130033C61E01131E74
:104184000601935E0E0133CF6E00937F1F0093D51B
:10419400770013D71E00638B0F00E9721388120097
:1041A400B34707019396070113D70601137317004A
:1041B400935E1700630BB300E9739388130033C64F
:1041C4001E01131E0601935E0E01135F8500B34F9B
:1041D400DF0193F51F009352850013D31E00258140
:1041E40091C9697893061800B347D3001397070160
:1041F40013530701B343A30093F8130013DE220003
:1042040093551300638B08006976930E160033CF21
:10421400D501931F0F0193D50F0133C5C501137841
:10422400150013D7320093D81500630B0800E97604
:1042340013831600B3C768009393070193D803014F
:1042440033CEE80013761E0093DE420013D8180024
:1042540011CA697F930F1F00B345F8011395050137
:10426400135805013347D8019376170013D352002E
:10427400935E180091CAE97393881300B3C71E01B3
:10428400139E0701935E0E0133C66E00137F160062
:1042940093DF620013D31E00630B0F00E9751385CF
:1042A40015003348A3001317080113530701B3463D
:1042B400F30193F3160093D2720013561300638B29
:1042C4000300E978138E1800B347C601939E0701D3
:1042D40013D60E01137F160013551600630C5F00EE
:1042E400E975AA8F1385150033C8AF0013170801A9
:1042F400135507018280000033C6A5009377F50F9C
:1043040013170501937216001353070193D6170070
:1043140093DE1500638B0200E97393851300B3C821
:10432400BE00139E0801935E0E0133CFDE00937F1F
:104334001F0013D6270093D31E00638B0F00E9726E
:1043440013871200B3C6E3001398060193530801C0
:10435400B3C5C30093F8150013DE370093D21300DE
:10436400638B0800E97E138F1E00B3CFE20113961E
:104374000F019352060133C7C2019376170093D3FA
:10438400470093DE120091CA697893081800B3C5F8
:104394001E01139E0501935E0E0133CF7E00937FB1
:1043A4001F0013D6570013D81E00638B0F00E97249
:1043B40013871200B346E8009393060113D8030150
:1043C400B348C80013FE180093DE67009352180028
:1043D400630B0E00697F930F1F00B3C5F2011396A0
:1043E40005019352060133C7D2019373170093D684
:1043F400770093DE1200638B03006978930818003A
:10440400B3C71E01139E0701935E0E0113FF1E0026
:1044140093D31E006318DF3813578300B3C6E30039
:1044240013F816009358830093DF1300135393007B
:10443400630B0800697E930E1E00B3C7DF01139F50
:104444000701935F0F01B3C56F0093F2150013D6F4
:10445400280013D31F00638B0200E9731387130032
:10446400B346E3001398060113530801334EC30007
:10447400937E1E0013DF380093531300638B0E00EA
:10448400E97F93851F00B3C7B3009392070193D3C9
:10449400020133C6E3019376160013D7480013DFF5
:1044A400130091CA697813031800334E6F00931EEA
:1044B4000E0113DF0E01B34FEF0093F51F0093D2EB
:1044C400580013581F0091C9E97313861300B347AA
:1044D400C8009396070113D8060133475800137395
:1044E400170013DE680093521800630B0300E97E83
:1044F400138F1E00B3CFE20193950F0193D20501F0
:10450400B3C3C20113F6130093D8780013D3120077
:1045140011CAE97613881600B347030113970701FC
:1045240013530701137E13009353130063121E27C2
:104534009358050133C6130113F8F80F9377160047
:1045440041819356180013DF130091CB6973130E46
:1045540013003347CF01931E070113DF0E01B34F3E
:10456400DF0093F51F009352280013531F0091C9D5
:10457400E97393881300334613019317060113D389
:104584000701B346530013FE1600935E380093529E
:104594001300630B0E00697F930F1F0033C7F201F2
:1045A4009315070193D20501B3C3D20193F8130005
:1045B4001356480093DE1200638B0800E9771383D7
:1045C4001700B3C66E00139E0601935E0E0133CF2F
:1045D400CE00937F1F009355580093D71E00638B22
:1045E4000F00E9729383120033C777009318070111
:1045F40093D7080133C6B70013731600135E68001F
:1046040093D51700630B0300E976938E160033CF1E
:10461400D501931F0F0193D50F01B3C2C50193F3C5
:1046240012001358780013D31500638B0300E97844
:10463400938718003347F300131607011353060139
:10464400137E130093551300631A0E1393528500BF
:10465400B3C3B20013F813009358850013DE15009A
:104664002581630B0800697713061700B347CE0052
:1046740013930701135E0301B346AE0093FE1600C5
:1046840013DF280013581E00638B0E00E97F938507
:104694001F00B342B8009393020113D803013345BA
:1046A400E8011377150013D63800935E180011CB78
:1046B4006973130E1300B3C7CE019396070193DEFB
:1046C4000601334FD601937F1F0093D5480013D7BB
:1046D4001E00638B0F00E972938312003348770046
:1046E400131508011357050133C6E50013731600AB
:1046F40013DE5800935F1700630B0300E976938E73
:104704001600B3C7DF01139F0701935F0F01B3C501
:10471400CF0193F2150093D3680013D31F00638B6A
:1047240002006978130518003347A3001316070124
:104734001353060133CE630093761E0093D878009A
:104744009355130091CAE97E138F1E00B3C7E50188
:10475400939F070193D50F0193F2150013D515000C
:10476400638C12016978AA831305180033C7A30068
:10477400131607011355060182800100E976938E12
:10478400160033CFD501931F0F0193D50F017DBDC3
:10479400697F930F1F00B3C5F3019392050193D36F
:1047A400020179B3E97F93851F0033C6B3009312E6
:1047B400060193D302018DB100000000B3C6A50029
:1047C4009377F50F93F2160042051353050113D79F
:1047D400170013DE1500638B0200E9739385130041
:1047E4003346BE009318060113DE0801B34EEE00F3
:1047F40013FF1E0093DF270013581E00630B0F00E6
:10480400E9769382160033455800131705011358AF
:104814000701B343F80113F6130093D83700935FED
:10482400180011CA697E930E1E00B3C5DF01139FE1
:104834000501935F0F01B3C61F0193F2160013D550
:10484400470093D81F00638B020069771308170091
:10485400B3C30801139603019358060133CEA8008D
:10486400937E1E0013DF570013D51800638B0E00D0
:10487400E97F93861F00B345D5009392050113D5B4
:1048840002013347E5011378170093D36700135FE0
:104894001500630B0800E978138E18003346CF0126
:1048A400931E060113DF0E01B34F7F0093F61F0022
:1048B40093D5770013581F0091CAE972138512002B
:1048C400B347A800139707011358070193731800FF
:1048D400135F18006398B312935F8300B3C6EF01AC
:1048E40093F516009352830093531F0013539300C0
:1048F40091C9697513071500B3C7E300139807013D
:1049040093530801B3C8630013FE180093DE22001A
:1049140093D51300630B0E006976130F1600B3CF03
:10492400E50193960F0193D5060133C3BE001375B9
:10493400130013D7320013DE150011C969789303ED
:104944001800B3477E009398070113DE0801B34EA5
:10495400EE0013F61E0013DF420013551E0011CAA9
:10496400E97F93861F00B345D500139305011355C2
:1049740003013347E5011378170093D35200135F03
:104984001500630B0800E978138E1800B347CF01B4
:10499400939E070113DF0E0133467F00937F1600B9
:1049A40093D6620013581F00638B0F00E9751383BD
:1049B4001500334568001317050113580701B34365
:1049C400D80093F8130093D2720013561800638B27
:1049D4000800697E930E1E00B347D601139F07019A
:1049E40013560F01937F160013551600638B5F0057
:1049F400E975138315003345650013170501135535
:104A040007018280E978138E18003346CF01931E84
:104A1400060113DF0E01C9B5014582800000411172
:104A240022C406C626C24AC0B70720002A842E859F
:104A340063EBF5009377F47F99C78567137404805B
:104A4400938707805D8CEF10702597B7FF0F9387CE
:104A5400277A9043D443EF1040412A892285AE84BB
:104A6400EF10D0234A86A6868D2EEF10104BB2404D
:104A740022449244024941018280AA88AE87328846
:104A84003685468363960620977600009386C69102
:104A940063FFC50A41676375E60A1307F00F3337EE
:104AA400C7000E073355E600AA9683C60600130511
:104AB40000023697B306E540630BE500B395D700D3
:104AC40033D7E8003318D600D98D3393D8009358E0
:104AD4000801B3D615031316080141829357030145
:104AE40033F715033685B305D6024207D98F63FC25
:104AF400B700C2971385F6FF63E7070163F5B700B4
:104B04001385E6FFC2978D8F33F7170342031353C0
:104B14000301B3D71703420733636700B306F602F2
:104B24003E86637BD30042931386F7FF63660301DB
:104B34006374D3001386E7FF4205518D81455DA858
:104B4400370500014147E36FA6F46147A1BF01E6C1
:104B540005473358C7024167637FE8081307F00F1E
:104B64006373070121453357A800BA9603C70600AB
:104B7400130600022A97B306E6406315E608B387D6
:104B840007418545935808011316080141821357BC
:104B94000301B3F61703B3D71703C206558F330EB9
:104BA400F6023E85637CC70142971385F7FF63676E
:104BB40007016375C7011385E7FF42973307C741B0
:104BC400B377170342031353030133571703C20781
:104BD40033E36700B306E6023A86637BD30042936D
:104BE4001306F7FF636603016374D3001306E7FF3C
:104BF4004205518D8280370700014145E365E8F69F
:104C0400614595B73318D80033D5E7003393D800FE
:104C1400B397D70033D7E800935808013366F700F9
:104C24003377150393170801C18393550601335550
:104C3400150342074D8FB386A702AA85637CD7006C
:104C440042979305F5FF636707016375D7009305E2
:104C5400E5FF4297B306D74033F716034206418275
:104C6400B3D6160342073385D702B367C700368726
:104C740063FCA700C2971387F6FF63E7070163F598
:104C8400A7001387E6FFC297C205898FD98DDDBDC2
:104C940063E2D514416763FFE6021307F00FB335EF
:104CA400D7008E0533D5B600176700001307C76F0A
:104CB4002A9703470700130500022E97B305E54022
:104CC4006311E5020545E3E7F6F233B5C800134581
:104CD40015000DB737070001C145E3E5E6FCE145E2
:104CE400D1B73358E600B396B6003368D80033D34F
:104CF400E700935E0801B376D303B397B70033D7C5
:104D0400E800331EB6003366F70093170801C18329
:104D1400135706013353D303C206558F338F6702EB
:104D24001A85637CE70142971305F3FF6367070164
:104D34006375E7011305E3FF42973307E741B37651
:104D4400D7033357D703C2063383E7029317060109
:104D5400C183D58F3A8663FC6700C2971306F7FFB9
:104D640063E7070163F567001306E7FFC29742058F
:104D7400C16E518D9386FEFF13560E011358050123
:104D8400B38767403373D500B376DE00330ED302A6
:104D9400B306D80213570E013303C30236931A978E
:104DA4003308C8026373D700769893560701369880
:104DB40063E00703E39407D9C167FD177D8F4207BA
:104DC400337EFE00B398B80072978145E3F4E8E2BD
:104DD4007D15ADB38145014531BD011106CE22CC0F
:104DE40026CA4AC84EC652C4F3292000B708100088
:104DF400FD1833F7B80013D4450193D4F50193D5C6
:104E0400460193173700B3F8D8001357D50113742C
:104E1400F47F93F5F57F5D8F13D3F6019317350077
:104E24009356D6018E083305B44013183600B3E602
:104E340016012A86639164346359A010B9E133E5FD
:104E4400060111E59306F07F631CD62A39A81305E1
:104E5400F6FF01E93E98BA96B337F800BE960546C8
:104E640059A09308F07F63111605B366F700638CAD
:104E7400066EB7064000F98E014463920620C145D0
:104E8400FDAA1306F07F631EC400B366F700638FA8
:104E9400066CB7064000F98E638506121306F07F90
:104EA40085A437068000D18E13068003634AA608C2
:104EB4007D466340A60613060002098EB358A80077
:104EC400B395C6003318C800B3E5150133380001A3
:104ED40033E8050133D5A6003E983A95B337F80078
:104EE400B306F5002286B7078000F58FB5CB05061B
:104EF4009307F07F6301F626370780FF7D179357EA
:104F04001800758F1378180033E807019317F70119
:104F1400EDA2930505FE93080002B3D5B600014641
:104F240063081501130600043305A6403396A60052
:104F3400336806013338000133E80501014569BFD0
:104F440033E8060133380001D5BF7DC93386854077
:104F540021E83365F70011E99307F07F6306F60251
:104F64003687C2876301064061AA9308F6FF6399F6
:104F74000800C29733B80701BA96C2963E88C5B5F1
:104F84001305F07F6315A604B3E706016383075E88
:104F9400B7074000F58F3687639F075CC287C5B5A6
:104FA4001305F07F6391A502B3E706016380075AF6
:104FB400B7074000F58F3687639F0758C2871306EB
:104FC400F07F01446DBD37058000498FB288130618
:104FD4008003634316077D46634B160313050002E3
:104FE400330515413316A70033D31701B397A70030
:104FF40033666600B337F000D18F33571701C29779
:105004003697B3B60701BA963E882E86E9BD138655
:1050140008FE130300023356C70001456388680085
:1050240013050004330515413315A700C98FB337A1
:10503400F000D18F0147E1B7D98FB337F000DDBF5E
:10504400130614001375E67F41ED3365F70021E480
:105054006301054C33E60601630706303E98B33717
:10506400F80036973E97B7078000F98F6384074AA4
:10507400B70780FFFD177D8F8145C287054693F6EC
:105084007700C5E6630D045693F61500638906564A
:1050940093E52500ADA31306F07F631DC402630FDF
:1050A400055C37064000798E133616001206639DA0
:1050B4008552B28533E6060111C637064000758E67
:1050C40011E2C145631305523687C28701441306B2
:1050D400F07F75B76394C5008145E9BF8145DDB7AD
:1050E4009305F07F6300B6023E98B337F800369715
:1050F4003E979317F70113581800B3E70701058388
:1051040001449DA9638609008D476396F90081E8EF
:105114001306F07F81A889476393F900F5F80144E9
:105124007D57FD571306E07F9545894693E51500A5
:105134006385D9488D46638ED9466391094893F6B1
:10514400F7001145638CA64693864700B3B7F60073
:105154003E97B687A5A1638709008D476398F90038
:10516400639D043E01478147954551A9894763964C
:10517400F93EEDF86DB76356A00CC9E133E50601BD
:10518400E30205CC1305F6FF11E933880741B306A2
:10519400D740B3B707019D8E0546A9A09308F07FB9
:1051A400E30516CD130680036348A6087D46634FC6
:1051B400A60413060002098EB395C600B358A800CE
:1051C4003318C800B3E515013338000133E805018D
:1051D400B3D6A60033880741B306D740B3B7070157
:1051E4009D8E228637098000B3F72601E38A07D60D
:1051F4007D1933F92601428A3284B5A41306F07F5F
:10520400E305C4C837068000D18E69BF930505FE47
:1052140093080002B3D5B6000146630715011306CF
:105224000004098E3396C600336806013338000142
:1052340033E80501814679BF33E8060133380001BC
:10524400D5BF75CD3386854039E43365F70009E56C
:105254009307F07F9A8419B39308F6FF639C0800C0
:10526400B307F8403338F800998EB38606419A8420
:105274003E881DB71305F07F6316A604B3E7060145
:10528400638E072EB7074000F58F3687639B072E82
:10529400C2879A84EDB61305F07F6391A502B3E744
:1052A40006016383072EB7074000F58F36876391A5
:1052B400072EC2871306F07F9A8421B33705800036
:1052C400498FB28813068003634716077D46634FF0
:1052D400160313050002330515413316A70033DE08
:1052E4001701B397A7003366C601B337F000D18F17
:1052F40033571701B307F8403387E640B336F80055
:10530400B306D7403E882E869A84E9BD138608FEEC
:10531400130E00023356C70001456388C801130504
:105324000004330515413315A700C98FB337F000C6
:10533400D18F0147C1B7D98FB337F000DDBF130652
:1053440014001376E67F7DEAB368F70033E50601BF
:105354005DE0639208066311051C9384E9FF93B42E
:10536400140001478147B3E6E7006380062493D61F
:10537400F7011314170036949396170013F676006A
:10538400814505C609466389C91A0D46638CC91847
:105394008545639C090013F6F60011456307A600D2
:1053A40093B6C6FF93C61600369461801344140066
:1053B40005880146E9B145D9B385074133B5B7003E
:1053C4003306D740098E37058000718D19C9B3079C
:1053D400F8403387E6403338F800330707419A84AE
:1053E40059B7B3E7C500639C07129384E9FF93B4EC
:1053F400140001478DBF1306F07F631EC40063874A
:10540400082637064000798E133616001206639379
:105414008526B28521A06391C502814511C5370651
:105424004000758E11E2C145639708246307051691
:105434003687C2879A8459B98145FDB7338A0741B3
:1054440033B647013309D7403309C94037068000D2
:105454003376C9002DC6330AF840998E3338480193
:10546400338906419A84630009064A85EF10205265
:10547400130685FFFD4763CEC70493060002918E91
:105484003317C900B356DA00D98E3318CA00634BF8
:105494008606018E13071600FD4763C2E704130650
:1054A4000002198EB397C6003355E8003316C800BE
:1054B400C98F3336C000D18F33D7E6006DB5B367DB
:1054C4002A01D5F31DB75285EF10604C1305050270
:1054D40045B7930685FDB316DA0001484DBF05169E
:1054E4009305000233D6C60081476307B7009307CC
:1054F4000004998FB397F600B367F800B337F00050
:10550400D18FC5BDB70780FFFD173306C440FD8E9C
:1055140081BC3687C28781BD3687C287C9B53287C9
:10552400AE8791B5A685E39204E893B686FF93C649
:1055340016003694854595BD8545E38804E693B603
:1055440086FF93C616003694A68585B501471306D3
:10555400F07F81456DA0C28791B27D57FD57130638
:10556400E07F0144D1B60147814751A801478147F3
:10557400F9BF0147F9BFC287814511B601479A8433
:10558400C9BFC2879A84CDBF01471306F07FC5BF48
:10559400C2871306F07F9A84A5B6814781443707F2
:1055A40040001306F07FC14599A801478147014691
:1055B4004DB789E49386870051BEEDFCE31A04AC31
:1055C4003DA88147638E09000D476397E90089C8A8
:1055D400FD571306E07F29A00947E39BE9FEEDD8B8
:1055E40093E555003E870DA8B285B3E60601E38F27
:1055F40006AC81443707400081471306F07FB706A5
:105604008000F98E91CA05069306F07FE30BD6FA63
:10561400B70680FFFD16758F13D537009306F07F0C
:105624009317D701C98F0D836319D600D98F01470A
:1056340089C73707080081478144B706F07F5206BF
:105644003207758E3183518FFE04B36697003E870F
:10565400B68799C173A01500F2406244D24442490E
:10566400B249224A3A85BE8505618280E38785DA9C
:1056740081456DBBB285E30B05A4A5BFE38E85A46C
:10568400814599B4797122D456CA66C206D626D207
:105694004AD04ECE52CC5AC85EC662C42A84B28C5A
:1056A400B68A7329200013DB4501939BC500137B45
:1056B400FB7F93DBCB0013DAF50163060B02930740
:1056C400F07F630BFB061357D5018E0BB36B770189
:1056D400B7078000B3EBFB0093193500130B1BC015
:1056E400014C8144BDA0B3E7AB00E9C7638B0B0257
:1056F4005E85EF10C029130755FFF14763C8E70221
:10570400F546930985FF998EB39B3B01B356D400AC
:10571400B3EB7601B31934019305D0C0338BA540A4
:10572400C1B7EF10C02613050502F1B7930B85FD31
:10573400B31B74018149CDB733E4AB0049C0B7074B
:105744000800B3F7FB00AA89130BF07F0D4CC1448A
:10575400C9FB1395CA001354C50013D54A019375A8
:10576400F57FE68793DAFA01ADC11307F07F63880A
:10577400E50A93D7DC01131534005D8D37048000EE
:10578400498C93973C00138515C0014793162C0050
:10579400D98EB305AB40FD16394533465A016369CA
:1057A400D50A176500001305A5B88A06AA9694427F
:1057B400AA968286814B8149014B054C1DB7814BCA
:1057C4008149130BF07F094C29BFB3679401A5C726
:1057D4001DC82285EF10A01BAA85938655FFF147AB
:1057E40063C9D7027547938785FF158F3315F40076
:1057F40033D7EC003364A700B397FC001307D0C081
:105804003305B74059B76685EF1060189305050254
:10581400E9B7138585FD3394AC008147C5B733667A
:10582400940119CE37070800618F1305F07F19EF33
:105834000D47C144A1BF0144814701450547B9B79C
:10584400014481471305F07F094789B70D473DBFE0
:105854006366740163948B2663E2F9261395FB0156
:1058640013D719009396F90193DB1B00B369E50084
:105874001315840013D887013368A800418133DEEF
:10588400AB02131F0801135F0F019398870093D78E
:105894000901B3FBAB0272833307CF03C20BB3E737
:1058A400770163FCE700C2971303FEFF63E7070178
:1058B40063F5E7001303EEFFC297998FB3DEA702E7
:1058C400139709014183B3F7A702F689330EDF0367
:1058D400C2075D8F637CC70142979389FEFF6367AC
:1058E40007016375C7019389EEFF42974203B369C9
:1058F40033014163930EF3FF93D2090193DF08014F
:105904003307C74133FED901B3FED801B307DE0321
:105914003384D203338ECF03B3038E0013DE070127
:105924001E9EB382F20363738E009A92C163135373
:105934000E01FD139A9233737E004203B3F777008E
:105944003E93636757004E84631E570263FC6602EE
:10595400C696B3B71601C2973E971384F9FF6366E0
:10596400E8006311E80263EF160163665700639B66
:10597400E20063F96600C696B3B71601C2971384B2
:10598400E9FF3E973383664033075740B3B666005A
:10599400158FFD576307E80EB352A702935703010F
:1059A4003377A7029686330E5F0242075D8F637CCE
:1059B400C70142979386F2FF636707016375C701C6
:1059C4009386E2FF42973307C741335EA7029317DA
:1059D4000301C1833377A702330FCF0342075D8FDF
:1059E400F287637CE70142979307FEFF6367070131
:1059F4006375E7019307EEFF4297C206DD8E939726
:105A04000601C18313D30601338E6F023307E741C6
:105A1400B38FFF02338FFE02B30ED30393570F01EC
:105A2400F69FFE9763F4D70141652A9E13D30701BD
:105A34007293416E7D1E33F5C7014205337FCF015A
:105A44007A95636667006312672CB6871DC942970F
:105A54009387F6FF63610703636667006316672A2B
:105A640063FDA8009387E6FF93961800B3B8160168
:105A740046984297B688631467006384A80093E746
:105A840017001388F53F6358001113F7770025CFEB
:105A9400094793E414006307E9060D476300E90628
:105AA4006313090613F7F7009146630ED7041387AF
:105AB4004700B337F7003E94BA87B1A0FD1581467D
:105AC40045BB52865E84CE8762878D466307D722A4
