:0200000480007A
:100000007370043073504030971100109381819CBD
:1000100017010110130101FF970200009382824330
:100020007390523073F05130996273A002307310A4
:100030003000170500001305E508970500009385BB
:1000400065086300B50217A60000130626B763FA19
:10005000C5008322050023A0550011059105E3EAA0
:10006000C5FE17A50000130565B59705001093851B
:1000700065F91386419F63FAC5008322050023A01A
:10008000550011059105E3EAC5FE1385419F93854F
:1000900001C36377B500232005001105E36DB5FEAC
:1000A000F12B1745000013056549EF408047EF40ED
:1000B000004C592D014581452120EF00B01A01A0C7
:1000C0007971294506D622D426D24AD04ECE56CAB8
:1000D00022E652CC5AC8EF40107117950000130564
:1000E000E5F0EF500001179600001306E6F2979531
:1000F0000000938565F317950000130565F3EF4045
:10010000906A17950000130525F5EF40907E9384C3
:1001100041A0854505459707001007A4A71305448E
:1001200023A00400EF00B01B537504D0979A000081
:10013000938A4AF3EF40400D8860AA892E89EF40E8
:10014000A00C2A86CA87AE864E875685EF40B065DA
:100150009C60D317F4A0F1E32D4B09491544CA85DF
:10016000228523A00400EF009017537504D0EF40C0
:10017000A00988602A8AAE89EF4000092A86AE86E7
:100180005287CE875685EF4010629C60131724007B
:1001900093051900D312F4A0639102083A942285C2
:1001A00023A00400EF00B013537504D0EF40C00546
:1001B00088602A8AAE89EF4020052A86AE8652875B
:1001C000CE875685EF40305E9C609305290013135F
:1001D0002400D313F4A00D09639103041A9422851B
:1001E00023A00400EF00B00F537504D0EF40C0010E
:1001F00088602A8AAE89EF4020012A86AE8652871F
:10020000CE875685EF40305A9C6013152400D315D5
:10021000F4A081E52A94E31469F5530700F0D310A4
:10022000F7A0638B00002946B306C40253F006D042
:10023000D370F018539400C0634380000544A28536
:10024000179500001305C5E4EF40F05597950000A1
:10025000938585DD17950000130545E5EF40B05403
:100260002945EF40505817950000130565E7EF400A
:1002700050688145228523A00400EF0050061795A1
:1002800000001305E5EAEF4010528860530100F0CA
:10029000530400F05318A1A0630C0800D37104D0DC
:1002A0009707001007A287FFD3F2411053F4A2185A
:1002B000938A81A027A08A00EF301075530584200F
:1002C0002A8B2E89EF3050742A86CA87AE865A87C9
:1002D00017950000130505E7EF40F04C1795000057
:1002E000130545E7EF40304C8860EF30F071970818
:1002F000001083A868EE53F318D087A30A0097076D
:10030000001007A5E7F9AA84D3F563182E8A53F5E0
:10031000A510EF30706F2A86D287AE862687179594
:100320000000130525E2EF401048D30600F007A6B1
:1003300001A0532ED6A0631E0E00B2502254925438
:100340000259F249624AD24A424B32640145456140
:10035000828017950000130525E1EF40D044F1BFDE
:10036000A54723A6F1A07D55828073005010F5BFEC
:100370007D15854763E7A700096323A26500014552
:100380008280A54223A651A07D55828005458280AA
:1003900005458280D94723A6F1A07D55828001457D
:1003A000828019C17D55828041113735011022C4E8
:1003B00006C62E84BD2A2300A400B240224405456F
:1003C00041018280170700101307C7E01C43938682
:1003D00001C33E95636BD50097F200109382824271
:1003E00063E5A20008C33E858280FD573E8582807A
:1003F000011122CC4EC606CE26CA4AC82E84B28926
:10040000EF40105139C133093401A944638C09000C
:100410008345040037350110638E95000504FD28DF
:10042000E31824FF4E85F2406244D2444249B24967
:1004300005618280B545DD20834504003735011014
:100440000504E928E31689FCF1BF7D55E9BF0000EA
:100450005D7106C012C216C41AC61EC82ACA2ECCA6
:1004600032CE36D03AD23ED442DC46DEF2C0F6C2BC
:10047000FAC4FEC6F322103416D6F322203416D85E
:10048000F322003016DA732520348A850924B2520B
:1004900073901234C25273902234D252739002304D
:1004A00082401242A2423243C2435245E245724662
:1004B00082561257A2576258F258064E964E264F51
:1004C000B64F616173002030AA8711C5584D0145B0
:1004D000D98DCCCF82807D558280AA8715CD170714
:1004E0000010032767CFB355B702930200082326F5
:1004F00055001308600C8D4801451383F5FF935395
:10050000830013F6F30FD0C39376F30F94C323A4A1
:10051000070123A6170182807D55828009C95C49A5
:1005200093F20702E38D02FE0CC1014582807D55E6
:10053000828011C95C4993F21700E38D02FE0841E5
:100540001375F50F82801305F00F8280B7C7000284
:1005500083A687FF83A7C7FF411106C622C426C210
:1005600037C60002B680032786FF8327C6FFF3271E
:1005700000B0E38AE0FEB7C2000283A582FF03A6B3
:10058000C2FFF32600B0E30AB7FE83A682FF83A76B
:10059000C2FF37C30002B683032883FF8327C3FF4C
:1005A000F32400B0E38A03FF37C500029308300646
:1005B000032485FF8326C5FF33040441732E00B056
:1005C000E3F888FEB3049E40B3FE8402228681468F
:1005D0001395FE0093D51E01EF20102433DF840213
:1005E000B240224492444101931FFF007E958280D5
:1005F000411122C42A84179500001305A58E06C652
:10060000EF40302FA285179500001305E58EEF40CF
:100610009019F3251034179500001305E58EEF406F
:100620009018F3253034179500001305E58EEF4040
:10063000901701A0411122C42A84179500001305C8
:10064000A58E06C6EF40F02AA28517950000130577
:10065000A58AEF405015F3251034179500001305B7
:10066000A58AEF405014F32530342244B240179548
:1006700000001305658A41016F40F012B7B7C4044A
:100680009382074017070010232857B48280411136
:1006900006C69317450122C493D04701634205045F
:1006A00029462A87AE86637E1600170300001303CF
:1006B00063F4B6853A850293B24022440145410174
:1006C000828093922000938341A4338453000323B8
:1006D0000400E31003FEB240224401454101828040
:1006E0002D48638D000193982000138EC1A1B30E95
:1006F0001E0103A30E00E31003FC7DBF732F40F126
:10070000B707200C931FCF009380470033871F004B
:100710000043C146E3E286FA13162400138301A7BF
:10072000B302C30083A30200638303008293732593
:1007300040F13708200C9315C50093084800338E0C
:10074000150123208E008DBF411106C622C4FD3B3A
:10075000AA8717040010130424A8B705030037253F
:1007600001101CC09533F1659385052037350110C4
:10077000AD33178600001306667C978500009385CD
:10078000A57C178500001305E57CEF40D001978517
:1007900000009385A57E178500001305657EEF4058
:1007A00090000C40178500001305C57EEF40A07F28
:1007B00097020000938242E8138701A71706000002
:1007C000130646E3938641A41383C1A190C2D0C20D
:1007D00090C6D0C690CAD0CA90CED0CE90D2D0D239
:1007E00090D6232057002322570023245700232686
:1007F000570023285700232A5700232C5700232E65
:10080000570023205702232257022324570223266E
:10081000570223285702232A5702232C5702232E3C
:10082000570223205704232053002322530023245C
:1008300053002326530023285300232A5300232C3C
:100840005300232E53002320530223225302F32369
:1008500040F13728000C13957300B308050103AE6F
:100860000800B70E000C137FEEFF23A0E80123A0C1
:100870000E00F32F40F193977F00338407010C4063
:1008800093F2D5FF2320540023A20E00732740F1DA
:1008900013167700B306060103A306009373B3FF94
:1008A00023A0760023A40E00732540F19318750051
:1008B000338E0801032F0E00937F7FFF2320FE015C
:1008C00023A60E00F32740F113947700B30504012B
:1008D00083A2050013F7F2FE98C123A80E00732629
:1008E00040F193167600338306018323030013F54A
:1008F000F3FD2320A30023AA0E00F32840F1139E4A
:100900007800330F0E01832F0F0093F7FFFB232096
:10091000FF0023AC0E00732440F193157400B382E2
:10092000050103A702001376F7F723A0C20023AE48
:100930000E00F32640F113937600B303030103A5E1
:1009400003009378F5EF23A0130123A00E02732E6A
:1009500040F1131F7E00B30F0F0183A70F0013F4A4
:10096000F7DF23A08F0023A20E02F32540F193921C
:1009700075003387020110439376F6BF14C323A496
:100980000E02732340F193137300B388030103AE87
:1009900008007D7F1305FF7FB37FAE0023A0F80121
:1009A00023A60E02F32740F113947700B30204014B
:1009B00083A502001307FFFF33F6E50023A0C20062
:1009C00023A80E02F32640F113937600B30303012C
:1009D00083A80300797E130FFEFF33F5E80123A0FF
:1009E000A30023AA0E02F32F40F193977F003384D4
:1009F000070183220400F1751387F5FF33F6E20047
:100A000010C023AC0E02F32640F113937600B3031B
:100A1000030183A80300617E130FFEFF33F5E80195
:100A200023A0A30023AE0E02F32F40F193977F0083
:100A30003E9803240800C1729385F2FF3377B40017
:100A40002320E80023A00E04F32E40F1B706200C6B
:100A5000B24022441396CE003303D6002320030075
:100A600041018280828082808280B7C7000203A514
:100A700087FF83A5C7FF411106C6EF20205497F7D3
:100A8000FF0F87A7A77B5375F5109382C19FB240D4
:100A900027A0A20007A0020027AC019E410182808E
:100AA000B7C7000203A587FF83A5C7FF411106C68C
:100AB000EF20C05097F7FF0F87A747785375F510C1
:100AC0009382C19FB24027A0A20007A0020007A7FF
:100AD000819FD370E00827AA119E4101828059713D
:100AE000CAD0D2CCDAC822FE26FC4AFA52F656F414
:100AF00086D6A2D4A6D2CECED6CADEC6E2C4E6C27E
:100B0000EAC04EF85AF25EF062EE66EC138A01A07B
:100B10002A892E8B23200A00893F97F7FF0F07A40D
:100B2000277297F7FF0F07A9E771D30A8420D30430
:100B30008420530A292163522013014797F7FF0F9E
:100B400087A687708D66938706EE53F59A00D3F4D7
:100B5000840053F08A00F117D370850853F75409C5
:100B600053F14001D371D11053723700D37230006A
:100B7000D37734085373D210D3F3620853F4670069
:100B800053F8D31053760401D3756800D378D61088
:100B9000D3F91509537A1301D37A180153FB39009D
:100BA000D37B0A09537CDB10D3FC8B0153FE8A01F3
:100BB000D3FE880953FFDC10D37FEE0953F5EE0115
:100BC00053F0DF10D3740500D370E00153F1D4105B
:100BD000D3F1200853772F0053722000D3F2810104
:100BE000D377070853F3D210D3F36700537462002E
:100BF00053786108D3F5D3105376B408D378B8008E
:100C0000D379D61053FA3801D3FAB900537BDA10EE
:100C1000D3FB6A0953FC6501D3FC690153FE6B00E9
:100C2000D37E3C09537ADE1053FF4E01D3FF4C01B3
:100C300053754B09D374DF1053F09F08D3709500A0
:100C4000D37AD01053F150015374D110E39F07EEC3
:100C50000507D376D908E31827EF9935938B419F81
:100C600087A10B0097F7FF0F07A7875F938941A024
:100C700053F2E11087220A0087A709009784000039
:100C80009384844F53F3820027A04B0007AB0B00E3
:100C900003D3040083D82400D3F3670103D84400AE
:100CA00003D5640083D5840003D6A40083D2C40096
:100CB00083D3E40003DC0401138441AB938A81B540
:100CC00027206A0027A26A0123196400231A14014D
:100CD000231B0401231CA400231DB400231EC400F5
:100CE000231F5400231074022311840327A07900CA
:100CF000854CD37909D063019B4D63120B0607A580
:100D000001B8EF3060502A86AE86178500001305C3
:100D1000E529938561ACEF400029530800F0531D8D
:100D200068A163140D006F00F05E97F7FF0F87A5B1
:100D3000675353F6B91053756619EF30E04CAA8C1F
:100D40002E8C07A54A00EF30204C2A87AE87668696
:100D5000E2861785000013056526EF40C024313375
:100D600063512019014E97F7FF0F87A6E74D97F7BC
:100D7000FF0F87A8674F93008057D3FB9A00D3F4E7
:100D8000840053FC8A00FD10D3FC8B08D3FA54096D
:100D900053FA4C01437EDAA8C37EDAC04B74DA40C2
:100DA000537FDE10D3FFEE0953708F004375DAF0E6
:100DB000CBF0DFF043F1DF00C3F1DF5053721111CC
:100DC000D3F241085377120043F3DF20CBF7D22050
:100DD00043FBD270C3F3D2305378DB10D3F5030951
:100DE0005376F800C3FBD280CBF4D58043FCD560AA
:100DF000C3FCD5B8D37A1C1153FA5C0953FE5401D5
:100E000043F4D5A8CB7EDAA8437FDAE0C37FDA408B
:100E10005370DF10D3F00F085371D0014375DA001F
:100E2000CBF1D00043F2D010C3F2D0505373121163
:100E300053FB620853773300C3F3D030CB77DB30FA
:100E40004378DB70C375DB385376D810D3FBC50805
:100E5000D3F4C700437CDB60CBFCDB60C3FADB4828
:100E600043FADBC053FE1A115374CA09D3FECC01F6
:100E700043FFDBE0CBFF86E043F086E8C3F086F07B
:100E800053F10610D3F1200853F22F0043F58610DA
:100E9000CBF2361043F3362043FB3650D373131195
:100EA000D3777B0853F8720043F7363853FAD710DC
:100EB000D37548015376EA00D3FB4309D3F4D51028
:100EC000537C9608D3FC9B00D37ADC1053FE5C0164
:100ED00053741E11E39300EA050ED376D908E31C80
:100EE000C9E97D3E87280A0007AB0B0087AE0900E1
:100EF00053FF880083AE4401D3FF6E0103AF84012A
:100F000083AFC401945083D744022720EA0127A469
:100F10006A012322D4032324E4032326F40314D8F0
:100F2000231AF40227A0F9010547E30FEB2663100B
:100F30000B0607A541B8EF30202D2A86AE8617850F
:100F400000001305A506938581ADEF40C005530051
:100F500000F0531360A1E30B033A97F7FF0F87A04C
:100F6000E73053F1191053756119EF30E0292A8DDC
:100F7000AE8C07A58A00EF3020292A87AE876A86C3
:100F8000E6861785000013056503EF40C001F13CBC
:100F9000E3522023313607270A0007AA0B0087A552
:100FA00009005376270103D3C408D3FB450183DC32
:100FB000E40883D2040983D8240903D8440903D55B
:100FC000640983D5840903D6A40983D3C4092720DF
:100FD000CA0027A64A01231B6402231C9403231D75
:100FE0005402231E1403231F04032310A4042311FB
:100FF000B4042312C4042313740427A07901054CFC
:1010000063078B1B63130B0A138CC1B70725CC0036
:10101000D30A00F0EF30401FAE862A869385A1AE3A
:1010200017850000130585F8EF30F077D3964AA1B5
:10103000E38F062A97F7FF0F07AE872353F4C911F2
:1010400053754419EF30401C2A8DAE8C07A5CA0099
:10105000EF30801B2A87AE876A86E68617850000F8
:10106000130545F7EF3030740934634320050D3C18
:1010700087A6090007AB0B0003A3840283A2C40266
:10108000D3F8660183A80403D85883D7840327A81C
:101090006A0123246404232654042328140578C8F1
:1010A000231CF40427A0190165A0C132E35E2027A8
:1010B000530A00F0014597F7FF0F87AEA71B956015
:1010C00013888020537FDA016118D37FDF0153F04A
:1010D000DF01D370D00153F1D001D371D10153F2AC
:1010E000D101537AD201E31F08FC0505E31AA9FCDC
:1010F000453A97F7FF0F07A52718D372AA1007AB39
:101100000B0007230A0087A309008C54D3F7321978
:1011100053F86301D05483A3040303AE440383DE76
:10112000840327A86A012CC470C423287404232ACA
:10113000C405231CD40527A00901054F5377F300EC
:101140002720EA00630DEB07E31E0B12138CC1B7D7
:1011500007250C01EF30400B2A86AE86178500006C
:101160001305C5E49385C1AFEF30F063D30700F0FA
:10117000D39F67A1E3810F1897F7FF0F87A507108B
:1011800053F6B91053756619EF3000082A8D2E8C6E
:1011900007A50A01EF3040072A87AE876A86E286F4
:1011A00017850000130505E3EF30F05F29A827A499
:1011B00021B9EFF09F8BEDBD27A081B84DB6138DFF
:1011C000C1B72728FD00EFF05F8AE351201B97F796
:1011D000FF0F07AB6707D30B2921D30A6B2197F7C2
:1011E000FF0F07A5A706014C856C53F47A11D3F4C1
:1011F000AA10138DECC7530584207D1DEF00705A93
:10120000530AA52053058420EF00D052D30BA5200C
:1012100053F58400EF001052D30EA52053759408A7
:10122000538CDE21EF001051537F7A11D37FAC0035
:101230005370EF01D3F02F0953751018EF00D03021
:10124000D30CA5205385942053F49A11EF007055C8
:10125000530AA52053859420EF00D04DD30BA52031
:1012600053759400EF00104D5301A5205375940859
:10127000D3042120EF00104C53F2A400D3717A1153
:1012800053752209D3F2310053F5A218EF00D02B89
:10129000D3F4AA10E3110DF6050CD37A5909630DA6
:1012A000890953859420EF00D04F530AA520538518
:1012B0009420EF003048530CA52053058420EF0004
:1012C000504ED30BA52053058420EF00B046D30C1D
:1012D000A52053F58400EF00F0455307A520537572
:1012E00094085304E720EF00F04453F69B11537E1B
:1012F000A400D376C600D3782E0953F51619EF0053
:10130000B024D30BA52043F5AA48EF00B042D30E7A
:10131000A52047F57A49D384DE21EF00B041D3F010
:10132000A40053708A11D3FF2009537F0000537526
:10133000FF19EF00702155BDEFF08FF607230A006B
:1013400007AA0B0087A309005378930083DFC40327
:1013500053F7430103D3E40383D2040483D8240462
:1013600003D8440403D5640483D6840403D7A404B7
:1013700083D7C40427200A0127AA4A01231DF405A4
:10138000231E6404231F540423101407231104078D
:101390002312A4062313D4062314E4062315F4060B
:1013A00027A0E9008545630FBB0A63140B6C138CFF
:1013B000C1B707254C01EF2030652A86AE86178518
:1013C00000001305A5BE9385E1B0EF30D03D530E6C
:1013D00000F0D31C4EA163870C7297F7FF0F87A60E
:1013E00027EAD3F8D91053F54819EF20F0612A8D78
:1013F000AE8C07A54A01EF2030612A87AE876A8646
:10140000E686178500001305E5BCEF30D039EFF014
:10141000CFE563442067EFF0AFE8872E0A0007AB03
:101420000B0007AC090053FF2E0183AF0405D37FE7
:101430006C0103A3440583A2840583A8C40503D8D3
:1014400004062720EA0127AC6A012326F407232893
:101450006406232A5406232C1407231E040727A0FE
:10146000F9013DA527A891B8EFF02FE0D308292175
:10147000814697F7FF0F07A027DF97F7FF0F87A099
:1014800067E0D9601385C0F2D3FC2801591543F4F5
:101490006C91D37B141043F16CB9D371011053F2EA
:1014A0003B00C372621953F51210C3746251D3FA30
:1014B0000410537A550143736AA9D3731310437808
:1014C0006A3953770810D3F5E300C3F7657153F910
:1014D000171043F66591537E0610D376C901C3F801
:1014E00066E1D3FE181043FC66E9537F0C10D3FF6E
:1014F000EE01C3FC6FF153F41C10C3FB6F4153F1B9
:101500000B10D371240043F26111D372121043F512
:101510006129D3740510D3FA920043FA6A495373D0
:101520001A10C3F36A3153F8031053770301C375DC
:101530006781D3F71510437967795376091053FE05
:10154000C700C3766E61D3F81610C37E6E8953F957
:101550000E101DF98506E317D9F2EFF06FD40720BE
:101560000A0007AB0B0087A00900537C2001AC48A0
:1015700053FF600183A34405B04CF84C83D70406A5
:1015800027208A0127AC6A016CD42328740670D8FE
:1015900038DC231EF40627A0E901054E6301CB19B0
:1015A00063060B4EEFF06FCC6353201997F7FF0FD4
:1015B00087AC07CA97F7FF0F87A7C7C9014CBD6F54
:1015C0001383DF0931A0D38CF720D30729215D13C2
:1015D0009300F3FF53899C21E39700FE050CE31170
:1015E00089FFEFF0EFCB07260A0007AC0B0007AE30
:1015F0000900D376960103DF8407D3788E0183DC5C
:10160000A40783DFC40703D3E40783D2040883D885
:10161000240803D8440803D5640883D68408272007
:10162000DA0027AE8A01231FE4072310940923114F
:10163000F4092312640823135408231414092315EE
:1016400004092316A4082317D40827A019018545E7
:101650006301BB34630C0B14EFF02FC197F7FF0F3E
:1016600087AE07C3D3FCD91197F7FF0F07A5C7BEF5
:10167000814C97F7FF0F87A9E7C1096DEF00901F15
:1016800053753511130C1D45EF005018EF00901ED7
:1016900053753511EF009017EF00D01D53753511BC
:1016A0005D1CEF00B016EF00F01C53753511EF0014
:1016B000F015EF00301C53753511EF003015EF00B9
:1016C000701B53753511EF007014EF00B01A53758D
:1016D0003511EF00B013EF00F01953753511EF001D
:1016E000F012EF00301953753511EF003012EF0092
:1016F000701853753511EF007011EF00B017D374E7
:10170000351153859420EF007010E3170CF8850C09
:1017100063D32C1753F53411EF00500F85B7138D99
:10172000C1B7272C2D01EFF04FB4E34120E9EFF0D2
:101730002FB707AC0B00072B0A0087AB090097F700
:10174000FF0F07A1E7B0D3712B0053F28B0103DF2A
:10175000840783DCA40783DFC40703D3E40783D2B1
:10176000040883D8240803D8440803D5640883D622
:10177000840827203A0027AE8A01231FE40723109C
:1017800094092311F4092312640823135408231421
:101790001409231504092316A4082317D40827A025
:1017A00049008545630BBB4E631C0B48138CC1B7C6
:1017B0000725CC01EF2050252A86AE86177500003C
:1017C0001305C57E938521B3EF30E07D530000F013
:1017D000D31380A16384033497F7FF0F87A007AB6F
:1017E00053FF191053758F19EF2010222A8DAE8CDC
:1017F00007A5CA01EF2050212A87AE876A86E686B0
:10180000177500001305057DEF30E079EFF0EFA5C7
:1018100097F7FF0F87AFC7A7D3FCF911E34620E581
:10182000EFF00FA807A40B00072B0A0087AB0900F5
:1018300097F7FF0F07A187A2D3712B0053F28B00FC
:1018400003A9440603AB840683ABC40603AE0407B6
:1018500083D4440727203A0027A08A02232824099A
:10186000232A6409232C7409232EC4092310940A03
:1018700027A04900B1A82AE6EFF08FA207250A00A9
:1018800007A40B0087AA0900B26583AE440653F390
:101890008A00537AB500B05403AFC406B85883D752
:1018A00044072328D409232AC408232CE409232E1F
:1018B000E4082310F40A27204A0127A08A0227A05F
:1018C00069000544630B8B08631D0B08138CC1B7BB
:1018D00007250C02EF2050132A86AE8617750000EC
:1018E0001305C56C938541B4EF30E06BD30300F072
:1018F000D39983A06387092297F7FF0F07A8C79999
:10190000D3F50C1153F58518EF2010102A8A2E8973
:1019100007A50A02EF20500F2654B6509654F649F8
:10192000D64A464BB64B264C964C064D7274E27422
:101930005279C279327AA27A127B827B726CE26C23
:101940005286CA86664A06592A87AE8717750000EE
:101950001305456865616F300065138DC1B7272099
:10196000BD02B650265496540659F649664AD64AE0
:10197000464BB64B264C964C064D7274E274527927
:10198000C279327AA27A127B827B726CE26C6561D8
:10199000828027AC91B9EFF04F8D97F7FF0F87A2A8
:1019A000278FD3FC5910C9B127A281B8EFF0EF8B74
:1019B000634220DFEFF0CF8E87210A0007AA0B00D9
:1019C00007A2090053F5210183D2C408D372420152
:1019D00083D8E40803D8040903D5240983D544092E
:1019E00003D6640983D3840903DCA40903DEC40994
:1019F0002720AA0027A64A01231B5402231C1403F4
:101A0000231D0403231EA402231FB4022310C404B5
:101A100023117404231284052313C40527A059003D
:101A2000854E6311DBDF138DC1B727262D01EFF043
:101A3000CF83EFF0EF8607A30B0087A3090003AF66
:101A4000840283AFC40253F863009458D85883D7F4
:101A50008403D30700F027A86A002324E405232683
:101A6000F40534C878C8231CF40427A009016FF0DA
:101A70004FF5EFE09FFF6353202997E7FF0F07AB78
:101A8000A77CEDB2EFE07FFE6FF06FF4138CC1B76F
:101A900007258C01EF2040772A86AE861775000057
:101AA0001305C550938501B2EF30E04FD30F00F01E
:101AB000D39E6FA163850E0497E7FF0F87ACC77CA9
:101AC00053F4991153756419EF2000742A8D2E8CEC
:101AD00007A58A01EF2040732A87AE876A86E286CF
:101AE000177500001305854DEF30E04B65BC014DC7
:101AF000814C6FF0AFD5014D014C6FF06FE9014D96
:101B0000014CF9B7014D814C6FF0BF8E014D814CF6
:101B10006FF02FC6814C014C6FF0AFA2014D814C8C
:101B2000C1B9014A0149EDB3EFE09FF787A40B006B
:101B300007AC090003AE840283AEC402D37C9C00D0
:101B400003AD040303AF440383DF84032324C405EC
:101B50002326D4052328A405232AE405231CF40501
:101B600027A89A0027A09901EFE03FF0EFE05FF38C
:101B700007AA0B00872B0A0087A4090097E7FF0F2D
:101B800007AC876ED3FC8B01D3FA440183DCC4031A
:101B900003D3E40383D2040483D8240403D8440485
:101BA00003D5640483D6840403D7A40483D7C40470
:101BB00027209A0127AA4A01231D9405231E6404A5
:101BC000231F540423101407231104072312A4060F
:101BD0002313D4062314E4062315F40627A0590181
:101BE00085456314BBFC138DC1B7272A8D01EFE037
:101BF000DFE7EFE0FFEA07AE0B0007240A0007ABC0
:101C0000090083A30405D3762401D378CB01F048DF
:101C100003AE840583AEC40503DF04062720DA0083
:101C200027ACCA012326740630D8232AC407232CE4
:101C3000D407231EE40727A01901272C2D01E5B4A2
:101C4000EFE0BFE2EFE0DFE587220A0087A90B00A3
:101C500007A5090097E7FF0F87A44760D3FA920012
:101C6000537A350103A9440603AB840683ABC4064B
:101C700083A3040783D4440727205A0127A03A03EB
:101C800023282409232A6409232C7409232E740889
:101C90002310940A27A04901E9B1138DC1B7272E5B
:101CA0002D00EFE09FDCEFE0BFDF07A30B008723F1
:101CB0000A0007A8090097E7FF0F87A5275A53F7DF
:101CC000B300D377680003AE4406B05483AEC406B5
:101CD000B85883D744072720EA0027A06A022328A0
:101CE000C409232AC408232CD409232EE408231072
:101CF000F40A27A0F9002720BD02A5B1EFE05FDAC2
:101D000087250A0007AB0B0087A7090053F92501B7
:101D100083A3040553F66701F04803AE840583AE40
:101D2000C40503DF040627202A0127AC6A01232605
:101D3000740630D8232AC407232CD407231EE407B3
:101D400027A0C9006FF0DF85D30705E0411122C449
:101D50001394170026C206C6058037078050BE843C
:101D60006348E4023707807F63578700D377A50075
:101D7000D38707E039A0634AF01A97E7FF0F83A7DC
:101D8000A752B24022449244538507F04101828019
:101D90003707E03E6355E40237070031635FE40034
:101DA00017E7FF0F87278750D377F50017E7FF0F57
:101DB000072747495317F7A069F77D571DA8F92A48
:101DC000B707983F6357F40EB707303F6355F40CDD
:101DD00097E7FF0F07A7074897E7FF0F87A7474633
:101DE000C377E5785375E5000147D3F7A718D38784
:101DF00007E0D38707F097E6FF0F07A7E64B97E6C4
:101E0000FF0F87A5E64C53F6F71097E6FF0F87A75D
:101E1000664AD376C610C3F7F67097E6FF0F07A79A
:101E2000E649C3F7D77097E6FF0F07A76649C3F7E0
:101E3000D77097E6FF0F07A7E648C3F7D77097E676
:101E4000FF0F07A76648C3F7D77097E6FF0F07A7EE
:101E5000E64743F7E65897E6FF0F87A5A64743777F
:101E6000D75897E6FF0F87A526474377D75897E6B9
:101E7000FF0F87A5A646FD564377D7585377D7104F
:101E8000C3F7C770538707F0D377F7106313D706EC
:101E9000D377F708F1BD97E7FF0F87A7A73A5377E6
:101EA000F5085375F5000547D377A718D38707E0E2
:101EB00089B7B7071C406354F40297E7FF0F87A761
:101EC000273F97E7FF0F87A6E7375377F508437556
:101ED000F5680947D377A718D38707E019BF97E7B5
:101EE000FF0F87A7E735D3F7A7180D47D38707E07C
:101EF00009B70A0797760000938606321776000026
:101F000013068632BA9632971863D3F7E7085387D9
:101F100007F0D3F7E7089862D377F708D38707E08D
:101F2000E3D104E6D397F720A1B597E7FF0F83A786
:101F3000673781BDD30705E0B716493F938686FD15
:101F400013971700058363C6E600D30500F06F0002
:101F5000407AB706807F6345D7005375A508828015
:101F60000111280006CE392B0D898547B2652265FF
:101F7000630AF5008947630DF50009ED9D2FF240D6
:101F8000056182800545EF00705D5315A520C5BF32
:101F90008D27E5BF0545EF00705CD5B75325A5201B
:101FA0008280D30705E0B716493F938686FD1397D5
:101FB0001700058363C7E600D30500F001456F00F5
:101FC000F059B706807F6345D7005375A508828016
:101FD0000111280006CE7D210D898547B265226555
:101FE000630CF5008947630BF50019ED0545EF001B
:101FF000F056F24005618280ED2DE5BF0545EF000A
:10200000F0555315A520F5B7ED25E5BF011126E4E0
:10201000D304A52022E606CE55285304A5205385D7
:102020009420EF0030620DC197E7FF0F87A7872B41
:10203000D39797A08DC3EF20804F930720021CC138
:1020400097E7FF0F07A4C729F24053058420A26435
:1020500032640561828097E7FF0F87A7E728D3974F
:10206000F4A0FDD3EF20A04C93072002530400F00E
:102070001CC1D9BF011122E65304A52006CE0124BC
:10208000D32784A095C3D30700F0D39787A089EF07
:10209000D327F4A091CFEF208049930720021CC1E1
:1020A00097E7FF0F07A58724F2403264056182801D
:1020B000EF20E047F2403264930710021CC117750D
:1020C0000000130565EB05616F001062D30705E0A2
:1020D0003707807F9396170085826377D700D37781
:1020E000A500D38707E001A813D6F7016398E6009F
:1020F00019C293070000538507F082803777B142F9
:10210000130777216355F70001456F00105363DB18
:10211000070037F7CF421307571B6375D7000145F8
:102120006F0010513777B13E1307872197E5FF0FF6
:1021300007A645116370D70E3717853F1307175948
:1021400093152600636BD7081387019E2E970C63A7
:10215000D38707F01387819E2E97D3F5B7081863AE
:102160000547118F118FD3F7E508D38707E0D38692
:1021700007F097E6FF0F07A5A61897E6FF0F87A7BA
:10218000E617D3F6D610C3F7F65097E6FF0F07A56C
:102190006617C3F7D75097E6FF0F07A5E616C3F7F4
:1021A000D75097E6FF0F07A56616C3F7D75053859C
:1021B00007F0CBF7D750D376F51097E6FF0F07A5BA
:1021C00066092DEFD3F7A708538707F0D3F7F61862
:1021D000D3F7E708D377F60829B71387819D2E97A1
:1021E0001863D38607F097E6FF0F87A7661097E678
:1021F000FF0F87A52610C3F7F670539707C097E720
:10220000FF0F87A7670F537707D0CB75B768537752
:10221000F71091BF3707003463F0E602D38607F06A
:1022200017E7FF0F87278708D3F7F6005317F6A0A5
:1022300001C7D3F7C60075B5014715BFD377F508B9
:10224000930730F8D3F6F6185377D7085377B708C3
:10225000D377E608D38607E06346F7005E07B30747
:10226000D70051BD93074706DE07B697538707F09F
:1022700017E7FF0F8727C709D377F7109DB5D30757
:1022800005E0939617003E8791EA97E7FF0F07A5B1
:102290006708D30700F05375F518828063D50700EF
:1022A0005375A508FDB7B706807F63C5D700537582
:1022B000A5008280B7068000014663DBD70017E7E0
:1022C000FF0F87276705D377F5101D56538707E063
:1022D00093567741938616F8B29637068000930797
:1022E000F6FF7D8FB7074B00938707B2BA97F18F40
:1022F00093D57741AE96B705803FAD8FD98FD38701
:1023000007F041169307F70097E5FF0F07A585F340
:102310007D8E53F5A70825EED30700F0D327F5A04F
:1023200085C75385F720638E061453F506D097E7CB
:10233000FF0F87A767FC97E7FF0F07A7A7FBD377D8
:10234000F5104375E578828097E7FF0F07A7C7F779
:1023500097E7FF0F87A647F1D377A5104B77E5687E
:10236000D3F7E71081E65375F5088280D3F606D0DF
:1023700097E7FF0F07A747F8CBF7E678D3F7A7084B
:1023800097E7FF0F07A507F747F5A678828097E73D
:10239000FF0F87A727ECD377F50097E7FF0F07A775
:1023A000E7F797E7FF0F87A067F83766CFFF1306B9
:1023B00006C3D376F51897E7FF0F87A767F63A9617
:1023C000D3F506D053F0D610537600104377E67855
:1023D00097E7FF0F87A707F54377C77897E7FF0FC2
:1023E00087A787F4C377F60897E7FF0F87A047F41E
:1023F000C3F7C70897E7FF0F87A0C7F3B7C7350034
:10240000938787283387E740C3F7C708518FD3F7EF
:102410000710C377C7786353E00497E7FF0F07A758
:10242000A7E45377E5105377A710D3F7E700D3F766
:10243000D71081E6D377F7083DB797E7FF0F87A658
:10244000A7EBC3F7D5785377F7085377A70897E733
:10245000FF0F07A527EA47F5A5708280D377F50817
:10246000D3F7D71089D297E7FF0F07A7E7E8CBF795
:10247000E578D3F7A70897E7FF0F07A5A7E747F584
:10248000A5788280D30705E0011122CC3717493F98
:102490001394170026CA06CE4AC80580130787FD85
:1024A000AA846347870088E0232205000145A1A094
:1024B00037D71640130737BE3E89634C870817E7A6
:1024C000FF0F872767E73717C93F4198130707FDB5
:1024D0006354F004D377F5086305E40297E7FF0F30
:1024E00007A7C7E5D3F6E7080545D3F7D70894E073
:1024F000D3F7E708DCE0F2406244D2444249056188
:10250000828097E7FF0F07A7A7E3D3F7E70897E7CE
:10251000FF0F07A727E3F9B7D377F5006300E402BD
:1025200097E7FF0F07A787E1D3F6E7007D55D3F7BD
:10253000D70894E0D3F7E700DCE075BF97E7FF0F1B
:1025400007A707E0D3F7E70097E7FF0F07A787DFA5
:10255000E1BF37174943130707F863438710EFF0CC
:10256000FFA397E7FF0F07A727D097E7FF0F87A7DE
:10257000A7DDC377F570539507C097E7FF0F87A7CF
:10258000A7DB537705D04B75F75097E7FF0F87A769
:10259000E7DAD377F710FD47D376F508538706E0DF
:1025A00063C2A7049306F5FF1396260097760000F2
:1025B000938686C8B2969442937704F06384D702D8
:1025C00098C098605375E5085375F508C8E0E35462
:1025D00009F25317E7205315A52098E0C8E033050A
:1025E000A04011BF935777015D8493F7F70FB307AE
:1025F000F440A146E3D6F6FC97E7FF0F87A747D440
:10260000CB76F7505375D5084B75F75097E7FF0F0A
:1026100087A747D3C777F75053F6F608530706E066
:102620009357770193F7F70F1D8CE54763C6870033
:102630005385D62090E071B797E7FF0F87A707D1A2
:102640004B75F768D3F6A608CB76F76897E7FF0FC8
:1026500087A707D0C777F7685377F50898E095B74D
:102660003707807F6347E400D377A5085CE11CE16E
:1026700035BD135674411306A6F7931776011D8CCA
:10268000D30704F0530704F08D46D39707C0D3F760
:1026900007D097E7FF0F87A6E7CB3EE2D377F7088F
:1026A000D3F7D710D39707C053F707D0D3F7E7086E
:1026B0003AE4D3F7D710D30600F0D3A7D7A03EE66D
:1026C00091C7D326D7A093B616008506977700004A
:1026D000938787BE0947A6854800E520E35D09E0AA
:1026E0009C60D397F7209CE0DC60D397F720DCE078
:1026F000FDB5530705E0B706003217E6FF0F0726C2
:1027000066B493171700858363D9D700D30707F002
:102710005305C620D39607C0BDCED30707F097E672
:10272000FF0F07A7A6C397E6FF0F07A526C4D3F69A
:10273000F71097E6FF0F87A7A6C243F7E67897E65C
:10274000FF0F87A726C24377D77897E6FF0F87A7A3
:10275000A6C14377D77897E6FF0F87A7E6B0D3F7F0
:10276000F6104377D75097E6FF0F07A566C043776B
:10277000D750530507F037A7993E13079799D3759C
:10278000B5105377D71047F7E6586347F70053F56E
:10279000E7085375A60882803707483F634EF70065
:1027A000370700FFBA97D38607F053F5D70853765B
:1027B000D6085375E508F1BF97E7FF0F83A7C7B9A0
:1027C000DDB721712322511B232A9119BA8ABE8CAD
:1027D0000A0797770000938767E2BA972324411B83
:1027E0002320611B232C811903AB07002326B11979
:1027F000232E111A232C811A232A911A2328211BF4
:102800002326311B232E71192328A119272E811667
:10281000272C9116272A21172728311727264117F9
:1028200027245117272261172AC6F157AE8D138C22
:10283000F6FF014A6347F600130AD6FFA147334A61
:10284000FA02930B1A008E0B33088A413309764142
:10285000B3088B019818C2873385074163D1A8025A
:10286000368513080111B307D540634AFB04981855
:1028700093172500BA97D30700F001470DA8D30797
:1028800000F063C807001395270066950841D377C9
:1028900005D01CE385071107C1B7B245931827007F
:1028A0009863AE9887A608000507C3F7E678F11786
:1028B000E355ECFE2720F800050511086DB71C1044
:1028C000131D2B003E9D93172A003EC8DA8997E717
:1028D000FF0F07AA27AA97E7FF0F87AAA7A797E7DF
:1028E000FF0F07A967A997E7FF0F87A927A997E710
:1028F000FF0F87A4279597E7FF0F07ABE796139481
:1029000029009C12A2971308010207A507FB428722
:10291000CE876347F0104A8536CE32CC42CAD12BDF
:102920005304A520537525112D234B74354152486E
:102930006246F246531A04C053750AD05374A40871
:10294000635520119387F9FF8A079812BA9783A4D9
:1029500007EC2145B308254133D514412A9A331594
:102960001501898C23A097EC9D47B3872741B3D4E9
:10297000F44063539004050A814801451303F00FA6
:10298000130E001063C4380F63582001854763029B
:10299000F9108947630BF9108947639FF40053F4DA
:1029A000840819C9538594204A8536CC32CA9123AC
:1029B0005374A408E2465246D30700F0D327F4A08C
:1029C000638007181384F9FFA287014563D9670F55
:1029D00063060514931724001810BA979C436119D5
:1029E000638E071497E7FF0F07A5C7854A85112354
:1029F000A28717E7FF0F0727E79763D5071AA28675
:102A000063C5061E1C0A139626003E96D30700F0E7
:102A1000177500001305C5BB8145B307D4405DAAF7
:102A2000D3774511FD170C0A539507C0D37705D00E
:102A30004BF55751531505C008C3139527002E9524
:102A40000861110753F5A700E9B5631B09009387D7
:102A5000F9FF8A079812BA9783A407EC9D8411BFE7
:102A6000D3078BA08144A9DB894431B783270800B1
:102A700019E991C7B307FE402320F8008547850870
:102A800011083E8501B7B307F3402320F800AA8759
:102A9000FDB79387F9FF8A079812BA9703A807EC46
:102AA0001378F80723A007EDC5BD9387F9FF8A07C0
:102AB0009812BA9703A807EC1378F803E5B71398B0
:102AC000270018103A9803280800FD173365050100
:102AD000F5BD0505F11798436DDFB387D9008A0767
:102AE0008C1813871900AE97AA99E3CAE9E0C2458A
:102AF00013152700BE883388A500669803280800B0
:102B0000D37708D001489CE3D30700F0635B0C0146
:102B10000C0A2E951CE105079107C1BFEA87054500
:102B200055BFB2451313280007A708002E93872628
:102B300003000508F118C3F7E678C9BF7D1459BD35
:102B4000530584203385CB406D2697E7FF0F87A779
:102B50006780D387A7A09DCF97E7FF0F07A787813F
:102B60005377E51098122109D31707C053F707D000
:102B70009C123E944B75F750D31607C0D31705C06F
:102B80002320F4EC1384190093172400BA9723A090
:102B9000D7EC89BD9C123E94D31705C02320F4ECDA
:102BA0004E8489B593962700180A3306D70018106B
:102BB000BA969442FD17D3F706D0D3F7A7105375F2
:102BC000E5101CE21DBD1461186285051105C3F7EF
:102BD000E67811066344BB00E3D7B7FE8A07981274
:102BE000BA9727A0F7F6FD1621BD894763C457079A
:102BF00063415011D30700F063860A0A8320C11B8A
:102C00000324811B8324411B0329011B8329C11A2F
:102C1000832A411A032B011A832BC119032C811912
:102C2000832C4119032D0119832DC1180724C117C5
:102C3000872481170729411787290117072AC116F9
:102C4000872A8116072B411613757A00032A811AE9
:102C5000396182808D47E393FAFA93172400980133
:102C6000BA97BE862286F116634EC008A286054634
:102C7000F1176345D60AD30700F0854663CC860A70
:102C80008E661E67E9E027A0DD0027A2ED0027A4DD
:102C9000FD00ADB7931724009801BA9798637D148F
:102CA000D3F7E700E35804FE99C0D397F72027A095
:102CB000FD00A9B7939627009801BA969C62FD176C
:102CC0005377F700E3D807FED307E72099C0D3175F
:102CD000E72027A0FD008E679C018546D3F7E70813
:102CE0009107635CD40099C0D397F72027A2FD0019
:102CF00031B7530700F0A287F1B798638506D3F781
:102D0000E700F9BF9C62D4627D1653F7D700D3F772
:102D1000E70898E2D3F7D700DCE2B1B79C63D4634D
:102D2000FD1653F7D700D3F7E70898E3D3F7D7009A
:102D3000DCE33DBF931724009801BA9798637D1494
:102D4000D3F7E70025BFD396D6205317E720D397B4
:102D5000F72027A0DD0027A2ED0015BFD30705E06F
:102D6000B70600321397170005836355D700531732
:102D700005C025C3D38707F017D7FF0F0726876045
:102D800053F7F710D3F6E71017D7FF0F8727475FE2
:102D9000C377F76017D7FF0F0726075FC3F7E76012
:102DA00017D7FF0F0726875EC3F7E76017D7FF0F18
:102DB0000726075EC3F7E76005E117D7FF0F072671
:102DC000675DC377F760538707F0C3F7D770D38782
:102DD00007E0538507F08280D3F7F61017D7FF0F6F
:102DE00007268748C7F7C57847F7E75817D7FF0F73
:102DF0008727C751C3F6F670D38707F0D3F7D708F4
:102E0000F9B7011122CC06CE2AE62A84EF102072EF
:102E1000F24000C16244326505618280D317A5206B
:102E200019E1D307A52053F5A71013052002D1BF40
:102E300097D7FF0F07A54756D5B797D7FF0F07A519
:102E4000E755E9BF531505E013751538133515001F
:102E50008280D30705E059479396170013D61600D2
:102E6000E182938616F86344D7063E8763D4060250
:102E700097D6FF0F87A78643D377F500530700F057
:102E8000D317F7A091C7635F070419C2370780BF44
:102E9000BA87B1A0B70580001386F5FF3356D64038
:102EA0003375F6000DCD17D5FF0F87272540D37753
:102EB000F500530700F0D317F7A0F9DB63550700BF
:102EC000B3D6D54036971346F6FF718FD1B7370783
:102ED000807F6366E600D377A500D38707E053853C
:102EE00007F0828001476DB797D7FF0F07A5474BC3
:102EF0008280D30705E0139617001357160059C6B2
:102F00003706807F6367C700D377A500D38707E0C4
:102F1000B5A8B3F6C700B9EA17D7FF0F8727C73F91
:102F2000D377F5105177130707CBD38707E06348B2
:102F3000E50213D777411377F70FBE861D17316669
:102F4000130606356357A60217D7FF0F0727073664
:102F5000D38707F0D307F720D377F71045BF17D7EC
:102F6000FF0F87272744538707F0FDB7BE865D8391
:102F7000F9B73A951307E00FE348A7FC635BA0009D
:102F8000B7078080FD17F58F5E05C98F538507F061
:102F9000828029576357E50017D7FF0F072787401F
:102FA00045BF93079501370580807D15DE07E98EC3
:102FB000D58F17D7FF0F8727273F75B7411122C439
:102FC00006C626C24AC0B70720002A842E8563EBB6
:102FD000F5009377F47F99C785671374048093870E
:102FE00007805D8CEF10601D97D7FF0F9387871FB9
:102FF0009043D443EF00F0422A892285AE84EF103B
:10300000C01B4A86A6868D2EEF10E02BB2402244CC
:103010009244024941018280AA88AE87328836856F
:10302000468363960620976600009386A66163FF39
:10303000C50A41676375E60A1307F00F3337C70007
:103040000E073355E600AA9683C606001305000254
:103050003697B306E540630BE500B395D70033D749
:10306000E8003318D600D98D3393D800935808015F
:10307000B3D615031316080141829357030133F7A2
:1030800015033685B305D6024207D98F63FCB70016
:10309000C2971385F6FF63E7070163F5B700138551
:1030A000E6FFC2978D8F33F71703420313530301D3
:1030B000B3D71703420733636700B306F6023E86B1
:1030C000637BD30042931386F7FF63660301637447
:1030D000D3001386E7FF4205518D81455DA8370572
:1030E00000014147E36FA6F46147A1BF01E6054730
:1030F0003358C7024167637FE8081307F00F637313
:10310000070121453357A800BA9603C706001306E6
:1031100000022A97B306E6406315E608B387074125
:10312000854593580801131608014182135703017E
:10313000B3F61703B3D71703C206558F330EF60243
:103140003E85637CC70142971385F7FF63670701DC
:103150006375C7011385E7FF42973307C741B3770C
:10316000170342031353030133571703C20733E313
:103170006700B306E6023A86637BD30042931306E8
:10318000F7FF636603016374D3001306E7FF42058C
:10319000518D8280370700014145E365E8F66145BE
:1031A00095B73318D80033D5E7003393D800B397D9
:1031B000D70033D7E800935808013366F700337718
:1031C000150393170801C183935506013355150361
:1031D00042074D8FB386A702AA85637CD70042972A
:1031E0009305F5FF636707016375D7009305E5FF56
:1031F0004297B306D74033F7160342064182B3D64F
:10320000160342073385D702B367C700368763FCCE
:10321000A700C2971387F6FF63E7070163F5A700CE
:103220001387E6FFC297C205898FD98DDDBD63E2A2
:10323000D514416763FFE6021307F00FB335D700DB
:103240008E0533D5B600176700001307A73F2A97EE
:1032500003470700130500022E97B305E5406311ED
:10326000E5020545E3E7F6F233B5C800134515005E
:103270000DB737070001C145E3E5E6FCE145D1B7ED
:103280003358E600B396B6003368D80033D3E7006E
:10329000935E0801B376D303B397B70033D7E80042
:1032A000331EB6003366F70093170801C183135726
:1032B00006013353D303C206558F338F67021A8535
:1032C000637CE70142971305F3FF636707016375AA
:1032D000E7011305E3FF42973307E741B376D703CE
:1032E0003357D703C2063383E70293170601C1831E
:1032F000D58F3A8663FC6700C2971306F7FF63E732
:10330000070163F567001306E7FFC2974205C16E28
:10331000518D9386FEFF13560E0113580501B38796
:1033200067403373D500B376DE00330ED302B306A5
:10333000D80213570E013303C30236931A9733088A
:10334000C8026373D700769893560701369863E0F6
:103350000703E39407D9C167FD177D8F4207337ECA
:10336000FE00B398B80072978145E3F4E8E27D155A
:10337000ADB38145014531BD011106CE22CC26CA2F
:103380004AC84EC652C4F3292000B7081000FD18E1
:1033900033F7B80013D4450193D4F50193D5460112
:1033A00093173700B3F8D8001357D5011374F47F7F
:1033B00093F5F57F5D8F13D3F60193173500935680
:1033C000D6018E083305B44013183600B3E6160153
:1033D0002A86639164346359A010B9E133E506018C
:1033E00011E59306F07F631CD62A39A81305F6FF72
:1033F00001E93E98BA96B337F800BE96054659A043
:103400009308F07F63111605B366F700638C066EB0
:10341000B7064000F98E014463920620C145FDAA1B
:103420001306F07F631EC400B366F700638F066C5B
:10343000B7064000F98E638506121306F07F85A457
:1034400037068000D18E13068003634AA6087D46A6
:103450006340A60613060002098EB358A800B39570
:10346000C6003318C800B3E515013338000133E84E
:10347000050133D5A6003E983A95B337F800B30658
:10348000F5002286B7078000F58FB5CB05069307B8
:10349000F07F6301F626370780FF7D1793571800EA
:1034A000758F1378180033E807019317F701EDA221
:1034B000930505FE93080002B3D5B60001466308E4
:1034C0001501130600043305A6403396A6003368A1
:1034D00006013338000133E80501014569BF33E8CF
:1034E000060133380001D5BF7DC93386854021E808
:1034F0003365F70011E99307F07F6306F60236871C
:10350000C2876301064061AA9308F6FF6399080029
:10351000C29733B80701BA96C2963E88C5B513055F
:10352000F07F6315A604B3E706016383075EB70760
:103530004000F58F3687639F075CC287C5B51305CA
:10354000F07F6391A502B3E706016380075AB707CE
:103550004000F58F3687639F0758C2871306F07FB8
:1035600001446DBD37058000498FB2881306800382
:10357000634316077D46634B1603130500023305AC
:1035800015413316A70033D31701B397A70033664D
:103590006600B337F000D18F33571701C2973697C3
:1035A000B3B60701BA963E882E86E9BD138608FE9B
:1035B000130300023356C7000145638868001305F2
:1035C0000004330515413315A700C98FB337F00048
:1035D000D18F0147E1B7D98FB337F000DDBF1306B4
:1035E00014001375E67F41ED3365F70021E46301B4
:1035F000054C33E60601630706303E98B337F80002
:1036000036973E97B7078000F98F6384074AB7075C
:1036100080FFFD177D8F8145C287054693F67700B1
:10362000C5E6630D045693F615006389065693E5C7
:103630002500ADA31306F07F631DC402630F055C74
:1036400037064000798E133616001206639D8552A8
:10365000B28533E6060111C637064000758E11E2C9
:10366000C145631305523687C28701441306F07FB4
:1036700075B76394C5008145E9BF8145DDB7930502
:10368000F07F6300B6023E98B337F80036973E9756
:103690009317F70113581800B3E707010583014496
:1036A0009DA9638609008D476396F90081E813069A
:1036B000F07F81A889476393F900F5F801447D57AD
:1036C000FD571306E07F9545894693E51500638510
:1036D000D9488D46638ED9466391094893F6F70021
:1036E0001145638CA64693864700B3B7F6003E9714
:1036F000B687A5A1638709008D476398F900639D8C
:10370000043E01478147954551A989476396F93E93
:10371000EDF86DB76356A00CC9E133E50601E3028D
:1037200005CC1305F6FF11E933880741B306D740EE
:10373000B3B707019D8E0546A9A09308F07FE30566
:1037400016CD130680036348A6087D46634FA60482
:1037500013060002098EB395C600B358A8003318AB
:10376000C800B3E515013338000133E80501B3D6CD
:10377000A60033880741B306D740B3B707019D8E33
:10378000228637098000B3F72601E38A07D67D1920
:1037900033F92601428A3284B5A41306F07FE3058B
:1037A000C4C837068000D18E69BF930505FE930813
:1037B0000002B3D5B60001466307150113060004E5
:1037C000098E3396C600336806013338000133E8AA
:1037D0000501814679BF33E8060133380001D5BFC2
:1037E00075CD3386854039E43365F70009E59307E5
:1037F000F07F9A8419B39308F6FF639C0800B3071F
:10380000F8403338F800998EB38606419A843E8892
:103810001DB71305F07F6316A604B3E70601638E98
:10382000072EB7074000F58F3687639B072EC287A8
:103830009A84EDB61305F07F6391A502B3E7060104
:103840006383072EB7074000F58F36876391072EF5
:10385000C2871306F07F9A8421B337058000498F11
:10386000B28813068003634716077D46634F16032D
:1038700013050002330515413316A70033DE170187
:10388000B397A7003366C601B337F000D18F335723
:103890001701B307F8403387E640B336F800B306A4
:1038A000D7403E882E869A84E9BD138608FE130E03
:1038B00000023356C70001456388C80113050004A0
:1038C000330515413315A700C98FB337F000D18FE9
:1038D0000147C1B7D98FB337F000DDBF130614001D
:1038E0001376E67F7DEAB368F70033E506015DE015
:1038F000639208066311051C9384E9FF93B41400D6
:1039000001478147B3E6E7006380062493D6F701B9
:103910001314170036949396170013F6760081451A
:1039200005C609466389C91A0D46638CC9188545C1
:10393000639C090013F6F60011456307A60093B6D1
:10394000C6FF93C6160036946180134414000588A0
:103950000146E9B145D9B385074133B5B700330610
:10396000D740098E37058000718D19C9B307F8401B
:103970003387E6403338F800330707419A8459B754
:10398000B3E7C500639C07129384E9FF93B4140066
:1039900001478DBF1306F07F631EC40063870826AE
:1039A00037064000798E133616001206639385267B
:1039B000B28521A06391C502814511C5370640003B
:1039C000758E11E2C1456397082463070516368793
:1039D000C2879A8459B98145FDB7338A074133B606
:1039E00047013309D7403309C94037068000337691
:1039F000C9002DC6330AF840998E333848013389FF
:103A000006419A84630009064A85EF00D02D13060B
:103A100085FFFD4763CEC70493060002918E3317DE
:103A2000C900B356DA00D98E3318CA00634B860634
:103A3000018E13071600FD4763C2E7041306000258
:103A4000198EB397C6003355E8003316C800C98FE6
:103A50003336C000D18F33D7E6006DB5B3672A0186
:103A6000D5F31DB75285EF0010281305050245B7A1
:103A7000930685FDB316DA0001484DBF0516930580
:103A8000000233D6C60081476307B70093070004DE
:103A9000998FB397F600B367F800B337F000D18F72
:103AA000C5BDB70780FFFD173306C440FD8E81BC3E
:103AB0003687C28781BD3687C287C9B53287AE8750
:103AC00091B5A685E39204E893B686FF93C61600E7
:103AD0003694854595BD8545E38804E693B686FF13
:103AE00093C616003694A68585B501471306F07F68
:103AF00081456DA0C28791B27D57FD571306E07FC7
:103B00000144D1B60147814751A801478147F9BF18
:103B10000147F9BFC287814511B601479A84C9BFE1
:103B2000C2879A84CDBF01471306F07FC5BFC28705
:103B30001306F07F9A84A5B6814781443707400079
:103B40001306F07FC14599A80147814701464DB74B
:103B500089E49386870051BEEDFCE31A04AC3DA8CE
:103B60008147638E09000D476397E90089C8FD57B7
:103B70001306E07F29A00947E39BE9FEEDD893E512
:103B800055003E870DA8B285B3E60601E38F06AC6B
:103B900081443707400081471306F07FB706800055
:103BA000F98E91CA05069306F07FE30BD6FAB706A5
:103BB00080FFFD16758F13D537009306F07F93179E
:103BC000D701C98F0D836319D600D98F014789C7E3
:103BD0003707080081478144B706F07F5206320755
:103BE000758E3183518FFE04B36697003E87B6878A
:103BF00099C173A01500F2406244D2444249B249CF
:103C0000224A3A85BE8505618280E38785DA81454F
:103C10006DBBB285E30B05A4A5BFE38E85A48145EA
:103C200099B4797122D456CA66C206D626D24AD031
:103C30004ECE52CC5AC85EC662C42A84B28CB68AB2
:103C40007329200093DB45019399C50093FBFB7F0B
:103C500093D9C90013DBF50163860B029307F07F4C
:103C6000638BFB069357D5018E09B3E93701B7077C
:103C70008000B3E9F900131A3500938B1BC0014C87
:103C80008144BDA0B3E7A900E1C7638B09024E855B
:103C9000EF007005130755FFF14763C8E702F547CA
:103CA000130A85FF998FB3994901B357F400B3E91B
:103CB0003701331A4401930BD0C0B38BAB40C1B76B
:103CC000EF00700213050502F1B7930985FDB319E2
:103CD0003401014ACDB733E4A90041C0B707080059
:103CE000B3F7F9002A8A930BF07F0D4CC144C9FB4E
:103CF00013D54A011394CA001375F57FE687318006
:103D000093DAFA012DC11307F07F6304E50A93D714
:103D1000DC010E045D8CB70780005D8C130515C0B7
:103D200093973C00014793162C00D98EAA9BFD1651
:103D30003946B3455B0113851B006368D60E1766D1
:103D400000001306668C8A06B2969442B29682866A
:103D50008149014A814B054C25B78149014A930BA2
:103D6000F07F094C31BFB3679401A5C305C8228514
:103D70009D2F930655FFF14763C7D70275479307F9
:103D800085FF158F3314F40033D7EC00598CB397AB
:103D9000FC001307D0C03305A74069B76685A1278B
:103DA00013050502F9B7130485FD33948C00814790
:103DB000CDB73366940119CE37070800618F13051C
:103DC000F07F19EF0D47C144B9BF01448147014558
:103DD000054791BF014481471305F07F0947A1B70B
:103DE0000D4791B73704080081471307F07F8145DD
:103DF000C1445207B706F07F3204758F3180FE054B
:103E0000598C3367B4003E85BA8599C073A01400FD
:103E1000B250225492540259F249624AD24A424B59
:103E2000B24B224C924C45618280C16E138EFEFFD4
:103E300013570A0193D80701337ACA01B3F7C701B0
:103E400033884803B3864703330FF7023303E8018F
:103E500013D806011A98330617036373E8017696A0
:103E6000935F08013378C801B3F6C601935E04017D
:103E7000337EC40142083698330FC703B306CA0322
:103E8000338A4E033303EA0113DA06011A9A330721
:103E9000D7036374EA0141631A9713530A013A93F3
:103EA0004167130FF7FF337AEA01B3F6E60113D443
:103EB0000901420AB3F9E901338F3703369AD29FD9
:103EC000B3863803B307F402B3828802B388F600DE
:103ED00093560F01C69663F3F600BA9241679307B3
:103EE000F7FF337FFF0093D80601FD8EB387C90328
:103EF000C206FA969698330EC403B3893E03338FF5
:103F00008E02F29913D40701A29963F3C9013A9F73
:103F1000416E7D1E33F7C901B3F7C70142077E9694
:103F20003E97333A46011A97330447013696B33623
:103F3000D600330E1401B30EDE003337670033347E
:103F40004401598CB3B6DE0093D90901B3381E0180
:103F50004E94B3E6D80036947A9493D77E01260423
:103F60005D8C93179600B3E70701B337F0005D82CD
:103F700037070001D18FA60E618FB3E7D70125CB9C
:103F800013D71700858BD98F1317F401D98F0580AC
:103F90001308F53F6350000D13F7770025C3094759
:103FA00093E41400630BE9040D476304E904631709
:103FB000090413F7F70091466302D70413874700FB
:103FC000B337F7003E94BA8715A8DA854E84D287B6
:103FD000628789466307D71C8D466309D71C8546CF
:103FE000E318D7FA0144814765A2D685DDB75E851F
:103FF00045B789E513878700E1B7EDFD3707000175
:10400000618F19C7370700FF7D17798C13080540AA
:104010001307E07F634A070113D737009317D401D2
:10402000D98F0D804287F1B389476303F9028D4729
:104030006308F9006317090081471307F07F29A07F
:10404000E5DDFD571307E07F93E454003E8455B34C
:10405000E5F5C5BF05476314080493F6770022878A
:104060009DCA894693E414006306D9028D46630F06
:10407000D9006312090293F6F7001146638DC6005A
:1040800013B7C7FF13471700229731A089E513B76D
:1040900087FFCDBFEDFD618313471700058B854674
:1040A000B3860641130680036342D60C7D46634AFD
:1040B000D6041305E5413316A40033D8D700B397CF
:1040C000A70033660601B337F000D18F3354D40014
:1040D00093F67700ADC2894693E41400630CD904CB
:1040E0008D466305D9046318090493F6F700114659
:1040F0006383C60493864700B3B7F6003E94B68741
:104100001DA8055633060641930800023356C40025
:104110000148638616011305E5433318A400B3670D
:10412000F800B337F000D18F01445DB789E593867D
:104130008700D9B7EDFDB7068000E18E81CA93E410
:1041400014000144814705E3054765B193D6370064
:104150009317D401D58F0D80E30D07C813F7140012
:10416000E30907C8014793E4240061B1C18F91CFEF
:10417000894793E414006303F9028D47630CF90047
:1041800085476313090095478D8393E42400014418
:10419000014785B1A547EDD98547FDB7A547EDF5A1
:1041A000E5BF014481471307F07FA1B13704080040
:1041B00081471307F07F81452DB9411122C406C6FE
:1041C0002A8421C10D261307E041A947098F63C442
:1041D000A702AD47898F5505B357F4003314A400E7
:1041E000B2402285B20722445207B183B366F7007A
:1041F000B68541018280930755FFB317F40001444F
:10420000C5B781470147E9BF4111D30705E006C69D
:1042100022C426C24AC07327200093D4770193F4A6
:10422000F40F13871400139497001377E70F25807A
:1042300013D9F7010DCB138504389357340081440B
:104240007604B2075205B183C98F7E0933E727018F
:104250002285BA8599C073A01400B24022449244CA
:1042600002494101828095E829C82285AD2CA947E1
:1042700063CFA700AD47898F13075501B357F400EB
:104280003314E400130790383305A7405DBF93074C
:1042900055FFB317F4000144F5B71DC0B707400040
:1042A000E18F91E3414793573400B7060800760445
:1042B000D58FBA841305F07F69B78147014551B79F
:1042C00081478144C5BF7328200013D745019378E7
:1042D000F77F9397C50013871800A5839356D501E0
:1042E0001377E77FDD8EFD8193173500630D07108F
:1042F000138608C81307E00F635DC704630B081437
:104300008D476319F80063860514FD571306E00F07
:10431000014711A88947E31AF8FE639C051201477B
:10432000FD571306E00F9548894693E81800630788
:10433000D8188D466300D8186318080093F6F70064
:1043400011456383A60091076309071093E82800CD
:1043500029A2634AC0082557634CE60A3707800044
:104360007945D98E118D7D47634CA704138728C8E2
:1043700033D5A700B397E700B337F000B396E60054
:10438000DD8EB367D5006384071213971700937609
:104390007700814885C289466308D80A8D46630044
:1043A000D80A8548631808009376F700114663839E
:1043B000C60011076D8313471700058B01462DA812
:1043C00079573306C7401303000233D6C6000147AE
:1043D00063066500138728CA3397E600D98FB33781
:1043E000F000D18F4DB71A053335A0008E06F58346
:1043F000C98ED58F0147814893F6770095F631CF66
:1044000013F7180091B7D58F639608000146B1C71E
:104410008547A5BFC9CB9307F07F6390F802B70823
:104420004000B3F8160193B8180092088E06B7073B
:104430000002D58F1306F00FC1B78148C5BFAE8803
:10444000B5F921078548BDB78548ADD52107AE88A8
:1044500095B781471306F00F9548370700047D8F05
:1044600011CB05061307F00F630DE604370700FCB8
:104470007D17F98F1307F00F8D836316E60081C750
:10448000B707400081455E063707807FA607798E13
:10449000A583D18FFE05CD8F6384080073A018001B
:1044A000538507F0828081481306F00F7DB70146DF
:1044B000814865B7E39A05E8A10779B5E38605E881
:1044C000E5BF8147630E08000D476317E80089C9FF
:1044D000FD571306E00F29A00947E31BE8FEEDD9BD
:1044E00093E8580041BFC1676376F5029307F00F68
:1044F000B3B7A7008E07130700021D8F3355F500D1
:1045000097570000938707143E9503450500330530
:10451000A740828037070001C147E36EE5FCE14711
:10452000D9BFAA858146014601456F00105C17C5B9
:10453000FF0F0325A5CA8280411122C426C2175449
:1045400000001304A4679754000093842467058C2B
:1045500006C6098411E4B24022449244410182809B
:104560007D1493172400A6979C438297E5B74111C9
:1045700022C426C217540000130444649754000058
:104580009384C463818C4AC006C68984014963153B
:104590009902175400001304646297540000938436
:1045A000E461818C89840149631D9900B2402244F1
:1045B00092440249410182801C40050911048297FE
:1045C000F9B71C40050911048297F9BF797122D40B
:1045D0004AD052CC56CA5AC806D626D24ECE3A8BAC
:1045E0002E8A32843689C28A01476358060037070B
:1045F00000803344C7001307D0022380E70093F400
:10460000F8FD930760048D466388F4009307500417
:1046100089466393F4000509D6879308C1001308FF
:1046200081004A87D2852286EF00306693077004A6
:10463000AA896395F40013761B0029CA93076004C6
:10464000338B29016397F40203C709009307000322
:10465000631EF700014681465285A285EF30F009BE
:1046600011C50546B306264123A0DA0083A70A0038
:104670003E9B014681465285A285EF30100811E12C
:104680005AC613070003B24763E26703B2474257B3
:10469000B2502254B38737411CC392540259624A24
:1046A000D24A424B4E85F24945618280938617007B
:1046B00036C62380E700C1BF2300C500930725004D
:1046C0001307B00263D60500B305B0401307D0024C
:1046D000A300E50025476352B70641111307F10017
:1046E0003A88A9481303300633E61503BA867D17C6
:1046F00013060603A38FC6FE2E86B3C51503E34536
:10470000C3FE9388E6FF93850503A30FB7FE3E869D
:104710004687636D0701014763651801130711019F
:10472000158FBA973385A7404101828083450700E2
:1047300005070506A30FB6FEE9BF93070003230193
:10474000F5009385050393074500A301B500338564
:10475000A7408280197186DEA2DCA6DA2E84CAD830
:10476000CED6D2D4D6D23A8ADAD0DECEE2CC3289D4
:10477000B689E6CAEAC8EEC6AA84EF109052032CA6
:1047800005006285EF00B017032B040002DC834AAA
:10479000840113770B1083270A00AA8B79CB138728
:1047A00047002320EA009C43081098433AD0D8439E
:1047B0003AD298473AD4DC473ED6EF40E03928C495
:1047C0006CC4032AC40417C7FF0F130727A2832C46
:1047D0008404032D0700832D470093171A00858357
:1047E0006A86EE866685BE853ECEEF40801C49ED2A
:1047F000F2476A86EE866685BE85EF3030056355E2
:10480000A008014681466685D285EF3030046356A4
:1048100005009307D002A301F40493077004175A0C
:104820000000130A2AF263F65701175A0000130A10
:10483000AAF1137BBBFF8D47232064011CC8014BE9
:104840004E87CA867018A2852685F92EFD5C6313F3
:1048500095177D55F6506654D6544659B659265A82
:10486000965A065BF64B664CD64C464DB64D0961E2
:1048700082809D07E19B138787002320EA009843ED
:10488000DC4338C47CC435BF6686D2866685D28553
:10489000EF40201205C563560A009307D002A3011A
:1048A000F40493077004175A0000130A2AEAE3F28B
:1048B00057F9175A0000130AAAE9A5BF5C407D57B3
:1048C00013FDFA0D6393E70899475CC054401367E2
:1048D0000B403C183EC0528693073103E68518C052
:1048E00002C2D688130841032685CD319307700490
:1048F000D2552A8A631BFD00F55763C5F5005C405D
:1049000063D7B708F91A93FAFA0F9307500663E5CD
:104910005705FD155686130504052EDA713B6257BF
:1049200085462A8BB307A7001CC863C5E60018405C
:10493000058B19C385071CC883473103E38207F041
:104940009307D002A301F404E5BD13077004E31F2D
:10495000EDF6ADFF854795BF93076006639BFA02AE
:104960005C40635BB0000CC881E71840058B09CF41
:104970008507AE971CC809A889E718408546058BAE
:1049800019C39386270014C82CCC014B75B7930A22
:104990007006E25763C9F5001C400CC8858BEDD743
:1049A00093871500C1BF05476344B00009470D8FC9
:1049B000BA97C9B71C4013F7074015E3144852864D
:1049C000CA8526858299E30695E91C40898B639800
:1049D0000724F2574844E35FF5E63E85A5BD13077B
:1049E0005006637D571928446C4401468146EF30D8
:1049F000C05039E98546175600001306A6D5CA856A
:104A000026858299E30795E55257E2576345F700FB
:104A10001C40858BDDDBDE866286CA852685829911
:104A2000FD57E308F5E2014A930AA4017D5BE257D2
:104A3000FD17E35CFAF885465686CA852685829975
:104A4000E30965E1050AE5B7D2576346F0068546F6
:104A500017560000130606D0CA8526858299E30AF8
:104A600095DFD2576257D98F81E71C40858BB1DF24
:104A7000DE866286CA8526858299FD57E30BF5DCC2
:104A8000814A130BA401FD5BD257B307F04063CBFF
:104A9000FA00E2565286CA8526858299FD57E316AA
:104AA000F5F245BB85465A86CA8526858299E3027A
:104AB00075DB850AD1BF3C4CE25A63D35701BE8AED
:104AC00063495007014B130DA401FD5D832C840540
:104AD000D68763D30A008147B387FC406344FB0653
:104AE0005257E2576349F7061C40858BADE7E25AFF
:104AF0005257B3879A41B38AEA4063D35701BE8ABB
:104B000063445007014A130BA401FD5B5257E2575F
:104B1000998F568763D30A000147998FE357FAEAC2
:104B200085465A86CA8526858299E30475D3050A87
:104B3000F1BFD6865286CA8526858299FD57E31332
:104B4000F5F801BB85466A86CA8526858299E30207
:104B5000B5D1050BA5BFDE866286CA8526858299FA
:104B6000FD57E316F5F8F5B1D68633069A01CA85E6
:104B700026858299FD57E317F5F8E1B9E256054716
:104B80006344D700858BB5C785465286CA8526857E
:104B90008299FD5AE30F55CBDE866286CA8526854B
:104BA0008299E30855CB28446C4401468146EF3096
:104BB000C0341DC9E25613061A00CA85FD162685A3
:104BC0008299E30855C9DA8613060405E9B58546D6
:104BD0005686CA8526858299E30D75C7050AE25770
:104BE000FD17E346FAFEC5B7014A930AA401FD5B2F
:104BF000FDB785465286CA8526858299E31595FDBF
:104C000089B985465686CA8526858299E30365C596
:104C1000050A5C447257998FE345FAFE5DBB014A71
:104C2000930A94017D5BF5B7797152CC9C493A8A1D
:104C3000984522D426D24ECE56CA06D64AD05AC855
:104C40005EC6AA892E84B284B68A63D3E700BA8787
:104C50009CC00347340419C385079CC01C4093F7CC
:104C6000070281C79C4089079CC00329040013796F
:104C70006900631A0900130B9401FD5B5C449840C2
:104C8000998F634CF90483473404B336F0001C4019
:104C900093F70702A5EB13063404D6854E85029AD6
:104CA000FD576303F5041C4011469840998B54440A
:104CB00081446397C700B384E64063D30400814412
:104CC0001C4418486354F700998FBE940149690445
:104CD0007D5B63982405014509A885465A86D685DB
:104CE0004E85029A631E75017D55B250225492542E
:104CF0000259F249624AD24A424BB24B4561828024
:104D00000509ADBF3307D40013060003A301C70490
:104D10000347540493871600A2978906A381E704EA
:104D20009DBF85462286D6854E85029AE30E65FB99
:104D3000050945B7797122D426D24AD04ECE06D67F
:104D400052CC56CA5AC803C8850193078007AA8463
:104D50002E843289B68963EE070193072006938675
:104D6000350463ED07016305081C93078005630A9A
:104D7000F812930A24042301040515A89307D8F90F
:104D800093F7F70F5546E366F6FE17560000130635
:104D9000269F8A07B2979C43B29782871C43938AC7
:104DA0002504938647009C4314C32381F50485475B
:104DB00065A29C41084313F60708930545000DC200
:104DC0001C410CC363D807001307D002B307F0409F
:104DD000A301E40417560000130606982948A1A071
:104DE00013F607041C410CC371DEC207C187D9BF8B
:104DF00090411C43137506089385470001C50CC3F9
:104E00009C4339A0137606040CC37DDA83D70700D0
:104E10001307F00617560000130606946304E80E05
:104E20002948A3010404584018C4634507000C40F6
:104E3000ED990CC099E3B68A19CFB68A33F7070308
:104E4000FD1A3297034707002380EA003E87B3D755
:104E50000703E37507FFA147631EF8001C40858B1D
:104E600091CB58401C4863C7E70093070003A38F0A
:104E7000FAFEFD1AB386564114C84E87CA867000E2
:104E8000A285268555337D5A631C450D7D55B2504C
:104E9000225492540259F249624AD24A424B456125
:104EA0008280A3820505175600001306E68A0C408F
:104EB000084313F805081C411105630D080208C3D7
:104EC00013F7150001C793E505020CC04148B1FB7B
:104ED00018401377F7FD18C0A9B79C4193E7070264
:104EE0009CC193078007A302F40417560000130621
:104EF000E68775BF13F8050408C3E30308FCC2077F
:104F0000C1837DBF214831BF90411C43CC491378F8
:104F10000608138547006306080008C39C438CC33A
:104F200001A808C3137606049C4375DA2390B700E2
:104F300023280400B68A91B71C43D041814593864B
:104F4000470014C383AA07005685EF10C06601C549
:104F50003305554148C05C401CC8A301040431BF5F
:104F600014485686CA8526858299E30145F31C407C
:104F7000898B8DE7B2474844E35BF5F03E8501BF7E
:104F800085465686CA8526858299E30165F1050A1C
:104F90005C443247998FE345FAFEE9BF014A930A20
:104FA00094017D5BF5B75D7122D406D62A842EDA92
:104FB00032DC36DEBAC0BEC2C2C4C6C617B5FF0FE9
:104FC0000325C52119C51C4D89E72AC6EF10E03617
:104FD00032450C455418228636CEEF202022B2509E
:104FE000225461618280AA8517B5FF0F0325051F32
:104FF00005C11C4D91EF011106CE2EC62AC4EF103B
:10500000C0332245B245F240104505616F2000498A
:105010001045EDBF011126CA4AC806CE22CC4EC6A5
:1050200052C4AA842E8909C51C4D99E3EF10E030C3
:105030009C4C804481E72685EF1020309757000074
:1050400093878784631CF402C0408357C400A18BFC
:10505000B1C71C48A1C7FD59294A1C448345090012
:10506000FD17B1E91CC463DE07062286A945268523
:105070005520FD576308F502294535A097570000D4
:10508000938787826314F4008044C1B79747000078
:105090009387877DE31BF4FAC04445BFA28526852C
:1050A0002D2A55D97D55F2406244D2444249B24935
:1050B000224A056182801CC4050963D70700184C89
:1050C00063CBE700638945011C401387170018C0B4
:1050D0002380B70059B7228626852D28E31F35F790
:1050E000D1B71C401387170018C029472380E70059
:1050F00061B7AA8517B5FF0F0325450E21BFAA8703
:1051000003C7070085076DFF3385A7407D158280A3
:105110006FB00FA8011122CC26CA4AC806CE4EC6CF
:10512000AA842E89328409C51C4D99E3EF10E02032
:105130009747000093874775631BF406C0401C4CDB
:105140001CC48357C400A18BD9C31C48C9C31C48C5
:1051500008409379F90F1379F90F1D8D5C48634767
:10516000F500A2852685EF10800B35E51C4405056A
:10517000FD171CC41C401387170018C0238037017B
:105180005C486389A7008357C400858B89CBA947F6
:105190006317F900A2852685EF1060080DEDF24037
:1051A0006244D244B2494A854249056182809747A8
:1051B00000009387676F6314F400804449B79747F2
:1051C00000009387676AE31CF4F6C0448DBFA28594
:1051D000268521202DDD7D59D9B7411122C426C253
:1051E0004AC006C697B4FF0F83A444FF2A892E84C1
:1051F00091C49C4C81E72685EF102014974700004E
:10520000938787686317F402C0408317C40013971D
:10521000070193F687004183B5EA9376070195EA83
:1052200025472320E90093E707042316F4007D5562
:1052300045A097470000938727676314F4008044D4
:10524000E9B79747000093872762E310F4FCC04456
:105250006DBF118B15C74C5891C9930744046385E2
:10526000F5004A85EF10B05B232A04028357C4007F
:105270002322040093F7B7FD2316F4001C481CC03A
:105280008357C40093E787002316F4001C4889EF76
:105290008357C4001307002093F707286386E700AD
:1052A000A2854A85EF1040268317C4001397070193
:1052B00093F6170041839DC2544823240400B3068B
:1052C000D04014CC1448014581E61377070821FF2C
:1052D000B2402244924402494101828093762700E1
:1052E000014691E2504810C4F1BFAA88138501A17C
:1052F0001C4181EF138701BA18C113050000BA875A
:1053000009C51C412324F708BA87D8437D487D5539
:105310006346E804638D080203A887086300080455
:1053200013152700429510C10323081005463316B4
:10533000E6003363C300232068102320D508894684
:105340006397D80083264810558E2322C8109306F1
:1053500017000A07D4C3BA978CC701458280011190
:1053600022CC1C49804906CE26CA4AC84EC652C421
:1053700056C263CA87107D1413162400138A450190
:10538000B30ACA009309450183A70A004E96184242
:1053900085072A89B354F7026362F706416552888C
:1053A000CE880143014E7D1583260800910811081F
:1053B000B3F7A600C182B3879702B38696029A9785
:1053C00013D70701E98FB307FE40BA9603A7C8FFBA
:1053D00013D30601E98E337EA700F2974183158F20
:1053E00093D607413697135E0741E98F4207D98F5D
:1053F00023AEF8FEE3FA0AFB1C42BDC74A85EF1054
:10540000B01663460504C16685044E868145FD16C7
:1054100003250A001C4211063377D500998D33F716
:10542000D7002E97C183418193550741898FAE974D
:1054300093D50741758FC207D98F110A232EF6FE27
:10544000E3F84AFD93172400CE9798431DC726859D
:10545000F2406244D2444249B249224A924A05612A
:1054600082801C4289E77D147116E3ECC9FE232873
:10547000890069B7984309E77D14F117E3ECF9FE59
:1054800023288900E9B70145E1B735713EDC5C515D
:1054900022CD26CB4AC94EC752C5EAD806CF56C33D
:1054A0005AC1DEDEE2DCE6DAEED63ACC46CE2EC8D3
:1054B0002A89AE843284368D428AB28985EF41458D
:1054C000EF10800E2322A90211ED9746000093866B
:1054D000A63101469305A00E17450000130545327D
:1054E000EF200015232205002324050023200500BA
:1054F00023260500832749028C4391CDD843854755
:105500004A85B397E7009CC5D8C1EF10802F832749
:10551000490223A00700635604068547060423209A
:10552000FA0093591400B707F07F33F7F900631DB1
:10553000F70462578967B2099387F77093D9C90056
:105540001CC3B3E49900E38E0432F247174B00000A
:10555000130B4B2999C7974700009387D7287247A9
:105560001CC3FA406A44DA444A49BA492A4A9A4A68
:10557000F65B665CD65C465DB65D5A850A4B0D618E
:10558000828023200A0045B7014681462685CE85C4
:1055900026D44ED6EF20701619ED62578547174B6B
:1055A0000000130B2B1B1CC3F247C5DF97470000FD
:1055B0009387571A6DB7B808F4084E86A6854A85B2
:1055C00013DA4901EF107013137AFA7FE64B2A843D
:1055D00063020A12B2572255130A1AC09395C700E4
:1055E000B181B707F03FDD8D82C097B7FF0F93877A
:1055F00067C09043D443EF20503097B7FF0F938795
:10560000E7BF9043D443EFE0CFE197B7FF0F938715
:1056100067BF9043D443EFD03FD6AA8A5285AE8469
:10562000EF30004D97B7FF0F938747BE9043D443A9
:10563000EFE02FDF2A86AE865685A685EFD0DFD332
:10564000AA8A2E8BEF30803EAA8401468146568579
:10565000DA85EF20B01F635B05002685EF304049F7
:105660005686DA86EF20700911C1FD140547D94727
:105670003AD863E397021397340097470000938763
:10568000672CBA979043D4432255B255EF20101C93
:1056900063530500FD1402D8338A4B41930CFAFF83
:1056A000014C63D60C00054C330C4C41814C63C358
:1056B0000408A69C26D0814AA54763E2A70F954718
:1056C000054A63D4A701711D014A9147630AFD068B
:1056D0009547630AFD0A89476305FD0A8D4702CA9B
:1056E0006305FD0A85473ECAFD573EC6FD5BC947B7
:1056F00002CC8DA0764A930700025E9A93052A4356
:1057000063D5B702130500040D8D93052A41339527
:10571000A900B3D4B400458DEFE03FAAB70710FE4F
:10572000BE9585477D1ABEC0C9B53385B740339550
:10573000A400DDB7330C9C40B30A904002D0ADBF4B
:1057400085473ECAE247634FF004854705473EC69A
:10575000854B3ACC83264902114723A20600130643
:105760004701CC4263F4C7044A85EF00B07E2A8B20
:1057700031E1974600009386E60D01469305A01A95
:10578000A1BB02CAC1B785473ECAE247A6973EC63B
:10579000938B1700DE87E34F70FB854765BF054A93
:1057A000014D89B7E2473EC6BE8B6DB78505CCC2B9
:1057B000060775B78327490288C3B94763E477159D
:1057C00063020A146357901C93F7F4001397370091
:1057D00093DD4440974700009387C716BA9793F626
:1057E0000D019843094ADC4385C69746000093861D
:1057F000E61290522255D452B2553EDA3AD2EF20F8
:105800002007D257125793FDFD002AC8AE890D4AD2
:10581000174800001308881063990D143A86424710
:10582000BE86CE853A85EF20A0042AC8AE89C2572D
:105830006386071C424797B6FF0F9386A69D90424A
:10584000D4423A85CE853ADA4ED2EF203000635703
:10585000051A63880B1AB2476353F00A525797B67A
:10586000FF0F9386A69B9042D442CE853A85EFE007
:105870004FBB3248938DF4FF2AC8AE89050A4247D0
:105880005285C2C23ADE4ED24EDAEF3060267257EF
:10589000CE863A86EFE0EFB897B6FF0F93868698EC
:1058A0009042D442EFD05FAD16483703C0FC2E9330
:1058B000631C0814725797B6FF0F93862697904281
:1058C000D4422AD2CE853A851AC8EF2010039258C6
:1058D00042432A8A46869A86AE89EF20406C634A04
:1058E000A05A42439258B7070080B3C76700468664
:1058F000BE865285CE85EF20607563490558A25754
:10590000B2593EC8764763440736B94763C19736F4
:1059100013973400974700009387C702BA9703AAEA
:10592000070083AA4700E24763D307266341702735
:10593000639E0B5497B7FF0F9387478F9043D443D1
:105940005285D685EFE0EFAD4247CE86814A3A8652
:10595000EF20E064014A6353055093071003930955
:105960001B002300FB008504F5A993F61D0091CED2
:1059700003260800832648003A85BE8542D2EFE020
:105980004FAA1258050A2A87AE8793DD1D402108C9
:1059900061B5094AE38D04E8B30D904093F7FD002B
:1059A00013973700974700009387C7F9BA97D443F6
:1059B00090432255B25593DD4D40EFE08FA6AA8764
:1059C0002AC8AE8917470000130747F5814663963A
:1059D0000D00E38E06E43EC891BD13F61D0019CA02
:1059E000544310433E853AD2EFE0AFA31257050A65
:1059F000AA87854693DD1D402107D1BFA68D5E880D
:105A0000BDBDA68D0148A5BD9307F8FF13973700CC
:105A100097470000938707F3BA979043D443B3079F
:105A20000B013EDED2472A8A9A89DDC797B7FF0F5E
:105A3000938747808843CC43EF1090635286CE868D
:105A4000EF20A06B2A8A2EDADA8992554245850921
:105A5000EF20D07DAAC2EF30A0092A86AE8642454B
:105A60009255EF2080699647D25652869387070356
:105A7000A38FF9FE2AC82ED2EF20405D634C050E9D
:105A800097A7FF0F93870779424692568843CC43E6
:105A9000EF20A066D2565286EF20405B6342051885
:105AA000F257E38EF9E497A7FF0F93872777904388
:105AB000D443D2555285EFE0CF9697A7FF0F938737
:105AC000E7752EDA90439255D4432A8A4245EFE097
:105AD0004F952AC82ED295BF9A85EFE08F94F25742
