:0200000480007A
:100000007370043073504030971100109381019D3C
:1000100017010110130101FF970200009382822B48
:100020007390523073F051301705000013054509E5
:10003000970500009385C5086300B5021776000098
:100040001306862763FAC5008322050023A0550006
:1000500011059105E3EAC5FE177500001305C525D6
:1000600097050010938505FA1386C18663FAC500CB
:100070008322050023A0550011059105E3EAC5FE82
:100080001385C186938581AC6377B5002320050075
:100090001105E36DB5FE252D17350000130525521A
:1000A000EF30E050EF30C054EF00B02801458145FB
:0A00B000EF00F042EF00103A01A04B
:1000BC00011122CE00102326A4FE93870189254727
:1000CC0098C3FD573E85724405618280011122CE92
:1000DC0000102326A4FE730050100100EDBF011187
:1000EC0022CE00102326A4FE2324B4FE0327C4FE34
:1000FC0085476307F7000327C4FE89476318F70099
:10010C00832784FE0967D8C3814731A0938701896F
:10011C00254798C3FD573E85724405618280411185
:10012C0022C6000885473E85324441018280011178
:10013C0022CE00102326A4FE85473E85724405611D
:10014C008280011122CE00102326A4FE2324B4FEAB
:10015C0093870189594798C3FD573E8572440561C1
:10016C008280011122CE00102326A4FE2324B4FE8B
:10017C002322C4FE81473E857244056182807971D9
:10018C0006D622D40018232EA4FC232CB4FC232A3C
:10019C00C4FC8327C4FD99C3FD5739A8832784FD6C
:1001AC002326F4FE37350110112EAA873E878327AC
:1001BC00C4FE2380E70085473E85B250225445613A
:1001CC008280011122CE00102326A4FE9707001076
:1001DC009387070098438327C4FE3E97938781AC8F
:1001EC006360F70297070010938787FE9843832775
:1001FC00C4FE3E9797F700109387076063F4E700FF
:10020C00FD5705A897070010938787FC9843832711
:10021C00C4FE3E9797070010938787FB98C39707F8
:10022C0000109387E7FA98438327C4FEB307F04086
:10023C00BA973E85724405618280797106D622D4C4
:10024C000018232EA4FC232CB4FC232AC4FC032565
:10025C00C4FDEF30F06FAA8799E3FD57B1A883274F
:10026C0084FD2324F4FE232604FE3DA8032784FEEC
:10027C008327C4FEBA9703C70700A9476316F70084
:10028C00B54537350110CD2A032784FE8327C4FEDC
:10029C00BA9783C70700BE8537350110F12A83272B
:1002AC00C4FE85072326F4FE0327C4FE832744FDE2
:1002BC00E36EF7FA832744FD3E85B2502254456124
:1002CC00828000005D7106C012C216C41AC61EC818
:1002DC002ACA2ECC32CE36D03AD23ED442DC46DEBE
:1002EC00F2C0F6C2FAC4FEC6F322103416D6F322BC
:1002FC00203416D8F322003016DA732520348A8580
:10030C004123B25273901234C25273902234D2529F
:10031C007390023082401242A2423243C243524591
:10032C00E245724682561257A2576258F258064E50
:10033C00964E264FB64F616173002030011122CECC
:10034C0000102326A4FE2324B4FE8327C4FE93B7F7
:10035C00170093F7F70F99C3FD5719A88327C4FE0D
:10036C00D84F832784FE5D8F8327C4FED8CF814767
:10037C003E85724405618280797122D60018232E45
:10038C00A4FC232CB4FC8327C4FD93B7170093F76C
:10039C00F70F99C3FD5799A897070010938787E328
:1003AC009843832784FDB357F702FD172326F4FEE9
:1003BC008327C4FD13070008D8C78327C4FEA18375
:1003CC0013F7F70F8327C4FDD8C38327C4FE13F795
:1003DC00F70F8327C4FD98C38327C4FD1307600C54
:1003EC0098C78327C4FD0D47D8C781473E85325433
:1003FC0045618280011122CE00102326A4FE232405
:10040C00B4FE8327C4FE93B7170093F7F70F99C375
:10041C00FD5725A08327C4FEDC4713F7B7FF8327BE
:10042C00C4FED8C78327C4FED847832784FE8A0717
:10043C005D8F8327C4FED8C781473E857244056112
:10044C008280011122CE00102326A4FE8327C4FE35
:10045C0093B7170093F7F70F99C3FD5711A883278C
:10046C00C4FEDC4713F777FF8327C4FED8C7814748
:10047C003E85724405618280011122CE0010232634
:10048C00A4FEAE87A305F4FE8327C4FE93B7170022
:10049C0093F7F70F99C3FD5731A801008327C4FECA
:1004AC00DC4B93F70702FDDB0347B4FE8327C4FE46
:1004BC0098C381473E85724405618280797122D64A
:1004CC000018232EA4FC8327C4FD93B7170093F7C1
:1004DC00F70F81C79307F00F05A001008327C4FD18
:1004EC00DC4B858BE5DF8327C4FD9C432326F4FE80
:1004FC008327C4FE93F7F70F3E8532544561828003
:10050C00011122CE00102326A4FEAE87A305F4FE13
:10051C008327C4FE93B7170093F7F70F99C3FD57C2
:10052C0025A80347B4FE8D4763F5E7008D47A30567
:10053C00F4FE8327C4FE9C4713F7F7F38327C4FE0E
:10054C0098C78327C4FE9C470347B4FE1A075D8FE8
:10055C008327C4FE98C781473E857244056182801B
:10056C00011122CE00102326A4FE8327C4FE93B7CC
:10057C00170093F7F70F99C3FD5711A88327C4FEF3
:10058C00DC4313E717008327C4FED8C381473E859D
:10059C00724405618280397106DE22DC26DA800025
:1005AC002326A4FC216681462324C4FE2326D4FEE4
:1005BC0037060002B166B29603A686FF83A6C6FF75
:1005CC002322C4FE37060002B166B29603A686FF4C
:1005DC0083A6C6FF2320C4FEF32600B0B680868611
:1005EC00232ED4FC032604FE832644FEE30CD6FC07
:1005FC0037060002B166B29603A686FF83A6C6FF35
:10060C00832604FEB306D640232CD4FCF32600B07C
:10061C00B68006868326C4FDB306D640232AD4FCB6
:10062C00032684FD8326C4FCE364D6FC032644FD28
:10063C00832684FD3356D602832684FEB304D60269
:10064C00032644FD832684FDB376D6023687814784
:10065C00832684FE3386F6028326C4FEB386E60226
:10066C003696832684FEB385E602B3B8E6022E885E
:10067C00B3071601BE88832784FD3E8381431A8607
:10068C009E864285C685EF00B0312A87AE87BA8731
:10069C00A6973E85F2506254D2542161828001119A
:1006AC0006CE22CC00100545FD3513054006E53578
:1006BC002326A4FE8327C4FE3E85F24062440561D6
:1006CC008280411122C6000897070010938787B0DB
:1006DC0037B7C4041307074098C3010032444101E3
:1006EC008280011106CE22CC00102326A4FE2324E6
:1006FC00B4FE176500001305A54AEF30D0238325FF
:10070C00C4FE176500001305E54AEF303011F327DE
:10071C001034BE808687BE85176500001305854A98
:10072C00EF30D00FF3273034BE808687BE85176537
:10073C0000001305254AEF30700E01A0011106CE02
:10074C0022CC00102326A4FE2324B4FE176500003F
:10075C0013054549EF30301E8325C4FE1765000094
:10076C0013054545EF30900BF3271034BE80868778
:10077C00BE85176500001305E544EF30300AF327FA
:10078C003034BE808687BE8517650000130585440E
:10079C00EF30D0080100F240624405618280011103
:1007AC0022CE0010232604FE0DA01707000013070D
:1007BC0087F39386018A8327C4FE8A07B69798C36A
:1007CC008327C4FE85072326F4FE0327C4FEA9470E
:1007DC00E3DDE7FC01000100724405618280011138
:1007EC0022CE0010232604FE0DA0170700001307CD
:1007FC0027F59386C18C8327C4FE8A07B69798C3C6
:10080C008327C4FE85072326F4FE0327C4FEC147B5
:10081C00E3DDE7FC232604FE0DA0170700001307F9
:10082C0027F2938601918327C4FE8A07B69798C353
:10083C008327C4FE85072326F4FE0327C4FEA547A1
:10084C00E3DDE7FC010001007244056182800111C7
:10085C0022CE00102326A4FE2324B4FE0327C4FEBC
:10086C00C54763EBE7001387C18C8327C4FE8A0757
:10087C00BA97032784FE98C30100724405618280F5
:10088C00397106DE22DC26DA80002326A4FC232420
:10089C00B4FC8327C4FC63DC070C232604FE03276B
:1008AC00C4FC8567FD17F98F2324F4FE032784FE0F
:1008BC00AD476319F708F32740F1BE84A6872322BE
:1008CC00F4FE832744FE1397C700B707200C91074B
:1008DC00BA972320F4FE832704FE9C432324F4FEC2
:1008EC00032784FEC14763E2E7081387C18C832783
:1008FC0084FE8A07BA979C432326F4FE8327C4FE02
:10090C0081CB8327C4FE832584FC0325C4FC8297FA
:10091C00832784FE232EF4FCF32740F1BE84A687A4
:10092C00232CF4FC832784FD1397C700B707200CF6
:10093C009107BA97232AF4FC832744FD0327C4FDAF
:10094C0098C325A013870191832784FE8A07BA9741
:10095C009C432326F4FE8327C4FE81CB8327C4FE4D
:10096C00832584FC0325C4FC8297814739A0832509
:10097C0084FC0325C4FC0128AA873E85F2506254EE
:10098C00D25421618280797106D622D40018232E8C
:10099C00A4FC232CB4FC0327C4FD8567FD17F98F39
:1009AC002324F4FE032784FEA94763ECE700138796
:1009BC00018A832784FE8A07BA979C432326F4FE78
:1009CC0039A097070000938707D22326F4FE8327CC
:1009DC00C4FE81CB8327C4FE832584FD0325C4FD7F
:1009EC00829781473E85B2502254456182804111E5
:1009FC0006C622C40008176600001306E61F97659A
:100A0C000000938525201765000013056520EF3045
:100A1C00E06097650000938525221765000013059B
:100A2C00E521EF30A05F97F7FF0F9387A77A9C43E0
:100A3C00BE85176500001305A521EF30205E01006F
:100A4C00B240224441018280397106DE22DC26DA72
:100A5C0080002326A4FCAE872322C4FCA305F4FC4F
:100A6C000327C4FCC14763F4E700FD577DA083470F
:100A7C00B4FC0327C4FC2326E4FE2324F4FE8327C2
:100A8C00C4FE13972700B707000CBA972322F4FE75
:100A9C00832744FE032784FE98C30100832744FC6C
:100AAC0099C7832744FCBE850325C4FC4D3383279B
:100ABC00C4FC2320F4FEF32740F1BE84A687232E2A
:100ACC00F4FC8327C4FD13977700832704FE9583DA
:100ADC008A073E97B727000CBA97232CF4FC832780
:100AEC0084FD9C43232AF4FC832704FEFD8B0547DD
:100AFC00B317F7003E87832744FDD98F232AF4FCD4
:100B0C00832784FD032744FD98C3010085679384E4
:100B1C00078073A04430010081473E85F250625437
:100B2C00D25421618280397106DE22DC26DA800003
:100B3C00BD362A8797F7FF0F9387C76998C3B70508
:100B4C00030037250110EFF06FFFF1679385072045
:100B5C0037350110EFF05F82593D91314931C5476E
:100B6C002326F4FE232404FE61A8832784FE23227B
:100B7C00F4FEF32740F1BE84A6872320F4FE8327DE
:100B8C0004FE13977700832744FE95838A073E97CC
:100B9C00B727000CBA97232EF4FC8327C4FD9C4383
:100BAC00232CF4FC832744FEFD8B0547B317F70079
:100BBC0093C7F7FF3E87832784FDF98F232CF4FC22
:100BCC008327C4FD032784FD98C30100832784FE7B
:100BDC00232AF4FC232804FC832744FD13972700C5
:100BEC00B707000CBA972326F4FC8327C4FC032711
:100BFC0004FD98C30100832784FE85072324F4FE9B
:100C0C000327C4FE832784FEE3E1E7F6232404FCD8
:100C1C00F32740F1BE84A6872322F4FC832744FCEF
:100C2C001397C700B707200CBA972320F4FC83272F
:100C3C0004FC032784FC98C3010001000100F2505E
:100C4C006254D25421618280011122CE00102326DD
:100C5C00A4FE0100724405618280411122C6000885
:100C6C000100324441018280411122C6000801007A
:100C7C00324441018280411106C622C426C20008BA
:100C8C00F1679385072037350110EFF0EFEE8545BE
:100C9C0037350110EFF00FF637350110EFF06FFA22
:100CAC00170600001306463885450D45713B373550
:100CBC0001107D30814537350110EFF07F84A14460
:100CCC0073A0043001000100B2402244924441015F
:100CDC008280357106CF22CD4ACB4EC952C756C53C
:100CEC005AC35EC1E2DEE6DCEADAEED80011613707
:100CFC0089472316F4F8938781932328F4F897F700
:100D0C00FF0F9387674D232AF4F897F7FF0F93870C
:100D1C00A72E232CF4F89387D18883C70700638709
:100D2C0007109387E18803C707009387F188238016
:100D3C00E700A9472326F4FCE9A89387E18883C739
:100D4C000700FD1713870199BA9783C70700A30102
:100D5C00F4FC9387E18883C70700F917138701997F
:100D6C00BA9783C707002301F4FC9387E18883C7F4
:100D7C000700F51713870199BA9783C70700A300DB
:100D8C00F4FC9387E18883C70700F1171387019957
:100D9C00BA9783C707002300F4FC834734FC232E47
:100DAC00F4FA834724FC232CF4FA834714FC232AFB
:100DBC00F4FA834704FC2328F4FA832744FB1397A3
:100DCC008700832704FB5D8F832784FBC2075D8F1D
:100DDC008327C4FBE207D98F232EF4F81307C4F939
:100DEC008327C4FCFD171843938601A18A07B69785
:100DFC0098C39387E18883C70700F11713F7F70FA0
:100E0C009387E1882380E7008327C4FCFD17232602
:100E1C00F4FC8327C4FCE342F0F29387C1880547B6
:100E2C002380E7009387D188238007009387C188AC
:100E3C0083C70700E38107EE232404FC25A813874E
:100E4C0001A1832784FC8A07BA979C433E85EF2037
:100E5C0020682A87AE873A86BE86832584FC176570
:100E6C000000130565E0EF30601B832784FC8507C9
:100E7C002324F4FC032784FCA547E3D2E7FCF327E7
:100E8C0000B8BE8086872324F4F8F32700B0BE8018
:100E9C0086872322F4F8F32700B8BE8086872320A8
:100EAC00F4F8032784F8832704F86308F700F32782
:100EBC0000B0BE8086872322F4F8832704F823240D
:100ECC00F4F6232604F6832784F6939A0700014A46
:100EDC00832744F83E8C814CB3678A012320F4FAB3
:100EEC00B3E79A012322F4FA032704FA832744FA7E
:100EFC009386018798C2DCC29387818823A0070060
:100F0C009307C4F8A94613868196938501A13E8563
:100F1C00B52AF32700B8BE808687232EF4F6F32774
:100F2C0000B0BE808687232CF4F6F32700B8BE8071
:100F3C008687232AF4F60327C4F7832744F763082C
:100F4C00F700F32700B0BE808687232CF4F68327A6
:100F5C0044F73E8D814D93190D000149832784F789
:100F6C003E8B814BB36769012324F4FAB3E7790113
:100F7C002326F4FA032784FA8327C4FA93868187FD
:100F8C0098C2DCC2938781879843DC4393860187A0
:100F9C008842CC423306A740328833380701B386E7
:100FAC00B740B3870641BE863287B68793860188E1
:100FBC0098C2DCC2938701889843DC433A86BE868C
:100FCC0097650000938545CB17650000130545CC4C
:100FDC00EF30C004232204FC25A8138781968327B5
:100FEC0044FC8A07BA979C433E85EF20604E2A87C3
:100FFC00AE873A86BE86832544FC17650000130530
:10100C0025CAEF30A001832744FC85072322F4FC7A
:10101C00032744FCA547E3D2E7FC9387C1882380D0
:10102C000700D5B9011106CE22CC001037350110BE
:10103C00EFF0CFC8AA87A307F4FE9387E18883C794
:10104C0007003E8793870199BA970347F4FE2380E4
:10105C00E7009387E18883C70700850713F7F70F2D
:10106C009387E1882380E7009387E18803C7070013
:10107C00930780026317F7009387D1880547238075
:10108C00E7000100F2406244056182801D71CAC80C
:10109C00DAC086CEA2CCA6CACEC6D2C4D6C25EDE7A
:1010AC0062DC66DA6AD86ED636CE2EC2032B4500C9
:1010BC0003590500CDC6B68714455845B28A36CCBF
:1010CC00931629003AC6369736C83ACA3EC4DA890E
:1010DC00924791073EC203ADC7FF630E090A324423
:1010EC00624CCA84CE8C930D000083AB0C00032A97
:1010FC000C001104DE855285EF107068AA856A8594
:10110C00EF20E009AA852A8D5285EF105067DE8505
:10111C00EF10B0348325C4FFAA8BFD14EF1030669A
:10112C00AA856E85EF10703323A07C01110C910CF5
:10113C00AA8DC5FCC247D2463384F9008C426A851D
:10114C00910AEF10D063EE85EF103031A2472320C7
:10115C00A40123AEAAFEFD173EC49109B5FBF247CC
:10116C008A07DA97630A090098437D1991072320AF
:10117C00EB00110BE31A09FEF6406644D6444649CF
:10118C00B649264A964A064BF25B625CD25C425DDB
:10119C00B25D25618280B2464E84930D000079BF0A
:1011AC00AA88AE8732883685468363960620976672
:1011BC0000009386A6BB63FFC50A41676375E60A08
:1011CC001307F00F3337C7000E073355E600AA9606
:1011DC0083C60600130500023697B306E540630B81
:1011EC00E500B395D70033D7E8003318D600D98D76
:1011FC003393D80093580801B3D61503131608017E
:10120C0041829357030133F715033685B305D60294
:10121C004207D98F63FCB700C2971385F6FF63E7CB
:10122C00070163F5B7001385E6FFC2978D8F33F77F
:10123C001703420313530301B3D717034207336356
:10124C006700B306F6023E86637BD3004293138697
:10125C00F7FF636603016374D3001386E7FF42054F
:10126C00518D81455DA8370500014147E36FA6F418
:10127C006147A1BF01E605473358C7024167637F49
:10128C00E8081307F00F6373070121453357A800D3
:10129C00BA9603C70600130600022A97B306E64067
:1012AC006315E608B3870741854593580801131663
:1012BC000801418213570301B3F61703B3D7170381
:1012CC00C206558F330EF6023E85637CC7014297EA
:1012DC001385F7FF636707016375C7011385E7FF84
:1012EC0042973307C741B3771703420313530301E4
:1012FC0033571703C20733E36700B306E6023A8697
:10130C00637BD30042931306F7FF63660301637498
:10131C00D3001306E7FF4205518D82803707000189
:10132C004145E365E8F6614595B73318D80033D5E8
:10133C00E7003393D800B397D70033D7E80093581E
:10134C0008013366F7003377150393170801C1833F
:10135C00935506013355150342074D8FB386A702EB
:10136C00AA85637CD70042979305F5FF6367070155
:10137C006375D7009305E5FF4297B306D74033F763
:10138C00160342064182B3D6160342073385D702B1
:10139C00B367C700368763FCA700C2971387F6FFB5
:1013AC0063E7070163F5A7001387E6FFC297C20541
:1013BC00898FD98DDDBD63E2D514416763FFE602E9
:1013CC001307F00FB335D7008E0533D5B60017676A
:1013DC0000001307A7992A9703470700130500027B
:1013EC002E97B305E5406311E5020545E3E7F6F2F8
:1013FC0033B5C800134515000DB737070001C145BB
:10140C00E3E5E6FCE145D1B73358E600B396B60008
:10141C003368D80033D3E700935E0801B376D30367
:10142C00B397B70033D7E800331EB6003366F70026
:10143C0093170801C183135706013353D303C20614
:10144C00558F338F67021A85637CE701429713052A
:10145C00F3FF636707016375E7011305E3FF429729
:10146C003307E741B376D7033357D703C206338329
:10147C00E70293170601C183D58F3A8663FC670098
:10148C00C2971306F7FF63E7070163F567001306BE
:10149C00E7FFC2974205C16E518D9386FEFF13562E
:1014AC000E0113580501B38767403373D500B3762B
:1014BC00DE00330ED302B306D80213570E013303EA
:1014CC00C30236931A973308C8026373D700769811
:1014DC0093560701369863E00703E39407D9C16775
:1014EC00FD177D8F4207337EFE00B398B8007297CC
:1014FC008145E3F4E8E27D15ADB38145014531BD8D
:10150C00370810007D180111B377B80013D74501C7
:10151C003378D80013D3460122CC8E071374F77F8F
:10152C001357D5010E0826CAD98F93D4F50113573A
:10153C00D6011373F37F06CE4AC84EC6FD823367BD
:10154C000701931535000E06330864406398D422C6
:10155C006353000F63180302B366C7006383065816
:10156C001305F8FF09E92E963335B600BA97AA97FA
:10157C00B2850544B9A89306F07F631DD800130407
:10158C00F07F4DA29306F07F630ED418B70680004F
:10159C00558F42859306800363CBA608FD4663C234
:1015AC00A606130800023308A840B3160701B35867
:1015BC00A60033160601B3E616013336C000558E6D
:1015CC003357A7002E963335B6003E97B307A700C6
:1015DC00B285370780007D8F630607140504130757
:1015EC00F07F630DE448370780FF7D17F98F13F503
:1015FC00150013D71500598D9395F701C98D858367
:10160C0015A2930605FE93080002B356D7000148B5
:10161C0063081501130800043305A8403318A7000C
:10162C003366C8003336C000558E014761BF598EF2
:10163C003336C000DDBF630B080A330583400DE46D
:10164C00B3E6B700638306429306F5FF99E6B295BD
:10165C00BA9733B6C500B29729BF1308F07F631D44
:10166C000501BA87B28521BF9306F07FE30BD3FE49
:10167C00B7068000D58FAA86130580036343D50671
:10168C007D45634BD502130800023308D8403395CF
:10169C000701B3D8D500B395050133651501B335F2
:1016AC00B0004D8DB3D7D700B305C500BA9733B68C
:1016BC00C500B2971A8431BF138506FE9308000249
:1016CC0033D8A70001456387160113050004158D57
:1016DC003395A7004D8D3335A0003365A8008147A5
:1016EC00E1B733E5B7003335A000D5BF930614003E
:1016FC0013F5E67F3DE1B3E6B70029E4638B0636CC
:10170C00B366C70085C22E96BA973335B600AA9732
:10171C00370780007D8FB28511C7370780FF7D1793
:10172C00F98F054413F77500630C073413F7F500B4
:10173C0091466307D734138745003335B700AA9712
:10174C00BA853DAE99DE598EE30B06E28144B707AC
:10175C00400081451304F07F25A61305F07F638DAF
:10176C00A6302E963335B600BA97AA971395F70183
:10177C000582B365C500858336846DB76356000D4D
:10178C0063110308B366C700638D06341305F8FFB5
:10179C0011E93386C54033B5C500998F898FB28561
:1017AC000544B1A09306F07FE30BD8DC93068003CD
:1017BC0063C8A608FD4663CFA604130800023308CD
:1017CC00A840B3160701B358A60033160601B3E6BA
:1017DC0016013336C000558E3357A7003386C540EB
:1017EC0033B5C5003387E740B307A740B285370947
:1017FC00800033F727011DD77D1933F92701AE89F6
:10180C005DAA9306F07FE30FD4F0B7068000558FE6
:10181C00428569BF930605FE93080002B356D700B4
:10182C00014863081501130800043305A840331858
:10183C00A7003366C8003336C000558E014779BF08
:10184C00598E3336C000DDBF6305080C3305834069
:10185C001DE833E8B700630808281308F5FF631B7D
:10186C000800B305B640B307F7403336B600918F86
:10187C00B6843DB79308F07F63101503BA87B28521
:10188C001304F07F7DA01308F07FE30903FF3708F2
:10189C008000B3E707012A88130580036346050718
:1018AC007D45634D050393080002B38808413395C9
:1018BC00170133DE0501B39515013365C501B33549
:1018CC00B0004D8DB3D70701B305A640B307F74061
:1018DC003336B600918F1A84B68411BF130508FEF7
:1018EC00130E0002B3D8A70001456308C801130505
:1018FC000004330505413395A7004D8D3335A00009
:10190C0033E5A8008147C9B733E5B7003335A000EC
:10191C00D5BF130514001375E57F25E933E8B7002F
:10192C003365C70021E8631808006302051CBA87F9
:10193C00B285B684C5BBE30705DE3388C540B3B8B2
:10194C0005013385E74033051541B7088000B378AE
:10195C001501638A0800B305B640B307F740333668
:10196C00B600918FF9B7B365A80063860518AA87EE
:10197C00C2854DBB6318080063010518BA87B28590
:10198C00B684F5BEE30D05BED1B3B389C54033B5FE
:10199C0035013389E7403309A94037058000337599
:1019AC00A90025C9B309B640B307F7403336360151
:1019BC003389C740B684630409064A85EF10B03AF0
:1019CC00130785FFFD4763C2E70693070002998F53
:1019DC003319E900B3D7F900B3E72701B395E90050
:1019EC00634F8706018F930617007D466345D60427
:1019FC0013070002158F3396E70033D5D500B39546
:101A0C00E500498EB335B000D18DB3D7D700014472
:101A1C0011BBB3E52901C5F181470144D9A84E8515
:101A2C00EF1070341305050261BF930785FDB39762
:101A3C00F900814575B705171306000233D7E70087
:101A4C0001456387C60013050004158D3395A70067
:101A5C004D8D3335A000B365A70081474DBF198C60
:101A6C00370780FF7D17F98F75B9BA87B2852A843D
:101A7C0055B9BA87B2857DB11304F07F8147814592
:101A8C00370780007D8F11CB05041307F07F630BA4
:101A9C00E406370780FF7D17F98F1397D70113D50D
:101AAC003500598D1307F07F8D836319E4005D8D2C
:101ABC00814709C5B7070800014581441317440144
:101ACC00B706F07FB207F2406244758FB183FE0413
:101ADC00D98F33E797004249D244B249BA850561A0
:101AEC008280428481B1BA87B2852A8499B58147B4
:101AFC008145814471B78147EDBF81458144B7076A
:101B0C00400089B98147814549BF79714AD013D9C1
:101B1C00450126D24ECE52CC5AC862C49394C5000D
:101B2C0006D622D456CA5EC61379F97F2A8A328B1E
:101B3C00368CB18093D9F501630409089307F07FC3
:101B4C00630AF90C935AD5018E04B3E49A00B70AD0
:101B5C008000B3EA540113143500130919C0814BEA
:101B6C001315CC009354C50013554C019375F57F98
:101B7C00135CFC01F9C19307F07F638BF51013958F
:101B8C0034009357DB015D8DB7048000C98C931F23
:101B9C003B00138515C0814713972B005D8F7D1774
:101BAC003946B3C68901B305A9406365E6101756DB
:101BBC000000130666100A07329718433297028703
:101BCC00B3EAA40063820A069DC82685EF10B019FB
:101BDC00930755FF71476349F702F54A130485FFD4
:101BEC00B38AFA40B3948400B35A5A01B3EA9A0008
:101BFC0033148A009305D0C03389A5408DB7EF10FC
:101C0C00901613050502E9B7930485FDB31A9A00E3
:101C1C000144CDB7B3EAA400638C0A002A84A68AD7
:101C2C001309F07F8D4B2DBF01440149854B0DBF2E
:101C3C0001441309F07F894B25B7B3EF640163822C
:101C4C000F069DC82685EF101012AA85938755FFA5
:101C5C0071476349F702F546938F85FF9D8E339547
:101C6C00F401B356DB00B3E4A600B31FFB019306EB
:101C7C00D0C03385B64005B75A85EF10D00E93050A
:101C8C000502E9B7138585FDB314AB00814FC5B7C9
:101C9C00B3EF6401638B0F00DA8F1305F07F8D4770
:101CAC00E5BD814401458547C5BD81441305F07FE1
:101CBC008947DDB563E6540163969A2A6364F42B75
:101CCC001396FA01135714009317F40193DA1A00C0
:101CDC003364E6001395840093D88F01B3E8A80011
:101CEC00418133DEAA02939E080193DE0E01135745
:101CFC00040113938F00B3FAAA0272863388CE03C1
:101D0C00C20A33675701637C070146971306FEFF2F
:101D1C0063671701637507011306EEFF46973307D8
:101D2C000741335EA702420441803377A702F28257
:101D3C003388CE034207418F637C07014697930299
:101D4C00FEFF63671701637507019302EEFF469769
:101D5C003304074142064168B3625600130EF8FF84
:101D6C0013D6020133F7C201135F0301337EC301A3
:101D7C00B303EE02B304C6033307EF02B30FE6035B
:101D8C003306970013D70301329763739700C29FF2
:101D9C00135607017E96C16FFD1F3378F701420879
:101DAC00B3F3F3011E986367C4009684631EC402E8
:101DBC0063FC07039A9733B7670046973A9493846A
:101DCC00F2FF63E688006391880263EF6700636645
:101DDC00C400631B860063F907019A9733B7670049
:101DEC0046979384E2FF3A9433880741118CB3B73A
:101DFC0007011D8CFD5F6387880EB35FA402135728
:101E0C0008013374A4027E86B387FE034204598C06
:101E1C00637CF40046941386FFFF636714016375BB
:101E2C00F4001386EFFF46941D8C3357A40242082E
:101E3C00135808013374A402BA87B38EEE0242041D
:101E4C0033648800637CD40146949307F7FF63677F
:101E5C0014016375D4019307E7FF469442065D8E27
:101E6C0093170601C183135706013308EF0233049D
:101E7C00D441330FFF02B38EC703330EC70393D77E
:101E8C000E01729FFA9763F4C70141673A9813D712
:101E9C000701429741687D1833F507014205B3FEEF
:101EAC000E0176956366E400631FE418B28F1DC9BA
:101EBC004694930FF6FF636114036366E4006313A7
:101ECC00E418637DA3009317130033B367009A984B
:101EDC00930FE6FF46943E836314E40063046500AD
:101EEC0093EF1F009387F53F635BF00A13F77F00B6
:101EFC0001CF13F7FF0011466308C70013864F008C
:101F0C00B33FF601FE94B28F37070001658F19C7F6
:101F1C00B70700FFFD17FD8C938705401307E07F83
:101F2C006342F70693DF3F001397D4013367F70141
:101F3C0013D53400D2073706F07F3205B250225445
:101F4C00F18F31815D8DFE06B367D5009254025935
:101F5C00F249624AD24A424BB24B224C3A85BE8578
:101F6C0045618280FD158147B5B3CE86D684A28F9C
:101F7C00DE870D47638AE70A0547638EE70A094740
:101F8C00E392E7F6014501479307F07F65B7E286D8
:101F9C00CDB7B7040800814F81468D47D9BF0545A1
:101FAC001D8D130780036348A7087D476349A70469
:101FBC009385E541B397B40033D7AF00B395BF0019
:101FCC00D98FB335B000CD8F33D5A40013F777007C
:101FDC0001CF13F7F70011466308C70013874700BA
:101FEC00B337F7003E95BA8737078000698F39E71A
:101FFC001317D5018D835D8F0D81814725BF055743
:10200C00B307F74013060002B3D7F4000147630689
:10201C00C5001387E5433397E4003367F701333783
:10202C00E000D98F01455DB73705080001479307DC
:10203C00F07F814601B701450147C1B70145014712
:10204C008547CDBD7E86B28F61BD13D74501B707DD
:10205C001000FD1713D846012A83AA8E1377F77F39
:10206C001305F07FB3F8B700328FF58FFD8113782D
:10207C00F87FFD82631AA70033EE680005456314F0
:10208C000E006305E80082806315A8005D8E05458F
:10209C007DFA0545E31907FFE397F8FEE395EEFF9C
:1020AC006388D5006DF333E568003335A00082807A
:1020BC0001458280370710007D1713D84501B3788E
:1020CC00B700AA872A831378F87F13D5F501930EEE
:1020DC00F07F93D54601758F328E93F5F57FFD8297
:1020EC006318D801B3EEF80063840E0609458280AC
:1020FC006396D501B36EC700E39A0EFE631C080409
:10210C00B3E7F80093B7170099E1598E0DCE81EB28
:10211C006314D50063D905010DC57D5582807D55AD
:10212C0091C6368582806354B80065D98280E36598
:10213C0017FF639CE800E3616EFEE368C3FF014593
:10214C00828005458280E5FFC1BFE3E0E8FEC5BFA4
:10215C00E38205FBD5FD81474DBF79714ECE93D9F6
:10216C00450122D426D252CC56CA5EC69394C500E1
:10217C0006D64AD05AC893F9F97F2A84B28BB68A0C
:10218C00B18013DAF501638109089307F07F638549
:10219C00F90C9357D5018E04DD8CB7078000DD8CCC
:1021AC0013193500938919C0014B13D54A011394A7
:1021BC00CA001375F57F318093DAFA0161C1930778
:1021CC00F07F6305F51093D7DB010E045D8CB70728
:1021DC0080005D8C130515C093973B000147931647
:1021EC002B00D98E4E95FD16394833465A0193056E
:1021FC001500636ED80E175500001305A5AF8A069F
:10220C00AA969442AA96828633E9A400630F090425
:10221C008DC82685EF102035130755FFF14763C78E
:10222C00E702F547130985FF998FB3942401B3573F
:10223C00F400DD8C331924019309D0C0B389A94073
:10224C00A5B7EF10403213050502F9B7930485FDCD
:10225C00B31494000149CDB733E9A400630B090012
:10226C002A899309F07F0D4B89B781448149054B2D
:10227C002DBF81449309F07F094B05BFB3677401EF
:10228C00B1CF0DC82285EF10002E930655FFF147F4
:10229C0063C8D7027547930785FF158F3314F40075
:1022AC0033D7EB00598CB397FB001307D0C0330521
:1022BC00A7402DB75E85EF10002B13050502F1B773
:1022CC00130485FD33948B008147C5B7B367740144
:1022DC0091CBDE871305F07F0D4711B70144014503
:1022EC000547F5BD01441305F07F0947CDBD416F8E
:1022FC00930EFFFF1357090193D807013379D901C6
:10230C00B3F7D70133882803B306F902B30FF702EA
:10231C003303F80113D806011A98330E17036373AD
:10232C00F8017A9E935308013378D801B3F6D6019D
:10233C00135F0401B372D40142083698B30E5702EE
:10234C00B306590233092F033303D90113D90601FC
:10235C001A993307E7036374D90141631A97935EA3
:10236C000901C169BA9E1387F9FF3379E900F98E27
:10237C0013D404014209F98C338797023699CA9316
:10238C003303F402B3869802B3878802B3886600DD
:10239C0093560701C69663F36600CE9793D8060151
:1023AC00C169B38FF8009387F9FFB3889202FD8E51
:1023BC007D8FC206BA96B3075402B3049F0233034F
:1023CC008F02BE9413D40801A29463F3F4004E93CD
:1023DC00C167FD1733F7F400B3F8F80042071E9EEF
:1023EC00469733392E01769733042701369EB33640
:1023FC00DE00B308F401338FD8003337D701333400
:10240C002401598CC180B3B8F801B336DF0026948F
:10241C00B3E6D80036941A9493577F0126045D8C4A
:10242C0093179E00B3E70701B337F000135E7E01EC
:10243C0013179F00B3E7C701D98F37070001618FCE
:10244C004DCB13D71700858BD98F1317F401D98F68
:10245C0005809386F53F6350D00A13F7770001CFC0
:10246C0013F7F70011456308A70013874700B3372C
:10247C00F7003E94BA8737070001618F19C73707F9
:10248C0000FF7D17798C938605401307E07F634E20
:10249C00D70E13D737009317D401D98F0D8013970C
:1024AC0046013204B706F07F758F3180598C7E0659
:1024BC00B2503367C400225492540259F249624A12
:1024CC00D24A424BB24B3E85BA85456182805286D8
:1024DC002684CA875A8789466309D70A8D46630FB3
:1024EC00D7088546E317D7F6014481479DA0568649
:1024FC00DDB7AA85B9BF0545158D13078003E345E4
:10250C00A7FE7D476349A7049385E5413317B400C3
:10251C00B3D6A700B397B700558FB337F000D98F58
:10252C003354A40013F7770001CF13F7F70091464B
:10253C006308D70013874700B337F7003E94BA8778
:10254C0037078000618F39E71317D4018D83D98F3A
:10255C000D808146A9B70557158F13080002335714
:10256C00E4008146630605019385E543B316B40088
:10257C00D58FB337F000D98F01446DB737040800FD
:10258C0081479306F07F014619BF014481479306AA
:10259C00F07F31B701448147854611B737081000E9
:1025AC007D180111B377B80013D745013378D800E3
:1025BC0013D3460122CC8E071374F77F1357D50122
:1025CC0026CAD98F93D4F5011357D601931535002C
:1025DC000E0806CE4AC84EC61373F37F1305F07F60
:1025EC00FD82336707010E066315A3003365C70030
:1025FC0019E193C61600330864406398962263531E
:10260C00000F63180302B366C700638306581305F3
:10261C00F8FF09E92E963335B600BA97AA97B2851A
:10262C000544B9A89306F07F631DD8001304F07F0E
:10263C004DA29306F07F630ED418B7068000558F19
:10264C0042859306800363CBA608FD4663C2A606AB
:10265C00130800023308A840B3160701B358A600AC
:10266C0033160601B3E616013336C000558E3357C8
:10267C00A7002E963335B6003E97B307A700B28558
:10268C00370780007D8F6306071405041307F07F5E
:10269C00630DE448370780FF7D17F98F13F515009C
:1026AC0013D71500598D9395F701C98D858315A204
:1026BC00930605FE93080002B356D7000148630841
:1026CC001501130800043305A8403318A70033661E
:1026DC00C8003336C000558E014761BF598E333662
:1026EC00C000DDBF630B080A330583400DE4B3E67D
:1026FC00B700638306429306F5FF99E6B295BA9745
:10270C0033B6C500B29729BF1308F07F631D0501CE
:10271C00BA87B28521BF9306F07FE30BD3FEB706D1
:10272C008000D58FAA86130580036343D5067D45AB
:10273C00634BD502130800023308D84033950701C8
:10274C00B3D8D500B395050133651501B335B00089
:10275C004D8DB3D7D700B305C500BA9733B6C500B6
:10276C00B2971A8431BF138506FE9308000233D842
:10277C00A70001456387160113050004158D3395D9
:10278C00A7004D8D3335A0003365A8008147E1B714
:10279C0033E5B7003335A000D5BF9306140013F50D
:1027AC00E67F3DE1B3E6B70029E4638B0636B366FA
:1027BC00C70085C22E96BA973335B600AA9737074D
:1027CC0080007D8FB28511C7370780FF7D17F98F89
:1027DC00054413F77500630C073413F7F5009146A5
:1027EC006307D734138745003335B700AA97BA85EA
:1027FC003DAE99DE598EE30B06E28144B7074000EB
:10280C0081451304F07F25A61305F07F638DA63058
:10281C002E963335B600BA97AA971395F701058211
:10282C00B365C500858336846DB76356000D63119F
:10283C000308B366C700638D06341305F8FF11E96E
:10284C003386C54033B5C500998F898FB285054451
:10285C00B1A09306F07FE30BD8DC9306800363C82A
:10286C00A608FD4663CFA604130800023308A8404F
:10287C00B3160701B358A60033160601B3E61601CA
:10288C003336C000558E3357A7003386C54033B559
:10289C00C5003387E740B307A740B28537098000EE
:1028AC0033F727011DD77D1933F92701AE895DAAAE
:1028BC009306F07FE30FD4F0B7068000558F428566
:1028CC0069BF930605FE93080002B356D700014872
:1028DC0063081501130800043305A8403318A7003A
:1028EC003366C8003336C000558E014779BF598E08
:1028FC003336C000DDBF6305080C330583401DE88B
:10290C0033E8B700630808281308F5FF631B0800B9
:10291C00B305B640B307F7403336B600918FB68493
:10292C003DB79308F07F63101503BA87B285130483
:10293C00F07F7DA01308F07FE30903FF37088000C8
:10294C00B3E707012A8813058003634605077D4515
:10295C00634D050393080002B388084133951701B2
:10296C0033DE0501B39515013365C501B335B000F0
:10297C004D8DB3D70701B305A640B307F7403336E7
:10298C00B600918F1A84B68411BF130508FE130E7E
:10299C000002B3D8A70001456308C8011305000461
:1029AC00330505413395A7004D8D3335A00033E534
:1029BC00A8008147C9B733E5B7003335A000D5BFB0
:1029CC00130514001375E57F25E933E8B70033656B
:1029DC00C70021E8631808006302051CBA87B2859A
:1029EC00B684C5BBE30705DE3388C540B3B8050123
:1029FC003385E74033051541B7088000B3781501DE
:102A0C00638A0800B305B640B307F7403336B60007
:102A1C00918FF9B7B365A80063860518AA87C2859C
:102A2C004DBB6318080063010518BA87B285B684DC
:102A3C00F5BEE30D05BED1B3B389C54033B5350141
:102A4C003389E7403309A940370580003375A90065
:102A5C0025C9B309B640B307F7403336360133897D
:102A6C00C740B684630409064A85EF00D02F1307CC
:102A7C0085FFFD4763C2E70693070002998F331960
:102A8C00E900B3D7F900B3E72701B395E900634F29
:102A9C008706018F930617007D466345D6041307FE
:102AAC000002158F3396E70033D5D500B395E500BA
:102ABC00498EB335B000D18DB3D7D700014411BBCB
:102ACC00B3E52901C5F181470144D9A84E85EF0032
:102ADC0090291305050261BF930785FDB397F90093
:102AEC00814575B705171306000233D7E70001457A
:102AFC006387C60013050004158D3395A7004D8D13
:102B0C003335A000B365A70081474DBF198C37073B
:102B1C0080FF7D17F98F75B9BA87B2852A8455B9AC
:102B2C00BA87B2857DB11304F07F814781453707A1
:102B3C0080007D8F11CB05041307F07F630BE40637
:102B4C00370780FF7D17F98F1397D70113D5350001
:102B5C00598D1307F07F8D836319E4005D8D8147D8
:102B6C0009C5B70708000145814413174401B7068E
:102B7C00F07FB207F2406244758FB183FE04D98FA7
:102B8C0033E797004249D244B249BA850561828045
:102B9C00428481B1BA87B2852A8499B5814781452F
:102BAC00814471B78147EDBF81458144B70740002F
:102BBC0089B98147814549BF370710009307F7FF53
:102BCC0033F7B700D181F58F93F5F57FD1821308D8
:102BDC00F07F93F6F67F63950501498F054509EB68
:102BEC001307F07F01456395E600D18F3335F00074
:102BFC008280411106C622C426C229CD9357F541C5
:102C0C0033C4A7001D8C9354F5012285EF00B01539
:102C1C001307E041A947098F63C8A702AD47898F05
:102C2C005505B357F4003314A4002685B207520798
:102C3C00B1837E05D98FB24033E7A70022852244A9
:102C4C009244BA85410182805515B317A40026859C
:102C5C000144E9BF01478147E5BF370780004111B7
:102C6C007D17B377A70022C426C213547501935461
:102C7C00F50113D575016D8F1374F40F1375F50FE2
:102C8C0006C64AC0FD818E070E07B306A4406396A4
:102C9C00B412635CD00605E1630F07101386F6FFD0
:102CAC0001E6BA97054481A09305F00F639DB60029
:102CBC001304F00FC1A81306F00F6305C40C3706FC
:102CCC000004518F3686ED45854663CDC5009306CD
:102CDC000002918EB355C7003317D7003337E0008D
:102CEC00B3E6E500B697370700047D8F41CF0504A6
:102CFC001307F00F6309E4223707007E93F61700E1
:102D0C007D178583F98FD58FB5A8B1CAB3068540D9
:102D1C0001EC638407201386F6FF41D69305F00F70
:102D2C00639CB600BA8769B71306F00FE30CC5FEB7
:102D3C0037060004D18F3686ED45854663CDC50038
:102D4C0093060002918EB3D5C700B397D700B33763
:102D5C00F000B3E6F500B387E6002A8469B7930662
:102D6C00140013F6E60F31E20DE8638A071A19CB4B
:102D7C00BA97370700047D8F11C7370700FC7D1702
:102D8C00F98F054413F777006300071A13F7F70060
:102D9C009146630BD718910741AAC9D711DB81441F
:102DAC00B70700021304F00F41A21306F00F638A59
:102DBC00C616BA9785833684F1B76350D00629E5D9
:102DCC007DDB1386F6FF01E6998F05442DA0930554
:102DDC00F00FE38FB6ECED45854663CDC500930649
:102DEC000002918EB355C7003317D7003337E0007C
:102DFC00B3E6E500958F3709000433F7270159D363
:102E0C007D1933F92701F1A01306F00FE30CC4F67A
:102E1C0037060004518F36867DBFADC2B3068540A0
:102E2C0015E0638907141386F6FF09E6B307F7402C
:102E3C00AE8461BF1308F00F639E0601BA871304BA
:102E4C00F00FB9A01306F00FE30AC5FE3706000415
:102E5C00D18F36866D488546634DC80093060002B7
:102E6C00918E33D8C700B397D700B337F000B36651
:102E7C00F800B307D7402A84AE84B5BF930614007C
:102E8C0093F6E60F8DEE0DE491E7814451CFBA87AE
:102E9C00AE84CDBDE30807EEB386E74037060004E9
:102EAC00758EB307F7406DF68147B9CEB687D9BD9D
:102EBC00E39607EEE30507EEBA87AE84D5BB3389FC
:102ECC00E740B7060004B376D9009DCA3309F74032
:102EDC00AE844A85492D6D153319A90063488502C6
:102EEC00018D050513040002B357A9003305A44056
:102EFC003319A90033392001B3E72701014459B52F
:102F0C00E31909FC81470144814439A8B70700FC47
:102F1C00FD17098CB377F900B5B5BA8769BDBA87C7
:102F2C0095B51304F00F8147370700047D8F11CB43
:102F3C0005041307F00F6302E404370700FC7D1748
:102F4C00F98F1307F00F8D836316E40081C7B70761
:102F5C00400081443705807F5E04A607698CA583F9
:102F6C00B240C18F22441395F401024992445D8D05
:102F7C0041018280BA87368421BF8147D9B70111BC
:102F8C004AC81359750126CA4EC652C493149500EB
:102F9C0006CE22CC56C21379F90F2E8AA5809359EE
:102FAC00F501630709069307F00F630FF9068E040A
:102FBC00B7070004DD8C130919F8814A13557A01FF
:102FCC0013149A001375F50F2580135AFA0135C5A1
:102FDC009307F00F630FF5060E04B70700045D8C22
:102FEC00130515F8814713972A005D8F4A957D17B5
:102FFC00B945B3C649011306150063E5E5069745C7
:10300C0000009385E5D20A072E9718432E97028766
:10301C0095C02685892B9307B5FF1309A0F8B394A7
:10302C00F4003309A94051BF1309F00F894AD9D4D0
:10303C008D4A69B70149854A51B715C022852523A8
:10304C009307B5FF3314F4009307A0F83385A7401A
:10305C0051BF1305F00F894759D48D4769B7014506
:10306C00854751B7C1671383F7FF13D704019355F5
:10307C000401B3F4640033746400B308940233089D
:10308C0087023304B702B385950293D40801C29525
:10309C00AE9463F304013E94B3F76400C207B3F833
:1030AC006800C69713976700C1803337E000E98347
:1030BC002694D98F1A045D8CB7070008E18FB5C729
:1030CC009357140005885D8C1307F6076351E006CF
:1030DC009377740099C79377F40091456383B70095
:1030EC001104B7070008E18F99C7B70700F8FD175F
:1030FC007D8C130706089307E00F0D8063DDE70650
:10310C0001441307F00F85A8CE862684D68709477D
:10311C00E388E7FE0D47638BE7040547E396E7FA80
:10312C000144014789A8D286DDB72A8671BF85473D
:10313C00998F6D47E346F7FE1306E609B357F40083
:10314C003314C400333480005D8C9377740099C7BA
:10315C009377F40011476383E7001104B707000469
:10316C00E18F0D80DDDF0144054731A037044000BD
:10317C001307F00F81469317770126043707807FDA
:10318C00F98F25805D8C1395F601F240418D6244D8
:10319C00D2444249B249224A924A05618280370799
:1031AC00800041117D1713D67501B377A70022C497
:1031BC006D8F26C21354750106C64AC01376F60FDE
:1031CC009306F00F1374F40F9354F5018E07FD81E1
:1031DC000E076313D60019E393C51500B306C4405C
:1031EC0063969512635CD00605E2630F0710138695
:1031FC00F6FF01E6BA97054481A09305F00F639D95
:10320C00B6001304F00FC1A81306F00F6305C40C2D
:10321C0037060004518F3686ED45854663CDC500D3
:10322C0093060002918EB355C7003317D70033377E
:10323C00E000B3E6E500B697370700047D8F41CF79
:10324C0005041307F00F6309E4223707007E93F699
:10325C0017007D178583F98FD58FB5A8B1CAB30632
:10326C00864001EC638407209385F6FFC1D51305D6
:10327C00F00F639CA600BA8769B79305F00FE30CB7
:10328C00B6FEB7050004CD8FB6856D458546634DFA
:10329C00B500930600028D8E33D5B700B397D700D7
:1032AC00B337F000B366F500B387E600328469B734
:1032BC009306140013F6E60F31E20DE8638A071A41
:1032CC0019CBBA97370700047D8F11C7370700FC5D
:1032DC007D17F98F054413F777006300071A13F76E
:1032EC00F7009146630BD718910741AAC9D711DB98
:1032FC008144B70700021304F00F41A21306F00F2C
:10330C00638AC616BA9785833684F1B76350D006A4
:10331C0029E67DDB1386F6FF01E6998F05442DA087
:10332C009305F00FE38FB6ECED45854663CDC500F4
:10333C0093060002918EB355C7003317D70033376D
:10334C00E000B3E6E500958F3709000433F7270159
:10335C0059D37D1933F92701F1A01306F00FE30CB3
:10336C00C4F637060004518F36867DBFADC2B30656
:10337C00864015E0638907141385F6FF09E5B3074A
:10338C00F740AE8461BF1308F00F639E0601BA8745
:10339C001304F00FB9A01305F00FE30AA6FE3705CE
:1033AC000004C98F36856D488546634DA800930689
:1033BC000002898E33D8A700B397D700B337F0003B
:1033CC00B366F800B307D7403284AE84B5BF93061A
:1033DC00140093F6E60F8DEE0DE491E7814451CF86
:1033EC00BA87AE84CDBDE30807EEB386E740370657
:1033FC000004758EB307F7406DF68147B9CEB687DA
:10340C00D9BDE39607EEE30507EEBA87AE84D5BBCC
:10341C003389E740B7060004B376D9009DCA330957
:10342C00F740AE844A8581226D153319A900634893
:10343C008502018D050513040002B357A90033055D
:10344C00A4403319A90033392001B3E72701014403
:10345C0059B5E31909FC81470144814439A8B707E0
:10346C0000FCFD17098CB377F900B5B5BA8769BDB7
:10347C00BA8795B51304F00F8147370700047D8F89
:10348C0011CB05041307F00F6302E404370700FCAB
:10349C007D17F98F1307F00F8D836316E40081C736
:1034AC00B707400081443705807F5E04A607698C0E
:1034BC00A583B240C18F22441395F4010249924472
:1034CC005D8D41018280BA87368421BF8147D9B78F
:1034DC00135775011377F70F41119307170022C487
:1034EC0026C21314950006C693F7E70F2580935454
:1034FC00F5018DC793573400130707387604B207CC
:10350C005207B1831395F401D98FB24033E7A7006A
:10351C00228522449244BA854101828015EB814771
:10352C0079DC22858920A94763CEA700AD47898F16
:10353C0013075501B357F4003314E4001307903804
:10354C00098F75BF930755FFB317F4000144FDB7FE
:10355C00814719C493573400370708007604D98F74
:10356C001307F07F69BFC1676376F5029307F00F0D
:10357C00B3B7A7008E07130700021D8F3355F50054
:10358C00973700009387877E3E95034505003305EA
:10359C00A740828037070001C147E36EE5FCE14795
:1035AC00D9BFAA858146014601456F00D05741110C
:1035BC0022C426C217440000130444CF97440000D1
:1035CC009384C4CE058C06C6098411E4B24022440F
:1035DC009244410182807D1493172400A6979C434A
:1035EC008297E5B7411122C426C217440000130488
:1035FC00E4CB97440000938464CB818C4AC006C60C
:10360C00898401496315990217440000130404CA04
:10361C0097440000938484C9818C89840149631D7B
:10362C009900B240224492440249410182801C40DC
:10363C00050911048297F9B71C40050911048297FA
:10364C00F9BF797122D44AD052CC56CA5AC806D680
:10365C0026D24ECE3A8B2E8A32843689C28A0147C4
:10366C0063580600370700803344C7001307D002A5
:10367C002380E70093F4F8FD930760048D4663887C
:10368C00F4009307500489466393F4000509D68728
:10369C009308C100130881004A87D2852286EF0067
:1036AC00906293077004AA896395F40013761B004B
:1036BC0029CA93076004338B29016397F40203C76B
:1036CC00090093070003631EF700014681465285EB
:1036DC00A285EFE09F9711C50546B306264123A0AE
:1036EC00DA0083A70A003E9B014681465285A285DB
:1036FC00EFE0BF9511E15AC613070003B24763E22E
:10370C006703B2474257B2502254B38737411CC3A8
:10371C0092540259624AD24A424B4E85F249456153
:10372C0082809386170036C62380E700C1BF230032
:10373C00C500930725001307B00263D60500B30537
:10374C00B0401307D002A300E50025476352B7062B
:10375C0041111307F1003A88A9481303300633E6E8
:10376C001503BA867D1713060603A38FC6FE2E8695
:10377C00B3C51503E345C3FE9388E6FF93850503A4
:10378C00A30FB7FE3E864687636D0701014763654D
:10379C00180113071101158FBA973385A740410102
:1037AC0082808345070005070506A30FB6FEE9BF17
:1037BC00930700032301F500938505039307450048
:1037CC00A301B5003385A7408280197186DEA2DC87
:1037DC00A6DA2E84CAD8CED6D2D4D6D23A8ADAD0A9
:1037EC00DECEE2CC3289B689E6CAEAC8EEC6AA8435
:1037FC00EF10704F032C05006285EF005014032B63
:10380C00040002DC834A840113770B1083270A001F
:10381C00AA8B79CB138747002320EA009C4308101E
:10382C0098433AD0D8433AD298473AD4DC473ED65C
:10383C00EF30C01228C46CC4032AC40417D7FF0F7E
:10384C001307879A832C8404032D0700832D4700CC
:10385C0093171A0085836A86EE866685BE853ECEF2
:10386C00EFF08FB549EDF2476A86EE866685BE8528
:10387C00EFE05F846355A008014681466685D285DA
:10388C00EFE05F83635605009307D002A301F404B5
:10389C0093077004173A0000130A4A5D63F6570148
:1038AC00173A0000130ACA5C137BBBFF8D47232019
:1038BC0064011CC8014B4E87CA867018A2852685E8
:1038CC00F92EFD5C631395177D55F6506654D6544E
:1038DC004659B659265A965A065BF64B664CD64C48
:1038EC00464DB64D096182809D07E19B1387870089
:1038FC002320EA009843DC4338C47CC435BF668679
:10390C00D2866685D285EFF02FAB05C563560A00CB
:10391C009307D002A301F40493077004173A000034
:10392C00130A4A55E3F257F9173A0000130ACA541E
:10393C00A5BF5C407D5713FDFA0D6393E7089947CB
:10394C005CC0544013670B403C183EC05286930732
:10395C003103E68518C002C2D688130841032685B8
:10396C00CD3193077004D2552A8A631BFD00F5579D
:10397C0063C5F5005C4063D7B708F91A93FAFA0FE0
:10398C009307500663E55705FD1556861305040588
:10399C002EDA713B625785462A8BB307A7001CC8E9
:1039AC0063C5E6001840058B19C385071CC88347FF
:1039BC003103E38207F09307D002A301F404E5BDC1
:1039CC0013077004E31FEDF6ADFF854795BF930712
:1039DC006006639BFA025C40635BB0000CC881E735
:1039EC001840058B09CF8507AE971CC809A889E735
:1039FC0018408546058B19C39386270014C82CCC18
:103A0C00014B75B7930A7006E25763C9F5001C4069
:103A1C000CC8858BEDD793871500C1BF0547634450
:103A2C00B00009470D8FBA97C9B71C4013F7074070
:103A3C0015E314485286CA8526858299E30695E9D2
:103A4C001C40898B63980724F2574844E35FF5E6E2
:103A5C003E85A5BD13075006637D571928446C4459
:103A6C0001468146EFE06FDE39E9854617360000E6
:103A7C001306C640CA8526858299E30795E55257F9
:103A8C00E2576345F7001C40858BDDDBDE866286E2
:103A9C00CA8526858299FD57E308F5E2014A930A07
:103AAC00A4017D5BE257FD17E35CFAF88546568668
:103ABC00CA8526858299E30965E1050AE5B7D257DF
:103ACC006346F0068546173600001306263BCA856A
:103ADC0026858299E30A95DFD2576257D98F81E701
:103AEC001C40858BB1DFDE866286CA85268582996D
:103AFC00FD57E30BF5DC814A130BA401FD5BD25798
:103B0C00B307F04063CBFA00E2565286CA8526858D
:103B1C008299FD57E316F5F245BB85465A86CA8550
:103B2C0026858299E30275DB850AD1BF3C4CE25AAB
:103B3C0063D35701BE8A63495007014B130DA4018F
:103B4C00FD5D832C8405D68763D30A008147B38738
:103B5C00FC406344FB065257E2576349F7061C408E
:103B6C00858BADE7E25A5257B3879A41B38AEA4044
:103B7C0063D35701BE8A63445007014A130BA40157
:103B8C00FD5B5257E257998F568763D30A00014762
:103B9C00998FE357FAEA85465A86CA852685829913
:103BAC00E30475D3050AF1BFD6865286CA852685ED
:103BBC008299FD57E313F5F801BB85466A86CA85E1
:103BCC0026858299E302B5D1050BA5BFDE866286F8
:103BDC00CA8526858299FD57E316F5F8F5B1D68688
:103BEC0033069A01CA8526858299FD57E317F5F8A5
:103BFC00E1B9E25605476344D700858BB5C78546C6
:103C0C005286CA8526858299FD5AE30F55CBDE86EE
:103C1C006286CA8526858299E30855CB28446C4474
:103C2C0001468146EFE06FC21DC9E25613061A0029
:103C3C00CA85FD1626858299E30855C9DA861306CE
:103C4C000405E9B585465686CA8526858299E30D15
:103C5C0075C7050AE257FD17E346FAFEC5B7014AD8
:103C6C00930AA401FD5BFDB785465286CA8526855D
:103C7C008299E31595FD89B985465686CA852685B0
:103C8C008299E30365C5050A5C447257998FE34535
:103C9C00FAFE5DBB014A930A94017D5BF5B779711D
:103CAC0052CC9C493A8A984522D426D24ECE56CA3A
:103CBC0006D64AD05AC85EC6AA892E84B284B68A61
:103CCC0063D3E700BA879CC00347340419C3850744
:103CDC009CC01C4093F7070281C79C4089079CC07D
:103CEC000329040013796900631A0900130B94016A
:103CFC00FD5B5C449840998F634CF9048347340412
:103D0C00B336F0001C4093F70702A5EB13063404FE
:103D1C00D6854E85029AFD576303F5041C40114667
:103D2C009840998B544481446397C700B384E64010
:103D3C0063D3040081441C4418486354F700998FE2
:103D4C00BE94014969047D5B63982405014509A86B
:103D5C0085465A86D6854E85029A631E75017D5519
:103D6C00B250225492540259F249624AD24A424BFE
:103D7C00B24B456182800509ADBF3307D4001306F1
:103D8C000003A301C7040347540493871600A297AA
:103D9C008906A381E7049DBF85462286D6854E857C
:103DAC00029AE30E65FB050945B7797122D426D238
:103DBC004AD04ECE06D652CC56CA5AC803C8850134
:103DCC0093078007AA842E843289B68963EE070193
:103DDC00930720069386350463ED07016305081CE1
:103DEC0093078005630AF812930A2404230104053F
:103DFC0015A89307D8F993F7F70F5546E366F6FE27
:103E0C00173600001306460A8A07B2979C43B297EE
:103E1C0082871C43938A2504938647009C4314C3D2
:103E2C002381F504854765A29C41084313F60708D6
:103E3C00930545000DC21C410CC363D80700130742
:103E4C00D002B307F040A301E404173600001306B8
:103E5C0026032948A1A013F607041C410CC371DEEC
:103E6C00C207C187D9BF90411C43137506089385BF
:103E7C00470001C50CC39C4339A0137606040CC340
:103E8C007DDA83D707001307F006173600001306F8
:103E9C0026FF6304E80E2948A3010404584018C403
:103EAC00634507000C40ED990CC099E3B68A19CF15
:103EBC00B68A33F70703FD1A3297034707002380AE
:103ECC00EA003E87B3D70703E37507FFA147631EDC
:103EDC00F8001C40858B91CB58401C4863C7E70009
:103EEC0093070003A38FFAFEFD1AB386564114C83C
:103EFC004E87CA867000A285268555337D5A631C71
:103F0C00450D7D55B250225492540259F249624AE1
:103F1C00D24A424B45618280A382050517360000C8
:103F2C00130606F60C40084313F805081C4111054E
:103F3C00630D080208C313F7150001C793E50502CA
:103F4C000CC04148B1FB18401377F7FD18C0A9B756
:103F5C009C4193E707029CC193078007A302F404DA
:103F6C0017360000130606F375BF13F8050408C3D3
:103F7C00E30308FCC207C1837DBF214831BF9041D8
:103F8C001C43CC49137806081385470063060800C8
:103F9C0008C39C438CC301A808C3137606049C4336
:103FAC0075DA2390B70023280400B68A91B71C4316
:103FBC00D04181459386470014C383AA07005685D8
:103FCC00EF10606301C53305554148C05C401CC807
:103FDC00A301040431BF14485686CA8526858299EC
:103FEC00E30145F31C40898B8DE7B2474844E35B02
:103FFC00F5F03E8501BF85465686CA852685829991
:10400C00E30165F1050A5C443247998FE345FAFEFA
:10401C00E9BF014A930A94017D5BF5B75D7122D427
:10402C0006D62A842EDA32DC36DEBAC0BEC2C2C450
:10403C00C6C603A5018119C51C4D89E72AC6EF1018
:10404C00003432450C455418228636CEEF20801DA4
:10405C00B250225461618280011126CA4AC806CE30
:10406C0022CC4EC652C4AA842E8909C51C4D99E394
:10407C00EF10E0309C4C804481E72685EF10203017
:10408C00973700009387C7F2631CF402C040835734
:10409C00C400A18BB1C71C48A1C7FD59294A1C44B7
:1040AC0083450900FD17B1E91CC463DE07062286AF
:1040BC00A94526854520FD576308F502294535A0FD
:1040CC00973700009387C7F06314F4008044C1B79E
:1040DC00973700009387C7EBE31BF4FAC04445BF46
:1040EC00A28526851D2A55D97D55F2406244D244BD
:1040FC004249B249224A056182801CC4050963D732
:10410C000700184C63CBE700638945011C401387FB
:10411C00170018C02380B70059B7228626851D28A2
:10412C00E31F35F7D1B71C401387170018C0294778
:10413C002380E70061B7AA8503A5018131BFAA8757
:10414C0003C7070085076DFF3385A7407D15828067
:10415C006FB0FFFD011122CC26CA4AC806CE4EC64E
:10416C00AA842E89328409C51C4D99E3EF102021B5
:10417C00973700009387C7E3631BF406C0401C4CC1
:10418C001CC48357C400A18BD9C31C48C9C31C4889
:10419C0008409379F90F1379F90F1D8D5C4863472B
:1041AC00F500A2852685EF10C00B35E51C440505EE
:1041BC00FD171CC41C401387170018C0238037013F
:1041CC005C486389A7008357C400858B89CBA947BA
:1041DC006317F900A2852685EF10A0080DEDF240BB
:1041EC006244D244B2494A8542490561828097377C
:1041FC0000009387E7DD6314F400804449B79737D8
:10420C0000009387E7D8E31CF4F6C0448DBFA28569
:10421C00268521202DDD7D59D9B7411122C426C216
:10422C004AC006C683A401812A892E8491C49C4C61
:10423C0081E72685EF10A01497370000938747D7A6
:10424C006317F402C0408317C4001397070193F659
:10425C0087004183B5EA9376070195EA2547232029
:10426C00E90093E707042316F4007D5545A0973722
:10427C0000009387E7D56314F4008044E9B79737BF
:10428C0000009387E7D0E310F4FCC0446DBF118BA2
:10429C0015C74C5891C9930744046385F5004A85AA
:1042AC00EF10B05A232A04028357C40023220400BF
:1042BC0093F7B7FD2316F4001C481CC08357C400A9
:1042CC0093E787002316F4001C4889EF8357C4003A
:1042DC001307002093F707286386E700A2854A8519
:1042EC00EF10C0268317C4001397070193F617002D
:1042FC0041839DC2544823240400B306D04014CCFF
:10430C001448014581E61377070821FFB240224487
:10431C00924402494101828093762700014691E242
:10432C00504810C4F1BFAA88138541891C4181EF04
:10433C00138781A318C113050000BA8709C51C4156
:10434C002324F708BA87D8437D487D556346E80493
:10435C00638D080203A8870863000804131527005F
:10436C00429510C10323081005463316E60033634B
:10437C00C300232068102320D50889466397D800F2
:10438C0083264810558E2322C810930617000A075F
:10439C00D4C3BA978CC701458280011122CC1C4929
:1043AC00804906CE26CA4AC84EC652C456C263CAF3
:1043BC0087107D1413162400138A4501B30ACA0012
:1043CC009309450183A70A004E96184285072A894E
:1043DC00B354F7026362F70641655288CE880143F5
:1043EC00014E7D158326080091081108B3F7A6002D
:1043FC00C182B3879702B38696029A9713D70701A7
:10440C00E98FB307FE40BA9603A7C8FF13D3060182
:10441C00E98E337EA700F2974183158F93D607411F
:10442C003697135E0741E98F4207D98F23AEF8FE0A
:10443C00E3FA0AFB1C42BDC74A85EF10B015634670
:10444C000504C16685044E868145FD1603250A00C8
:10445C001C4211063377D500998D33F7D7002E9770
:10446C00C183418193550741898FAE9793D50741FD
:10447C00758FC207D98F110A232EF6FEE3F84AFD79
:10448C0093172400CE9798431DC72685F2406244AB
:10449C00D2444249B249224A924A056182801C4266
:1044AC0089E77D147116E3ECC9FE2328890069B7EE
:1044BC00984309E77D14F117E3ECF9FE23288900F2
:1044CC00E9B70145E1B735713EDC5C5122CD26CB15
:1044DC004AC94EC756C35AC106CF52C5DEDEE2DC0E
:1044EC00E6DAEAD8EED636CA3AD046D2AA84AE8AF2
:1044FC0032844289AE89328B9DEB4145EF10000F1F
:10450C00C8D011ED97360000938686A0014693051E
:10451C00A00E17350000130525A1EF20600B2322F8
:10452C000500232405002320050023260500DC506C
:10453C008C4389CDD84385472685B397E7009CC526
:10454C00D8C1EF10E02FDC5023A007006352040405
:10455C00854706042320F900135B1400B707F07F8E
:10456C003377FB006314F70662578967320B938726
:10457C00F770135BCB001CC3B36A5B01E3820A3494
:10458C00925791EB97370000938747983EC639A80E
:10459C0023200900E1B797370000938727973EC681
:1045AC00973700009387B79612571CC3FA406A449A
:1045BC003245DA444A49BA492A4A9A4A0A4BF65BC6
:1045CC00665CD65C465DB65D0D61828001468146B7
:1045DC005685DA8556D65AD8EFD03FA705E16257F3
:1045EC0085471CC397370000938747893EC692576F
:1045FC00D5DF97370000938777887DB7B808F40824
:10460C005A86D685268513594B01EF10D011137994
:10461C00F97F664A2A8463060912C2573255130978
:10462C0019C09395C700B181B707F03FDD8D82C0EB
:10463C0097C7FF0F9387C7BB9043D443EFD01FF6A8
:10464C0097C7FF0F938747BB9043D443EFD0FFB07E
:10465C0097C7FF0F9387C7BA9043D443EFC05FEA65
:10466C00AA8B4A85AE8AEFE0CFD897C7FF0F938706
:10467C00A7B99043D443EFD05FAE2A86AE865E8551
:10468C00D685EFC0FFE7AA8BAE8AEF20E021AA8D7A
:10469C00014681465E85D685EFD0DFA1635B0500C0
:1046AC006E85EFE00FD55E86D686EFD01F9A11C1CE
:1046BC00FD1D0547D9473ADA63E3B70313973D006D
:1046CC00973700009387C79ABA979043D4433255D3
:1046DC00C255EFD03F9E63530500FD1D02DA33092E
:1046EC002A41130CF9FF814B63560C00854BB38B9D
:1046FC002B41014C63C80D086E9C6ED4814C524703
:10470C00A54763E5E70E9547054963D6E700930790
:10471C00C7FF3ECA014952479147630BF7069547BD
:10472C00630AF70A89476305F70A8D4702CE6305CA
:10473C00F70A85473ECEFD573EC87D5DC94702D07E
:10474C0095A076499307000252999305294363D6A5
:10475C00B702130500040D8D930529413315AB00E9
:10476C00B3DABA0033655501EF20401AB70710FED3
:10477C00BE9585477D19BEC065BD3385B740339561
:10478C00AA00DDB7B38BBB41B30CB04102D485BFDB
:10479C0085473ECE8257634EF004854705473EC899
:1047AC00054D3AD0D450114723A2060013064701F9
:1047BC00CC4263F4C7042685EF00D07D2AC631E1D4
:1047CC00972600009386867B01469305A01A91B329
:1047DC0002CEC9B785473ECE8257EE973EC8138DA1
:1047EC001700EA87E340A0FD85476DBF054902CA63
:1047FC0089B782573EC83E8D75B78505CCC2060772
:10480C0075B7DC50324798C3B94763E8A713630602
:10481C000912635AB01B13F7FD00931737001737B3
:10482C0000001307E7843E9713D94D401C43832A9D
:10483C00470013770901094A15C3173700001307FE
:10484C00A780105354533255C2553ECC1379F900FE
:10485C00EFD0AFABE247AA892E8B0D4A1727000089
:10486C001307877E631F09124E853E86D686DA852E
:10487C00EFD0AFA9AA892E8BD257638B071A97C793
:10488C00FF0F9387E7989043D4434E85DA85EFD09A
:10489C007F82635F051863000D1AC247635DF008E1
:1048AC009387FDFF3ECC97C7FF0F9387E796904306
:1048BC00D4434E85DA85EFD05F8A4248AA892E8B85
:1048CC00050A5285C2C45ADECEC2EFE08FB2DA8638
:1048DC004E86EFD09F8897C6FF0F938666949042C2
:1048EC00D4425A89CE8AEFC0BFC12648B708C0FC53
:1048FC002A8B338AB8006313081497C6FF0F93866C
:10490C00A6929042D4424E85CA85EFD03FC95A86B2
:10491C00D286AA892E89EF10D06E634BA05AB707A6
:10492C000080B3C747015A86BE864E85CA85EFD034
:10493C006FF8634C0558B259425BF64763C80736AB
:10494C0039476345B73713973D0097270000938786
:10495C002772BA9703AA070083AA4700825763D12C
:10496C000726634FA02563120D5697C7FF0F938739
:10497C00A78B9043D4435285D685EFD00FFE4E863D
:10498C00DA86EF101068014A014963580550B247A6
:10499C003247850D93891700930710032300F70006
:1049AC0009A39376190081CE104354433E85D685D6
:1049BC003ACCEFD08FFA6247050AAA87AE8A135910
:1049CC001940210745B5094AE3880DEA3309B0417E
:1049DC009377F9001397370097270000938747695F
:1049EC00BA979043D4433255C25513594940972A2C
:1049FC000000938A6A65EFD04FF6AA87AA892E8B9E
:104A0C00014763160900E30907E6BE89ADB5937645
:104A1C00190099CA03A60A0083A64A003E85050A16
:104A2C00EFD0AFF3AA87054713591940A10AD1BF9C
:104A3C006ECC6A8879B56ECC014861B59307F8FFE6
:104A4C00139737009727000093878762BA97904394
:104A5C00D443B247C2973EDEF247C5CB97B7FF0FA0
:104A6C009387077DCC43AAC28843EFD00F8A5A861E
:104A7C00D286EFD0BFB2B2492A8A2E8BCA85568510
:104A8C00EF109062AAC2EFE0CF962A86AE865685CA
:104A9C00CA85EFD0BFB09647850952869387070326
:104AAC00A38FF9FEDA862A89AE8AEFD0AFE0634C89
:104ABC00050E97B7FF0F9387A7758843CC434A869B
:104ACC00D686EFD0BFAD5286DA86EFD0AFDE634725
:104ADC000518F257E381F9E697B7FF0F9387C77371
:104AEC009043D4435285DA85EFD02FE797B7FF0F69
:104AFC00938787729043D4432A8A2E8B4A85D68516
:104B0C00EFD0AFE5AA8A2E8995BFD285EFD0EFE41E
:104B1C00F257B249AAC42E8BBEC2CA855685EF1075
:104B2C00B058AAC6EFE0EF8C2A86AE865685CA85A9
:104B3C00EFD0DFA6B64785092A8A93870703A38F90
:104B4C00F9FEF2572E896392F90697BAFF0F938AF2
:104B5C002A6E03A60A0083A64A002645DA85EFC012
:104B6C003F9A2A86AE865285CA85EF1090496347D4
:104B7C00A00E264603A50A0083A54A00DA86EFD0CC
:104B8C00FFA12A86AE865285CA85EFD0AFD2E354F8
:104B9C0005DA9307000396491387F9FFBAC203C7D6
:104BAC00F9FFE30AF7FEE24D49A897B7FF0F938789
:104BBC00A7669043D443EFD04FDAAA8A2E89B1BFAF
:104BCC00B2475A8CCE8C138B17003E9D97BBFF0FB0
:104BDC00938B8B645286D6866685E285EFC0FFF296
:104BEC00EF10904C2A89EFE0CF805286D686EFD01A
:104BFC00CFD6AE862A86E2856685EFD03F9A93069D
:104C0C000903A30FDBFEDA8963136D092A86AE86CE
:104C1C00EFC01F8F5286D686AA8B2E8BEF10703E5C
:104C2C00634DA0025286D6865E85DA85EFD0EFC141
:104C3C0009E513791900631209022685A285EF0094
:104C4C003040E2572380090013851D0088C392571A
:104C5C00E38E079423A0370191BA6ECCCE8713074D
:104C6C009003BE8983C6F7FFFD17639CE600B2462E
:104C7C00E399F6FE624705073ACC1307000323803D
:104C8C00E60003C7070005072380E70029BF03A63A
:104C9C000B0083A64B00050BEFD02FCC01468146B1
:104CAC00AA8C2E8CEFD06FBA15F541BF72476300FA
:104CBC000710D24605476345D70C06479387374301
:104CCC0009E7664793076003998F668ADE8A8545F4
:104CDC002685BE9B3E9CEF0050532A89635E500193
:104CEC00635C8001D68763535C01E287B38BFB4026
:104CFC00B38AFA40330CFC4063810C04F247C5CFF5
:104D0C0063544003CA8552862685EF00506B228679
:104D1C00AA852A892685EF00B0522ACCA285268541
:104D2C00EF001032E2473E8433864C4163874C01DE
:104D3C00A2852685EF00B0682A8485452685EF007C
:104D4C00D04CA2572A8A635AF0063E86AA8526853D
:104D5C00EF00F066524785472A8A814C63C7E70605
:104D6C00814C639109069317CB00A9EFB705F07F2F
:104D7C00337BBB0063080B04850B050C854C99A099
:104D8C00130AFDFF63CA4C01338A4C41635E0D006C
:104D9C00B38AAB41814725BFA257B30C9A41E69722
:104DAC003ED4D28C014ADDB7DE8AEA870DB7668A1B
:104DBC00DE8A014925B76686A5BF52478547814CD7
:104DCC00E3D0E7FAA257054589CF83270A018D075F
:104DDC008A07D297C843EF005038930700023385F7
:104DEC00A74062957D8951C193070002898F1147B5
:104DFC00635AF706F1473385A740AA9BAA9A2A9CC7
:104E0C0063587001A2855E862685EF0070682A843F
:104E1C0063588001D28562862685EF0070672A8AE6
:104E2C00D257B1C7D2852285EF00D07663510504E5
:104E3C00A285814629462685EF009026F247FD1D66
:104E4C002A84638D0728CA85814629462685EF006A
:104E5C003025C2472A896345F0085247894763CFFA
:104E6C00E700BDA8E38EE7F83E85710579B7634589
:104E7C00A0075247894763D1E7066AC8C24791EF3A
:104E8C00D285814615462685EF0090212A8AAA856F
:104E9C002285EF003070E34CA0AE8257B24993CD1F
:104EAC00F7FF014BD2852685EF009019E30709D84F
:104EBC0063080B0063062B01DA852685EF0050187A
:104ECC00CA852685EF00D0178DBB014A0149F1B781
:104EDC00E24D014A014965BCF2476AC86387072065
:104EEC0063585001CA8556862685EF00705A2A8968
:104EFC004A8563800C04832549002685EF009009C0
:104F0C00AA8A11E997260000938646070146930565
:104F1C00A02E6FF00FE0032609019305C90031059F
:104F2C0009060A06EF00C06E0546D6852685EF00F9
:104F3C003056B24742474A8B138C1700BA973ECC77
:104F4C0093F719002A893EC8D2852285EFF0EFC469
:104F5C00DA85AA8C930A05032285EF00B063D2850B
:104F6C00AA8B4A862685EF0050665445130DFCFF2C
:104F7C00AA85054799E62ACE2285EF00B061F24555
:104F8C002A8726853ACEEF00B00BD2477247E289CA
:104F9C00B3E6E700C247DD8E81EE1307900363880A
:104FAC00EA0463547001938A1C0323005D01DDBD88
:104FBC0063CA0B00D247B3EB7701C247B3EBFB00DC
:104FCC0063980B04E353E0FEA28505462685EF00AB
:104FDC00304CD2852A84EF00F05B6346A00071F55B
:104FEC0013F71A0079D313079003E39EEAFA930799
:104FFC0090032300FD00CE8793069003BE8903C760
:10500C00F9FFFD176305D70A05072380E70059BD93
:10501C00635BE00013079003E38BEAFC93871A00B1
:10502C002300FD0041B5E247A30F5CFF63888705B1
:10503C00A285814629462685EF0090062A84814662
:10504C002946DA85268563182B01EF0070052A8B1B
:10505C002A89050CD5BDEF00B004CA852A8B814680
:10506C0029462685EF00D0032A89E5B7C247854932
:10507C006353F000BE89B247014BBE99A285054629
:10508C002685EF00F040D2852A84EF00B050E3442F
:10509C00A0F601E593F71A00B9FFCE8713070003BA
:1050AC00BE8983C6F7FFFD17E38CE6FEE5BB3247EE
:1050BC00E316F7F493071003850D2300F700DDB317
:1050CC001257972700009387A7E33EC69727000047
:1050DC00938787E3631A07CC6FF04FCDC2476346C3
:1050EC00F00052478947E3CBE7D88149D285228526
:1050FC00EFF0AFAAB247930A050333873701C247D3
:10510C00230057018509E3D3F9F6A2858146294688
:10511C002685EF00E0782A84D1BF83D7C500011122
:10512C0022CC26CA06CE4AC84EC613F78700AA84DC
:10513C002E847DE3D8416347E000B8416344E0002E
:10514C0001457DA858546DDF856603A90400F58FD1
:10515C0023A00400ADCF68488357C400918B99C736
:10516C005C401D8D5C5899C33C401D8D5C540C50AB
:10517C002A86814626858297FD570357C400631DF6
:10518C00F5009440F54763E4D708B707402085073E
:10519C00B3D7D700858BA5CF1C48232204001CC095
:1051AC0085677D8F19C7FD576314F5009C4091E30B
:1051BC0068C84C5823A02401C1D5930744046385C7
:1051CC00F5002685EF007068232A040295BF0C5069
:1051DC008546014626850297FD57E31FF5F69C4050
:1051EC00A5DF75476385E70059476395E70023A062
:1051FC002401B9B78357C40093E707042316F400BE
:10520C00F2406244D2444249B2490561828013673C
:10521C0007042316E400EDB783A90501E38209F224
:10522C0003A905008D8B23A03501330939410147B2
:10523C0091E3D84918C4E35520F11C540C50CA868C
:10524C004E8626858297634AA0008357C4007D55FD
:10525C0093E707042316F40065B7AA993309A9400C
:10526C00D9BF9C49B9CF011122CC06CE2A8411C5D5
:10527C001C4D81E72EC62122B2459727000093874B
:10528C0027D3639BF5004C408397C50095C72285B7
:10529C006244F240056151B597270000938747D3CC
:1052AC006394F5000C44CDB797270000938747CE45
:1052BC00E39CF5FC4C44C9BFF240624401450561D6
:1052CC00828001458280411122C406C62A8423169D
:1052DC00B5002317C5002320050023220500232435
:1052EC0005002322050623280500232A0500232C6C
:1052FC000500214681451305C505CD2E97170000E5
:10530C009387E71E5CD097170000938747211CD426
:10531C0097170000938787255CD497170000938715
:10532C004728B24000D01CD8224441018280970506
:10533C000000938545F399A2411126C213068006FD
:10534C009384F5FFB384C4024AC02E8922C406C6D6
:10535C0093854407EF0050592A8419C9232005006E
:10536C0023222501310508C4138684068145BD2EF0
:10537C00B2402285224492440249410182801C4D54
:10538C00ADE3411122C406C697070000938767FA64
:10539C001CD523240504232605042328050483A7F0
:1053AC0081862A846314F50085471CCD22851D282F
:1053BC0048C02285052808C422852D2048C44840B1
:1053CC0001469145093708440546A545ED3D48443D
:1053DC000946C945CD3D8547B2401CCC224441010C
:1053EC0082808280411126C283A481869C4C4AC053
:1053FC0006C622C42A8999E32685513793848404EE
:10540C008044DC40FD1763D607009C40B1CF84403C
:10541C00C5BF0317C40031E7C177850723220406F3
:10542C002320040023220400232404005CC423282A
:10543C000400232A0400232C040021468145130573
:10544C00C4056D24232A0402232C040223240404FF
:10545C0023260404B240228522449244024941018D
:10546C0082801304840679BF91454A85F13588C042
:10547C002A8451FDB1472320F900E9BF797122D468
:10548C004AD04ECE52CC5AC85EC606D626D256CA82
:10549C002A892E8A130485048149054BFD5B04443B
:1054AC00832A4400FD1A63D00A0200406DF8B25002
:1054BC00225492540259624AD24A424BB24B4E8504
:1054CC00F2494561828083D7C400637BFB008397DC
:1054DC00E40063877701A6854A85029AB3E9A9009F
:1054EC0093848406C1B717B5FF0F1305A5C6828038
:1054FC005971CAD02E898395E500A2D4A6D286D63E
:10550C003284B68463DC05008317C90023A0040031
:10551C0093F7070895E3930700400DA03000EF10B8
:10552C006013E34305FE3247BD67F98F7977BA976D
:10553C0093B717009CC0C5B793070004B6501CC0A6
:10554C0026549654065901456561828083D7C5005F
:10555C00011122CC06CE26CA4AC8898B2E8489CF4B
:10556C00930774041CC01CC885475CC8F240624495
:10557C00D244424905618280740030002A898D3FF3
:10558C00A245AA844A85EF00303601ED8317C4008A
:10559C0013F7072061FFF19B93E727002316F40014
:1055AC00C1B7970700009387C7D82324F902835704
:1055BC00C40008C008C893E707082316F400A247E4
:1055CC005CC8B24791CF8315E4004A85EF10200BDD
:1055DC0001C98357C400F19B93E717002316F4000D
:1055EC000355C400C98C2316940049B7AA8503A59A
:1055FC0001816F00702F93F5F50F2A966314C50087
:10560C000145828083470500E38DB7FE0505FDB794
:10561C00B3C7A5008D8BB306C50081E78D4763EE3C
:10562C00C700AA876371D50603C7050085078505E2
:10563C00A38FE7FEE3EAD7FE828013773500AA87B3
:10564C0011CB03C7050085078505A38FE7FE13F76C
:10565C003700FDB713F7C6FF3308F74013060002F7
:10566C00634406032E883E86636BE6061388D7FFD9
:10567C000146636607010D071D8F1376C7FFB297AE
:10568C00B295E3E3D7FA828083A3050083A2450099
:10569C0083AF850003AFC50083AE050103AE4501A2
:1056AC0003A3850183A8C50123A0770023A257007B
:1056BC0003A8050223A4F70123A6E70123A8D70119
:1056CC0023AAC70123AC670023AE170193874702B7
:1056DC009385450223AE07FF3308F74051B7832863
:1056EC00080011061108232E16FFBDBF3D432A8763
:1056FC006373C3029377F700BDEFADE5937606FFB6
:10570C003D8ABA960CC34CC30CC74CC74107E36B1C
:10571C00D7FE11E28280B306C3408A0697020000CE
:10572C0096966780A6002307B700A306B70023064A
:10573C00B700A305B7002305B700A304B7002304E3
:10574C00B700A303B7002303B700A302B7002302DB
:10575C00B700A301B7002301B700A300B7002300D3
:10576C00B700828093F5F50F93968500D58D9396AF
:10577C000501D58D61B79396270097020000969688
:10578C008682E78086FA9680C1171D8F3E96E37459
:10579C00C3F8A5B75C51411122C426C206C64AC043
:1057AC002A84AE8495EB4145913548D011ED97167E
:1057BC0000009386E67501469305600617250000E8
:1057CC0013050583EF00D060232205002324050078
:1057DC002320050023260500032944028327C90042
:1057EC009DC75850939724005847BA97884331E186
:1057FC00054933199900130659000A068545228577
:10580C00EF00500105C144C1232425012DA013062E
:10581C00100291452285EF00E07F5C502326A90001
:10582C00DC47E1F30145B240224492440249410174
:10583C008280184198C32328050023260500E5B76C
:10584C005C51411122C426C206C6AA842E8495EB53
:10585C004145693BC8D011ED971600009386466B05
:10586C0001469305A0081715000013056578EF0095
:10587C00305623220500232405002320050023266F
:10588C00050011C8D4505C4013972700DC46BA972A
:10589C00984318C080C3B240224492444101828094
:1058AC00011122CC4AC84EC603A905012E84B68923
:1058BC0093864501C16526CA06CEAA8452C4014509
:1058CC00FD159C429106050533F7B7003307C70257
:1058DC00C183B387C7024E97135807016D8FC297C8
:1058EC0093D90701C207BA9723AEF6FEE34B25FD09
:1058FC00638C09041C446340F9044C4026858505DF
:10590C00513D2A8A11ED97160000938626670146B1
:10591C009305500B171500001305856DEF00504BC8
:10592C0010489305C400310509060A06D531A28535
:10593C00268539375284930749008A07A29723A2F8
:10594C003701050923282401F24022856244D24400
:10595C004249B249224A056182804177698FAA8700
:10596C00014519E3C2074145370700FF7D8F19E355
:10597C002105A207370700F07D8F19E31105920767
:10598C00370700C07D8F19E309058A0763C9070033
:10599C0037070040F98F050599E313050002828053
:1059AC001C412A8793F6770085C293F617000145B0
:1059BC00A1EE93F6270089C685831CC3054582801A
:1059CC0089831CC30945828093960701C1820145D6
:1059DC0099E2C183414593F6F70F99E22105A18322
:1059EC0093F6F70099E21105918393F6370099E24B
:1059FC000905898393F6170081E68583050599C30C
:105A0C001CC38280130500028280411122C42E84A3
:105A1C00854506C6413311ED971600009386065650
:105A2C00014693050014171500001305655CEF0083
:105A3C00303AB24040C92244054718C9410182801E
:105A4C0098491C4A011122CC4AC806CE26CA4EC619
:105A5C0052C42E8432896354F70032842E89032A6F
:105A6C000401832909011C444C40B3043A0163D35B
:105A7C0097008505053311ED9716000093860650A7
:105A8C0001469305D0151715000013056556EF0058
:105A9C00303493064501139824003698B68763EA90
:105AAC0007051303440193152A0013064901939823
:105ABC0029009A9593075401B298114E63E8F500AA
:105ACC00338485402D147198130E4400C16EFD1E55
