:0200000480007A
:100000007370043073504030979100109381817A5F
:1000100017010410130101FF970200009382822C44
:100020007390523073F05130996273A002307310A4
:10003000300017050000130565099705000093853A
:10004000E5086300B502179600001306E61063FA90
:10005000C5008322050023A0550011059105E3EAA0
:10006000C5FE179500001305250F97050010938511
:1000700065F91386418663FAC5008322050023A033
:10008000550011059105E3EAC5FE138541869745A4
:1000900001109385A5D66377B500232005001105CF
:1000A000E36DB5FE05231755000013052514EF5029
:1000B000E012EF50C016EF00300601458145EF0019
:0800C000701AEF00501701A0B7
:1000C800011122CE00102326A4FE938741882547DC
:1000D80098C3FD573E85724405618280011122CE86
:1000E80000102326A4FE730050100100EDBF01117B
:1000F80022CE00102326A4FE2324B4FE0327C4FE28
:1001080085476307F7000327C4FE89476318F7008C
:10011800832784FE0967D8C3814731A09387418824
:10012800254798C3FD573E85724405618280411179
:1001380022C6000885473E8532444101828001116C
:1001480022CE00102326A4FE85473E857244056111
:100158008280011122CE00102326A4FE2324B4FE9F
:1001680093874188594798C3FD573E857244056176
:100178008280011122CE00102326A4FE2324B4FE7F
:100188002322C4FE81473E857244056182807971CD
:1001980006D622D40018232EA4FC232CB4FC232A30
:1001A800C4FC8327C4FD99C3FD5739A8832784FD60
:1001B8002326F4FE37350110512CAA873E87832762
:1001C800C4FE2380E70085473E85B250225445612E
:1001D8008280011122CE00102326A4FE97970010DA
:1001E8009387C7DC98438327C4FE3E97974701103F
:1001F800938747C06360F70297970010938707DBE0
:1002080098438327C4FE3E9797F703109387075FA9
:1002180063F4E700FD5705A897970010938707D95F
:1002280098438327C4FE3E9797970010938707D873
:1002380098C397970010938767D798438327C4FE7E
:10024800B307F040BA973E857244056182807971A0
:1002580006D622D40018232EA4FC232CB4FC232A6F
:10026800C4FC0325C4FDEF50D031AA8799E3FD579C
:10027800B1A8832784FD2324F4FE232604FE3DA889
:10028800032784FE8327C4FEBA9703C70700A9473C
:100298006316F700B54537350110BD22032784FEE4
:1002A8008327C4FEBA9783C70700BE853735011078
:1002B800A12A8327C4FE85072326F4FE0327C4FE4C
:1002C800832744FDE36EF7FA832744FD3E85B25049
:1002D80022544561828000005D7106C012C216C4B6
:1002E8001AC61EC82ACA2ECC32CE36D03AD23ED42E
:1002F80042DC46DEF2C0F6C2FAC4FEC6F32210346F
:1003080016D6F322203416D8F322003016DA7325D5
:1003180020348A851529B25273901234C2527390D0
:100328002234D2527390023082401242A2423243A7
:10033800C2435245E245724682561257A257625846
:10034800F258064E964E264FB64F61617300203024
:10035800011122CE00102326A4FE2324B4FE8327F5
:10036800C4FE93B7170093F7F70F99C3FD5719A861
:100378008327C4FED84F832784FE5D8F8327C4FE5E
:10038800D8CF81473E85724405618280797122D633
:100398000018232EA4FC232CB4FC8327C4FD93B798
:1003A800170093F7F70F99C3FD5799A8979700106F
:1003B800938707C09843832784FDB357F702FD1737
:1003C8002326F4FE8327C4FD13070008D8C7832714
:1003D800C4FEA18313F7F70F8327C4FDD8C383276F
:1003E800C4FE13F7F70F8327C4FD98C38327C4FD02
:1003F8001307600C98C78327C4FD0D47D8C78147EA
:100408003E85325445618280011122CE0010232698
:10041800A4FEAE87A305F4FE8327C4FE93B7170096
:1004280093F7F70F99C3FD5731A801008327C4FE3E
:10043800DC4B93F70702FDDB0347B4FE8327C4FEBA
:1004480098C381473E85724405618280797122D6BE
:100458000018232EA4FC8327C4FD93B7170093F735
:10046800F70F81C79307F00F05A001008327C4FD8C
:10047800DC4B858BE5DF8327C4FD9C432326F4FEF4
:100488008327C4FE93F7F70F3E8532544561828077
:10049800397106DE22DC26DA80002326A4FC2166D8
:1004A80081462324C4FE2326D4FE37060002B16603
:1004B800B29603A686FF83A6C6FF2322C4FE37068C
:1004C8000002B166B29603A686FF83A6C6FF232064
:1004D800C4FEF32600B0B6808686232ED4FC0326FD
:1004E80004FE832644FEE30CD6FC37060002B16600
:1004F800B29603A686FF83A6C6FF832604FEB3062C
:10050800D640232CD4FCF32600B0B680068683267A
:10051800C4FDB306D640232AD4FC032684FD8326D3
:10052800C4FCE364D6FC032644FD832684FD3356CD
:10053800D602832684FEB304D602032644FD83260E
:1005480084FDB376D60236878147832684FE3386B8
:10055800F6028326C4FEB386E6023696832684FE18
:10056800B385E602B3B8E6022E88B3071601BE8843
:10057800832784FD3E8381431A869E864285C685ED
:10058800EF2040622A87AE87BA87A6973E85F25049
:100598006254D25421618280011106CE22CC00100F
:1005A8000545FD3513054006E5352326A4FE8327BA
:1005B800C4FE3E85F240624405618280411122C634
:1005C8000008979700109387A79E37B7C4041307AE
:1005D800074098C30100324441018280011106CED0
:1005E80022CC00102326A4FE2324B4FE1785000085
:1005F8001305C538EF5040778325C4FE17850000E2
:1006080013050539EF50A064F3271034BE808687A0
:10061800BE85178500001305A538EF504063F32702
:100628003034BE808687BE8517850000130545389F
:10063800EF50E06101A0011106CE22CC0010232664
:10064800A4FE2324B4FE1785000013056537EF5078
:10065800A0718325C4FE1785000013056533EF508C
:10066800005FF3271034BE808687BE85178500009B
:1006780013050533EF50A05DF3273034BE8086871D
:10068800BE85178500001305A532EF50405C0100B8
:10069800F240624405618280011122CE00102326B7
:1006A80004FE0DA017070000130787F393864189FE
:1006B8008327C4FE8A07B69798C38327C4FE850795
:1006C8002326F4FE0327C4FEA947E3DDE7FC010067
:1006D8000100724405618280011122CE0010232698
:1006E80004FE0DA017070000130727F59386018C59
:1006F8008327C4FE8A07B69798C38327C4FE850755
:100708002326F4FE0327C4FEC147E3DDE7FC2326C6
:1007180004FE0DA017070000130727F293864190E7
:100728008327C4FE8A07B69798C38327C4FE850724
:100738002326F4FE0327C4FEA547E3DDE7FC0100FA
:100748000100724405618280397106DE22DC26DAF6
:1007580080002326A4FC2324B4FC8327C4FC63DC88
:10076800070C232604FE0327C4FC8567FD17F98FB1
:100778002324F4FE032784FEAD476319F708F32703
:1007880040F1BE84A6872322F4FE832744FE1397F4
:10079800C700B707200C9107BA972320F4FE8327D8
:1007A80004FE9C432324F4FE032784FEC14763E22E
:1007B800E7081387018C832784FE8A07BA979C432E
:1007C8002326F4FE8327C4FE81CB8327C4FE83251A
:1007D80084FC0325C4FC8297832784FE232EF4FC23
:1007E800F32740F1BE84A687232CF4FC832784FDDD
:1007F8001397C700B707200C9107BA97232AF4FC70
:10080800832744FD0327C4FD98C325A0138741907F
:10081800832784FE8A07BA979C432326F4FE8327FE
:10082800C4FE81CB8327C4FE832584FC0325C4FC36
:100838008297814739A0832584FC0325C4FC0128BD
:10084800AA873E85F2506254D25421618280797120
:1008580006D622D40018232EA4FC232CB4FC03278C
:10086800C4FD8567FD17F98F2324F4FE032784FE52
:10087800A94763ECE70013874189832784FE8A0729
:10088800BA979C432326F4FE39A097070000938764
:1008980027D52326F4FE8327C4FE81CB8327C4FEF5
:1008A800832584FD0325C4FD829781473E85B25088
:1008B800225445618280411106C622C40008178669
:1008C800000013062611978500009385651117858A
:1008D80000001305A511EF50803797850000938518
:1008E80065131785000013052513EF5040369787C9
:1008F80000109387E76B9C43BE851785000013059E
:10090800E512EF50C0340100B24022444101828018
:10091800397106DE22DC26DA8000BD392A879787FE
:1009280000109387E76898C3B705030037250110BF
:100938000534F1679385072037350110813CA53FC1
:10094800A13B593BC5472326F4FE232404FE61A896
:10095800832784FE2322F4FEF32740F1BE84A68772
:100968002320F4FE832704FE13977700832744FE91
:1009780095838A073E97B727000CBA97232EF4FC75
:100988008327C4FD9C43232CF4FC832744FEFD8B62
:100998000547B317F70093C7F7FF3E87832784FD02
:1009A800F98F232CF4FC8327C4FD032784FD98C307
:1009B8000100832784FE232AF4FC232804FC8327D0
:1009C80044FD13972700B707000CBA972326F4FCB9
:1009D8008327C4FC032704FD98C30100832784FEF2
:1009E80085072324F4FE0327C4FE832784FEE3E15E
:1009F800E7F6232404FCF32740F1BE84A6872322CC
:100A0800F4FC832744FC1397C700B707200CBA9758
:100A18002320F4FC832704FC032784FC98C30100EB
:100A280001000100F2506254D25421618280011108
:100A380022CE00102326A4FE0100724405618280A4
:100A4800411122C60008010032444101828041114F
:100A580022C600080100324441018280130101B41A
:100A6800232E114A232C814A232A914A2328214BD9
:100A78002326314B2324414B2322514B2320614B06
:100A8800232E7149232C8149232A91492328A149DE
:100A98002326B1491304014C978700109387875187
:100AA8009C43BE8517850000130585FEEF50201A6C
:100AB800979700109387072B232AF4FA032744FB00
:100AC800A167BA972328F4FAF32700B8BE8086876F
:100AD8002324F4D8F32700B0BE8086872322F4D8D5
:100AE800F32700B8BE8086872320F4D8032784D84C
:100AF800832704D86308F700F32700B0BE808687F1
:100B08002322F4D8832704D83E8B814B93190B00FA
:100B18000149832744D83E8A814AB3674901232083
:100B2800F4FAB3E759012322F4FA032604FA8326D8
:100B380044FA9387818690C3D4C39387018823A0FE
:100B480007009307D0072326F4EA9307B007232862
:100B5800F4EA93072007232AF4EAA1472320F4EABA
:100B6800A1472322F4EAA1472324F4EA232E04FA16
:100B78000DAC17770010130727648327C4FBBA97B7
:100B880083C707003E878327C4EAB307F7409396D5
:100B98007700832704EA1387F7FF8547B397E700B1
:100BA8003387F600832704EAB357F740232EF4F679
:100BB800A147232CF4F6832784F7A9CB032784F7CE
:100BC8009307000263E4E704832784F71387F7FF9A
:100BD8008547B397E700FD17232AF4F6832744F7E0
:100BE80093C7F7FF2328F4F60327C4F7832744F7AE
:100BF80063D5E700832644F721A80327C4F7832792
:100C080004F76355F700832604F719A08326C4F771
:100C18000327C4FB832704FB3E9793978601E1874C
:100C28002300F7008327C4FB13871700977700106A
:100C380093878758BA9783C707003E87832704EBB3
:100C4800B307F74093967700832744EA1387F7FFA3
:100C58008547B397E7003387F600832744EAB357FD
:100C6800F7402326F4F8A1472324F4F8832784F8CF
:100C7800A9CB032784F89307000263E4E7048327DA
:100C880084F81387F7FF8547B397E700FD172322FA
:100C9800F4F8832744F893C7F7FF2320F4F80327D1
:100CA800C4F8832744F863D5E700832644F821A8CD
:100CB8000327C4F8832704F86355F700832604F84C
:100CC80019A08326C4F88327C4FB1387170083273A
:100CD80004FB3E9793978601E1872300F70083275B
:100CE800C4FB13872700977700109387E74CBA97C0
:100CF80083C707003E87832744EBB307F7409396E3
:100D08007700832784EA1387F7FF8547B397E700BF
:100D18003387F600832784EAB357F740232EF4F885
:100D2800A147232CF4F8832784F9A9CB032784F956
:100D38009307000263E4E704832784F91387F7FF26
:100D48008547B397E700FD17232AF4F8832744F96A
:100D580093C7F7FF2328F4F80327C4F9832744F936
:100D680063D5E700832644F921A80327C4F983271C
:100D780004F96355F700832604F919A08326C4F9FA
:100D88008327C4FB13872700832704FB3E97939789
:100D98008601E1872300F7008327C4FB8D07232EF4
:100DA800F4FA0327C4FB85679387F7BFE3D3E7DC2F
:100DB800F32700B8BE808687232EF4E8F32700B017
:100DC800BE808687232CF4E8F32700B8BE80868788
:100DD800232AF4E80327C4E9832744E96308F700D2
:100DE800F32700B0BE808687232CF4E8832744E9E4
:100DF8002328F4B6232A04B6832704B7939C070054
:100E0800014C832784E92324F4B6232604B68326D9
:100E180084B60327C4B6B687B367FC00232CF4EA6C
:100E2800BA87B3E7FC00232EF4EA032684EB832673
:100E3800C4EB9387018790C3D4C3938701879043FA
:100E4800D443938781869843DC433308E640C285C0
:100E5800B335B600B388F640B387B840BE8842863B
:100E6800C6869387818790C3D4C393878187984325
:100E7800DC433A86BE8697850000938525C417858E
:100E88000000130565C4EF40905CF32700B8BE80EE
:100E980086872328F4E8F32700B0BE8086872326B8
:100EA800F4E8F32700B8BE8086872324F4E80327F4
:100EB80004E9832784E86308F700F32700B0BE80BD
:100EC80086872326F4E8832784E82320F4B823229E
:100ED80004B8832704B8939D0700014D8327C4E80D
:100EE800232CF4B6232E04B6832684B70327C4B76D
:100EF800B687B367FD002320F4ECBA87B3E7FD009B
:100F08002322F4EC032604EC832644EC93878186A1
:100F180090C3D4C39387018823A0070002CC978786
:100F280000109387271C3ECA930700023EC88327F8
:100F380044FB3EC6A5473EC499473EC297070010EA
:100F48009387C7A13EC08548094895471307000203
:100F580097F6FF0F9386860A0D4693050002032530
:100F680004FBEF10404FF32700B8BE80868723228A
:100F7800F4E8F32700B0BE8086872320F4E8F3273F
:100F880000B8BE808687232EF4E6032744E883272B
:100F9800C4E76308F700F32700B0BE8086872320E4
:100FA800F4E88327C4E7232CF4B8232E04B8832756
:100FB80084B993970700232AF4B8232804B8832711
:100FC80004E82324F4B8232604B8832504B90326A7
:100FD80044B9AE87832684B80327C4B83685C98F39
:100FE8002324F4ECB287D98F2326F4EC032684EC6F
:100FF8008326C4EC9387018790C3D4C39387018762
:101008009043D443938781869843DC433308E64072
:10101800C285B335B600B388F640B387B840BE88FA
:101028004286C6869387818790C3D4C39387818776
:101038009843DC433A86BE86978500009385C5A908
:1010480017850000130545A8EF407040F32700B846
:10105800BE808687232CF4E6F32700B0BE808687FF
:10106800232AF4E6F32700B8BE8086872328F4E60F
:10107800032784E7832704E76308F700F32700B012
:10108800BE808687232AF4E6832704E72328F4BA58
:10109800232A04BA832704BB939707002326F4BAAC
:1010A800232404BA832744E72320F4BA232204BA6A
:1010B800832584BA0326C4BAAE87832604BA0327D5
:1010C80044BA3685C98F2328F4ECB287D98F232AEE
:1010D800F4EC032604ED832644ED9387818690C3C0
:1010E800D4C39387018823A00700A165032544FB87
:1010F800EF106051F32700B8BE8086872326F4E6F8
:10110800F32700B0BE8086872324F4E6F32700B8CF
:10111800BE8086872322F4E60327C4E6832744E6B5
:101128006308F700F32700B0BE8086872324F4E61F
:10113800832744E62324F4BC232604BC832784BCE9
:10114800939707002322F4BC232004BC832784E65A
:10115800232CF4BA232E04BA832504BC032644BCEA
:10116800AE87832684BB0327C4BB3685C98F232C4F
:10117800F4ECB287D98F232EF4EC032684ED832672
:10118800C4ED9387018790C3D4C3938701879043A5
:10119800D443938781869843DC433308E640C2856D
:1011A800B335B600B388F640B387B840BE884286E8
:1011B800C6869387818790C3D4C3938781879843D2
:1011C800DC433A86BE86978500009385A5921785ED
:1011D80000001305658FEF409027F32700B8BE8005
:1011E80086872320F4E6F32700B0BE808687232E67
:1011F800F4E4F32700B8BE808687232CF4E40327A1
:1012080004E6832784E56308F700F32700B0BE806F
:101218008687232EF4E4832784E52320F4BE232243
:1012280004BE832704BE93970700232EF4BC232C07
:1012380004BC8327C4E52328F4BC232A04BC8325E3
:1012480084BD0326C4BDAE87832604BD032744BDE1
:101258003685C98F2320F4EEB287D98F2322F4EE86
:10126800032604EE832644EE9387818690C3D4C375
:101278009387018823A00700832704FB3EC0814889
:101288004148894701478D4613060002930500022D
:10129800032544FBEF10E069F32700B8BE8086877A
:1012A800232AF4E4F32700B0BE8086872328F4E4D9
:1012B800F32700B8BE8086872326F4E4032744E595
:1012C8008327C4E46308F700F32700B0BE8086874D
:1012D8002328F4E48327C4E4232CF4BE232E04BE7D
:1012E800832784BF93970700232AF4BE232804BECC
:1012F800832704E52324F4BE232604BE832504BFE4
:10130800032644BFAE87832684BE0327C4BE368522
:10131800C98F2324F4EEB287D98F2326F4EE03264F
:1013280084EE8326C4EE9387018790C3D4C3938742
:1013380001879043D443938781869843DC433308DD
:10134800E640C285B335B600B388F640B387B840E7
:10135800BE884286C6869387818790C3D4C3938705
:1013680081879843DC433A86BE869775000093854B
:1013780065791775000013052575EF40500DF327A3
:1013880000B8BE8086872324F4E4F32700B0BE802B
:1013980086872322F4E4F32700B8BE8086872320BB
:1013A800F4E4032784E4832704E46308F700F327BD
:1013B80000B0BE8086872322F4E4832704E4232830
:1013C800F4C0232A04C0832704C193970700232667
:1013D800F4C0232404C0832744E42320F4C0232238
:1013E80004C0832584C00326C4C0AE87832604C0F6
:1013F800032744C03685C98F2328F4EEB287D98FD6
:10140800232AF4EE032604EF832644EF938781868C
:1014180090C3D4C39387018823A0070002CC978781
:101428000010938727CC3ECAC1473EC8832744FB98
:101438003EC6A5473EC491473EC2972700109387F2
:10144800E7733EC0854809489547414797F6FF0F1F
:101458009386C65213060002C145032504FBEF001C
:10146800B062F32700B8BE808687232EF4E2F32704
:1014780000B0BE808687232CF4E2F32700B8BE8034
:101488008687232AF4E20327C4E3832744E3630817
:10149800F700F32700B0BE808687232CF4E2832769
:1014A80044E32324F4C2232604C2832784C29397E7
:1014B80007002322F4C2232004C2832784E3232CB9
:1014C800F4C0232E04C0832504C2032644C2AE8779
:1014D800832684C10327C4C13685C98F232CF4EE23
:1014E800B287D98F232EF4EE032684EF8326C4EF28
:1014F8009387018790C3D4C3938701879043D443CC
:10150800938781869843DC433308E640C285B33528
:10151800B600B388F640B387B840BE884286C68610
:101528009387818790C3D4C3938781879843DC438B
:101538003A86BE86977500009385455E177500004C
:1015480013058558EF40A070F32700B8BE80868742
:101558002328F4E2F32700B0BE8086872326F4E22E
:10156800F32700B8BE8086872324F4E2032704E328
:10157800832784E26308F700F32700B0BE808687DC
:101588002326F4E2832784E22320F4C4232204C41C
:10159800832704C493970700232EF4C2232C04C284
:1015A8008327C4E22328F4C2232A04C2832584C3E0
:1015B8000326C4C3AE87832604C3032744C33685E2
:1015C800C98F2320F4F0B287D98F2322F4F00326A1
:1015D80004F0832644F09387818690C3D4C393870D
:1015E800018823A007008565032544FBEF10A001AF
:1015F800F32700B8BE8086872322F4E2F32700B0E1
:10160800BE8086872320F4E2F32700B8BE80868751
:10161800232EF4E0032744E28327C4E16308F7009C
:10162800F32700B0BE8086872320F4E28327C4E135
:10163800232CF4C4232E04C4832784C5939707005E
:10164800232AF4C4232804C4832704E22324F4C4EB
:10165800232604C4832504C5032644C5AE878326F0
:1016680084C40327C4C43685C98F2324F4F0B28701
:10167800D98F2326F4F0032684F08326C4F09387B9
:10168800018790C3D4C3938701879043D44393873A
:1016980081869843DC433308E640C285B335B600FB
:1016A800B388F640B387B840BE884286C68693871B
:1016B800818790C3D4C3938781879843DC433A8654
:1016C800BE86977500009385E542177500001305DF
:1016D800A53FEF40C057F32700B8BE808687232C6C
:1016E800F4E0F32700B0BE808687232AF4E0F327CE
:1016F80000B8BE8086872328F4E0032784E1832787
:1017080004E16308F700F32700B0BE808687232A28
:10171800F4E0832704E12328F4C6232A04C6832798
:1017280004C7939707002326F4C6232404C68327F7
:1017380044E12320F4C6232204C6832584C6032655
:10174800C4C6AE87832604C6032744C63685C98F18
:101758002328F4F0B287D98F232AF4F0032604F162
:10176800832644F19387818690C3D4C393870188E5
:1017780023A00700832704FB3EC0978800109388A6
:1017880068962148894701478D464146C14503254A
:1017980044FBEF10001AF32700B8BE808687232683
:1017A800F4E0F32700B0BE8086872324F4E0F32713
:1017B80000B8BE8086872322F4E00327C4E083278D
:1017C80044E06308F700F32700B0BE80868723242F
:1017D800F4E0832744E02324F4C8232604C883279D
:1017E80084C8939707002322F4C8232004C88327BA
:1017F80084E0232CF4C6232E04C6832504C80326BC
:1018080044C8AE87832684C70327C4C73685C98FD3
:10181800232CF4F0B287D98F232EF4F0032684F119
:101828008326C4F19387018790C3D4C39387018724
:101838009043D443938781869843DC433308E6403A
:10184800C285B335B600B388F640B387B840BE88C2
:101858004286C6869387818790C3D4C3938781873E
:101868009843DC433A86BE869775000093858529A0
:101878001775000013054525EF40603DF32700B8B4
:10188800BE8086872320F4E0F32700B0BE808687D9
:10189800232EF4DEF32700B8BE808687232CF4DEDF
:1018A800032704E0832784DF6308F700F32700B0E9
:1018B800BE808687232EF4DE832784DF2320F4CAA4
:1018C800232204CA832704CA93970700232EF4C847
:1018D800232C04C88327C4DF2328F4C8232A04C878
:1018E800832584C90326C4C9AE87832604C9032770
:1018F80044C93685C98F2320F4F2B287D98F2322B1
:10190800F4F2032704F2832744F29386818698C26F
:10191800DCC29387018823A0070002CC97770010C8
:101928009387477C3ECAA1473EC8832744FB3EC6EF
:101938009D473EC485473EC2975700109387074589
:101948003EC08548094895471307000297260010AE
:101958009386C6234146A145032504FBEF00D01218
:10196800F32700B8BE808687232AF4DEF32700B069
:10197800BE8086872328F4DEF32700B8BE808687DA
:101988002326F4DE032744DF8327C4DE6308F70039
:10199800F32700B0BE8086872328F4DE8327C4DEC1
:1019A800232CF4CA232E04CA832784CB93970700D9
:1019B800232AF4CA232804CA832704DF2324F4CA69
:1019C800232604CA832504CB032644CBAE8783266B
:1019D80084CA0327C4CA3685C98F2324F4F2B28780
:1019E800D98F2326F4F2032784F28327C4F293863F
:1019F800018798C2DCC2938701879843DC439386AA
:101A080081868842CC423306A740328833380701A2
:101A1800B386B740B3870641BE863287B6879386BA
:101A2800818798C2DCC2938781879843DC433A86D2
:101A3800BE86977500009385650E1775000013051F
:101A4800A508EF40C020F32700B8BE80868723246E
:101A5800F4DEF32700B0BE8086872322F4DEF32766
:101A680000B8BE8086872320F4DE032784DE832720
:101A780004DE6308F700F32700B0BE8086872322C0
:101A8800F4DE832704DE2328F4CC232A04CC83271E
:101A980004CD939707002326F4CC232404CC832772
:101AA80044DE2320F4CC232204CC832584CC0326D3
:101AB800C4CCAE87832604CC032744CC3685C98F93
:101AC8002328F4F2B287D98F232AF4F2032704F3E8
:101AD800832744F39386818698C2DCC29387018862
:101AE80023A00700856793850780032544FBEF0043
:101AF8009031F32700B8BE808687232EF4DCF327C5
:101B080000B0BE808687232CF4DCF32700B8BE80A3
:101B18008687232AF4DC0327C4DD832744DD630892
:101B2800F700F32700B0BE808687232CF4DC8327D8
:101B380044DD2324F4CE232604CE832784CE939732
:101B480007002322F4CE232004CE832784DD232C10
:101B5800F4CC232E04CC832504CE032644CEAE87B2
:101B6800832684CD0327C4CD3685C98F232CF4F270
:101B7800B287D98F232EF4F2032784F38327C4F383
:101B88009386018798C2DCC2938701879843DC4318
:101B9800938681868842CC423306A7403288333800
:101BA8000701B386B740B3870641BE863287B6873A
:101BB8009386818798C2DCC2938781879843DC43E8
:101BC8003A86BE86977500009385C5F217750000A2
:101BD800130585EFEF40A007F32700B8BE8086877E
:101BE8002328F4DCF32700B0BE8086872326F4DCA4
:101BF800F32700B8BE8086872324F4DC032704DD9E
:101C0800832784DC6308F700F32700B0BE8086874B
:101C18002326F4DC832784DC2320F4D0232204D079
:101C2800832704D093970700232EF4CE232C04CEC9
:101C38008327C4DC2328F4CE232A04CE832584CF2B
:101C48000326C4CFAE87832604CF032744CF368527
:101C5800C98F2320F4F4B287D98F2322F4F4032701
:101C680004F4832744F49386818698C2DCC2938760
:101C7800018823A00700832704FB3EC09778001043
:101C8800938848461148894701478D461306000244
:101C9800A145032544FBEF00D049F32700B8BE80D7
:101CA80086872322F4DCF32700B0BE8086872320B2
:101CB800F4DCF32700B8BE808687232EF4DA0327E6
:101CC80044DC8327C4DB6308F700F32700B0BE8039
:101CD80086872320F4DC8327C4DB232CF4D0232E2F
:101CE80004D0832784D193970700232AF4D023288C
:101CF80004D0832704DC2324F4D0232604D08325AE
:101D080004D1032644D1AE87832684D00327C4D0C8
:101D18003685C98F2324F4F4B287D98F2326F4F4A7
:101D2800032784F48327C4F49386018798C2DCC20E
:101D3800938701879843DC43938681868842CC4207
:101D48003306A740328833380701B386B740B387D4
:101D58000641BE863287B6879386818798C2DCC2E1
:101D6800938781879843DC433A86BE86977500003F
:101D7800938545D917750000130505D5EF30306DEB
:101D8800F32700B8BE808687232CF4DAF32700B047
:101D9800BE808687232AF4DAF32700B8BE808687B8
:101DA8002328F4DA032784DB832704DB6308F7009E
:101DB800F32700B0BE808687232AF4DA832704DB62
:101DC8002328F4D2232A04D2832704D39397070025
:101DD8002326F4D2232404D2832744DB2320F4D2FD
:101DE800232204D2832584D20326C4D2AE87832635
:101DF80004D2032744D23685C98F2328F4F4B28746
:101E0800D98F232AF4F4032704F5832744F593860E
:101E1800818698C2DCC29387018823A007008327A4
:101E280044FB3EC09388C192176800101308083815
:101E3800A1470547A946130600209755001093852A
:101E4800E5F6032504FBEF00207EF32700B8BE80EB
:101E580086872326F4DAF32700B0BE8086872324FA
:101E6800F4DAF32700B8BE8086872322F4DA032742
:101E7800C4DA832744DA6308F700F32700B0BE808A
:101E880086872324F4DA832744DA2324F4D4232608
:101E980004D4832784D4939707002322F4D42320DF
:101EA80004D4832784DA232CF4D2232E04D2832566
:101EB80004D4032644D4AE87832684D30327C4D30B
:101EC8003685C98F232CF4F4B287D98F232EF4F4E6
:101ED800032784F58327C4F59386018798C2DCC25B
:101EE800938701879843DC43938681868842CC4256
:101EF8003306A740328833380701B386B740B38723
:101F08000641BE863287B6879386818798C2DCC22F
:101F1800938781879843DC433A86BE86977500008D
:101F2800938585C117750000130505BAEF30305247
:101F3800F32700B8BE8086872320F4DAF32700B0A1
:101F4800BE808687232EF4D8F32700B8BE80868704
:101F5800232CF4D8032704DA832784D96308F700ED
:101F6800F32700B0BE808687232EF4D8832784D930
:101F78002320F4D6232204D6832704D69397070078
:101F8800232EF4D4232C04D48327C4D92328F4D4AF
:101F9800232A04D4832584D50326C4D5AE87832673
:101FA80004D5032744D53685C98F2320F4F6B28794
:101FB800D98F2322F4F6032704F6832744F6938661
:101FC800818698C2DCC29387018823A00700138604
:101FD800C192A9451385C192F92AF32700B8BE809A
:101FE8008687232AF4D8F32700B0BE808687232863
:101FF800F4D8F32700B8BE8086872326F4D80327B1
:1020080044D98327C4D86308F700F32700B0BE80FB
:1020180086872328F4D88327C4D8232CF4D6232EE4
:1020280004D6832784D793970700232AF4D6232836
:1020380004D6832704D92324F4D6232604D683255B
:1020480004D7032644D7AE87832684D60327C4D66D
:102058003685C98F2324F4F6B287D98F2326F4F660
:10206800032784F68327C4F69386018798C2DCC2C7
:10207800938701879843DC43938681868842CC42C4
:102088003306A740328833380701B386B740B38791
:102098000641BE863287B6879386818798C2DCC29E
:1020A800938781879843DC433A86BE8697750000FC
:1020B800938585AA17750000130505A1EF303039FF
:1020C800232604FA232C04FA5DA01387C1928327E0
:1020D80084FBBA97838707003E85EF20B0572A878D
:1020E800AE8797760000938666AA9042D4423A85D6
:1020F800BE85EF10C06B2A87AE873A85BE85977775
:102108000000938727A99043D443EF1010682A87CB
:10211800AE873A85BE85EF203066D307A5202726EF
:10212800F4FA1387C192832784FBBA978387070041
:102138003E8917770010130727C8832784FB8A076F
:10214800BA9784430725C4FAEF2030572A87AE8709
:10215800A6864A86832584FB17750000130505A10A
:10216800EF30F02E832784FB8507232CF4FA03270E
:1021780084FBA547E3DBE7F481473E858320C14B19
:102188000324814B8324414B0329014B8329C14AF2
:10219800032A814A832A414A032B014A832BC149D6
:1021A800032C8149832C4149032D0149832DC148C2
:1021B8001301014C8280E1C91307F0EF8147B30690
:1021C800F5008386060013980601135808416353E7
:1021D800E800BA868507C20713970601C1874187B9
:1021E800E3CFB7FC611742074187814781487D43A8
:1021F800054EB306F50083860600635DD700998E09
:10220800370800806347D300054863C406003318C5
:10221800DE00C2988507C207C187E3CCB7FC370345
:1022280010003343130381479302D700FD4F130F68
:1022380000F8930EF007135EF341B306F5008386AA
:102248000600B308F600635DD702B386D2407288F1
:1022580063C7DF001A8863C406003358D340C286B8
:102268006354E801930600F863D4DE009306F00790
:102278002380D8008507C207C187E3C0B7FC8280E6
:1022880023800800C5BF02901D71D6C4BA8A328364
:102298001377360013F61A00518F035641066ADA8F
:1022A800A2CE32CA03568106A6CCCACACEC8D2C6A6
:1022B800DAC2DEC062DE66DC6ED832C646D6035DA0
:1022C80001076318071863870A163387F7023E8EDB
:1022D8003246B68B9307F3FF8546B396C60033089C
:1022E8000041C207865C33076702130A1500C183E1
:1022F80085862A8BAE8F36C802C202CC3E9A330935
:102308006E023AD41377F80F3AD263090D10925738
:10231800834DC10202D03EC402CEF247125F014C87
:10232800B3895703E247BE99B657BE99D247838807
:102338000C00B398F800C247BE9863030E08924396
:10234800A2420144139682016186B304F6039E8675
:102358000147634C0600B307EF00E207E18763C655
:1023680007006354F60163C7F70393071700C20712
:10237800C1839A966304FE003E87E1BF9307140069
:102388008502C207C18393F2F20FCA93630A8702D8
:102398003E844DBFE30B03FCA697B38767023388DF
:1023A800DB00B305FB00D29703850500830E080008
:1023B800850505083305D503AA98E397F5FE75B793
:1023C800B247B3D8F840930700F863D4F8009308ED
:1023D80000F89307F00763D417019308F0079307F1
:1023E8001C00C207238019016E9FC183D699137FF1
:1023F800FF0F6304FD003E8C15BF224772468256CC
:102408006E976A96938716001377F70FC20732CE36
:102418003AC4C183638486013ED001B7E2471247BC
:10242800A25685073ECC3697C207C1833AC2850CAF
:10243800E3ED57ED01457644E6445649C649364A28
:10244800A64A164B864B725CE25C525DC25D256102
:1024580082807555CDB71D71A2CE035441066ADA44
:102468006ED8A6CCCACACEC8D2C6D6C4DAC2DEC016
:1024780062DE66DC0D4322CC835D8106035D0107C5
:1024880063116618BA8B630F07143387F70236890E
:10249800BE868547B397B70185873ECA3308004192
:1024A800865C2A8A93171700BA973ED693F7F80FD7
:1024B800939416003EC89377F80F2E85B69402C6FB
:1024C80002CE3ED4930A3A0063020D10225C02D079
:1024D80002D28257A255014BB3897703F247BE99BE
:1024E800B657BE99E247838E0C00B39EFE00D247D2
:1024F800BE9EA9CAB24FE288014813978801618736
:102508003304A7028147B303F901634D07003383FE
:10251800F500620313538341634603006354A70025
:10252800634FA3048507139607014182E36FD6FC26
:102538000508420885081358080193F8F80FA69F64
:10254800E39D06FBB3DEBE41930700F863D4FE00AB
:10255800930E00F89307F00763D4D701930EF007A2
:10256800424793071B00C2072380D901BA95C1834C
:10257800DE9993F5F50F630BFD023E8BA5B7229309
:10258800131F1300139617001A9F3E963303EA0190
:102598001E96569F030E03008302060005030506D8
:1025A800330E5E02F29EE3176FFEADBF424612572E
:1025B800329C025693071700C2076A9632D0C1832D
:1025C800137CFC0F6304EB003ED221B7F24732477D
:1025D800325685073ECE3297C207C1833AC6850C6C
:1025E800E3E477EF01457644E6445649C649364A5E
:1025F800A64A164B864B725CE25C525DC25D256151
:1026080082807555CDB785C1FD15C2051307150024
:10261800C1812E978307050063D4070023000500B6
:102628000505E319E5FE82801971B6C4A2DEA6DCB1
:10263800CADACED8D2D6D6D4DAD2DED0E2CEE6CC3A
:10264800EACAEEC889822ACEB2C23ACC3EC842D87B
:1026580046C6638C0622135726003E843AD29387D7
:10266800F6FF7D170D8AC207420732D6C183418320
:102678007D160507850742068546B3968600418282
:10268800139427009317270005068586AA9736D046
:102698001207B38688003EDC93172600A2C6B2C094
:1026A80036D43ADA3EDE42CAD2476247838407000C
:1026B80003841700838327008382370091073ECA6B
:1026C8008257B394E4003314E400B393E300B39265
:1026D800E200BE943E94BE93BE929257638707244D
:1026E800D2577245B38DF50083070500830F250087
:1026F80003860500838C250083861500038C35002E
:1027080003874500838B6500038D5500038B750097
:10271800830E1500030F3500038E8500838AA500FC
:1027280003839500038AB5008388C5000389D50013
:102738008389E5000388F5003306F602C105110513
:10274800B38CFC03B386F60266962696330CFC031C
:102758003307F702369C6294B38BFB03B307FD0281
:102768005E97BA93B30FFB03330EDE03FE97BE9258
:102778003303D303B388D803B38AEA03330AEA03DB
:10278800569EB304CE00B389E90352931A943308D2
:10279800E803CE98C693B30ED9037698C292E39510
:1027A800B5F5E256B257A9C386473383F600AE871C
:1027B800038706008388070003881700038527001E
:1027C80003863700B388E802850691073308E802D4
:1027D800C6943305E50242943307E602AA93BA92F7
:1027E800E39866FCF257BE95C247B3D4F44093070A
:1027F80000F863D4F400930400F89307F00763D457
:1028080097009304F007B24723809700C2473354D8
:10281800F440930700F86354F400130400F8930796
:10282800F00763D487001304F007B247A38087003A
:10283800C247B3D3F340930700F863D4F30093037C
:1028480000F89307F00763D477009303F007B247C3
:1028580042472381770091073EC6B3D2E2409307EF
:1028680000F863D4F200930200F89307F00763D4EA
:1028780057009302F007B2472257A38F57FEE395FC
:10288800E7E2C2573647BA973ED8A6478D8BBDCFE9
:10289800B24842470543C6973313E300139807012C
:1028A80013531340930E00F8130EF0071358080142
:1028B800C2570387070085073ED8E2473317F7005A
:1028C80096471A97ADC7F2463385F5008387060009
:1028D8000386050085058506B387C7023E97E397FB
:1028E800A5FEC24785083357F7406354D70113073D
:1028F80000F86354EE001307F00793970801A38FBD
:10290800E8FEC18363840701AA855DB77654E6545F
:102918005659C659365AA65A165B865B764CE64C0B
:10292800564DC64D014509618280F246A5BD2E85EA
:102938004DBF397122DE26DC4ADA4ED852D656D43B
:102948005AD25ED062CE66CC6ACA6EC82AC6630204
:102958000610330CE040420C328F2E85368BBA8A33
:102968003E89C289814C814F135C0C01638C090C30
:102978008647E28D014DB38BF701B247014ABE9FEE
:10298800B30E490393940D01C184E283814201444B
:10299800338A4903B38E5E41DA9E63DAD40D939885
:1029A800030193D80841A6862688130EF0F7B305CD
:1029B8008902B3855541DA9563D0B8043303A80278
:1029C800C68746861387170063C2060263C00702DC
:1029D800635EA800B307C300635AA600B387E70382
:1029E800FE97838707006353FE003E8E9317070107
:1029F800C1873E86E3C8B7FC8506C206C18636880D
:102A0800E3CCD6FB620E135E8E41B3078A00B38710
:102A1800E7038502C202CA9393D20241C203168415
:102A280093D30301DE972380C701E3C832F7050D6E
:102A3800420DCA9D135D0D41C20D6A8A93DD0D01D9
:102A4800E3403DF5850CC20C93DC0C41E68FE3CFE7
:102A5800ECF17254E2545259C259325AA25A125BDA
:102A6800825B724CE24C524DC24D21618280130E42
:102A7800F00761BF397122DE26DC4ADA4ED852D619
:102A880056D45AD25ED062CE66CC6ACA6EC82AC6FE
:102A98007DCA330CE040420C328F368BBA893E89AE
:102AA800428A814C814A135C0C0163070A0CB247C5
:102AB800E28D014DB38F57018647814BBE9AB30E05
:102AC800790313940D014184E28381428144B38BDD
:102AD8004B03B38E3E41DA9E6355D40D1398030120
:102AE80013580841A286228501438148330699027A
:102AF800330636415A96635CC802330EB502C28764
:102B0800428763C0060263CE0700635CB500635A60
:102B1800B700729705033307E7037E97030707009B
:102B2800BA988507C207C1873E87E3CCC7FC8506EC
:102B3800C206C1863685E3C0D6FDB3C86802B3872E
:102B48009B008502C202CA9393D20241C2039684B3
:102B580093D30301B387E703D69723801701E3CD07
:102B680042F7050D420DCA9D135D0D41C20DEA8B5A
:102B780093DD0D01E3454DF5850CC20C93DC0C414A
:102B8800E68AE3C4ECF37254E2545259C259325AF9
:102B9800A25A125B825B724CE24C524DC24D2161CB
:102BA80082800290AA88AE873288368546836396EB
:102BB8000620976600009386E60563FFC50A41670D
:102BC8006375E60A1307F00F3337C7000E0733554E
:102BD800E600AA9683C60600130500023697B306D8
:102BE800E540630BE500B395D70033D7E800331809
:102BF800D600D98D3393D80093580801B3D615035E
:102C08001316080141829357030133F715033685DC
:102C1800B305D6024207D98F63FCB700C297138564
:102C2800F6FF63E7070163F5B7001385E6FFC29770
:102C38008D8F33F71703420313530301B3D71703D9
:102C4800420733636700B306F6023E86637BD30010
:102C580042931386F7FF636603016374D3001386F8
:102C6800E7FF4205518D81455DA8370500014147C1
:102C7800E36FA6F46147A1BF01E605473358C702D1
:102C88004167637FE8081307F00F63730701214565
:102C98003357A800BA9603C70600130600022A97FE
:102CA800B306E6406315E608B387074185459358A0
:102CB800080113160801418213570301B3F61703DD
:102CC800B3D71703C206558F330EF6023E85637CD1
:102CD800C70142971385F7FF636707016375C7014B
:102CE8001385E7FF42973307C741B37717034203BA
:102CF8001353030133571703C20733E36700B306BF
:102D0800E6023A86637BD30042931306F7FF6366B5
:102D180003016374D3001306E7FF4205518D8280D7
:102D2800370700014145E365E8F6614595B7331873
:102D3800D80033D5E7003393D800B397D70033D7FB
:102D4800E800935808013366F700337715039317A3
:102D58000801C183935506013355150342074D8F6A
:102D6800B386A702AA85637CD70042979305F5FF2F
:102D7800636707016375D7009305E5FF4297B306BC
:102D8800D74033F7160342064182B3D616034207EB
:102D98003385D702B367C700368763FCA700C2979D
:102DA8001387F6FF63E7070163F5A7001387E6FFBC
:102DB800C297C205898FD98DDDBD63E2D5144167FD
:102DC80063FFE6021307F00FB335D7008E0533D53E
:102DD800B600176700001307E7E32A9703470700C1
:102DE800130500022E97B305E5406311E50205457A
:102DF800E3E7F6F233B5C800134515000DB73707FA
:102E08000001C145E3E5E6FCE145D1B73358E600EA
:102E1800B396B6003368D80033D3E700935E080151
:102E2800B376D303B397B70033D7E800331EB600A1
:102E38003366F70093170801C1831357060133530C
:102E4800D303C206558F338F67021A85637CE70167
:102E580042971305F3FF636707016375E7011305DD
:102E6800E3FF42973307E741B376D7033357D703D6
:102E7800C2063383E70293170601C183D58F3A86CA
:102E880063FC6700C2971306F7FF63E7070163F562
:102E980067001306E7FFC2974205C16E518D9386FE
:102EA800FEFF13560E0113580501B38767403373AD
:102EB800D500B376DE00330ED302B306D80213571B
:102EC8000E013303C30236931A973308C80263739B
:102ED800D700769893560701369863E00703E39482
:102EE80007D9C167FD177D8F4207337EFE00B3986F
:102EF800B80072978145E3F4E8E27D15ADB38145EA
:102F0800014531BD011106CE22CC26CA4AC84EC69B
:102F180052C4F3292000B7081000FD1833F7B80091
:102F280013D4450193D4F50193D54601931737007F
:102F3800B3F8D8001357D5011374F47F93F5F57FD0
:102F48005D8F13D3F601931735009356D6018E087B
:102F58003305B44013183600B3E616012A86639188
:102F680064346359A010B9E133E5060111E593060D
:102F7800F07F631CD62A39A81305F6FF01E93E98AD
:102F8800BA96B337F800BE96054659A09308F07F65
:102F980063111605B366F700638C066EB70640002A
:102FA800F98E014463920620C145FDAA1306F07FFD
:102FB800631EC400B366F700638F066CB706400053
:102FC800F98E638506121306F07F85A43706800004
:102FD800D18E13068003634AA6087D466340A60681
:102FE80013060002098EB358A800B395C60033181B
:102FF800C800B3E515013338000133E8050133D5BE
:10300800A6003E983A95B337F800B306F500228635
:10301800B7078000F58FB5CB05069307F07F6301EE
:10302800F626370780FF7D1793571800758F13789A
:10303800180033E807019317F701EDA2930505FE81
:1030480093080002B3D5B6000146630815011306BC
:1030580000043305A6403396A600336806013338CA
:10306800000133E80501014569BF33E8060133383B
:103078000001D5BF7DC93386854021E83365F70057
:1030880011E99307F07F6306F6023687C28763016A
:10309800064061AA9308F6FF63990800C29733B8FF
:1030A8000701BA96C2963E88C5B51305F07F631529
:1030B800A604B3E706016383075EB7074000F58FF0
:1030C8003687639F075CC287C5B51305F07F639198
:1030D800A502B3E706016380075AB7074000F58FDA
:1030E8003687639F0758C2871306F07F01446DBD7A
:1030F80037058000498FB28813068003634316079B
:103108007D46634B1603130500023305154133163C
:10311800A70033D31701B397A70033666600B33708
:10312800F000D18F33571701C2973697B3B607010E
:10313800BA963E882E86E9BD138608FE1303000260
:103148003356C7000145638868001305000433053A
:1031580015413315A700C98FB337F000D18F014748
:10316800E1B7D98FB337F000DDBF1306140013752C
:10317800E67F41ED3365F70021E46301054C33E652
:103188000601630706303E98B337F80036973E9736
:10319800B7078000F98F6384074AB70780FFFD17D8
:1031A8007D8F8145C287054693F67700C5E6630D96
:1031B800045693F615006389065693E52500ADA3DA
:1031C8001306F07F631DC402630F055C37064000D9
:1031D800798E133616001206639D8552B28533E642
:1031E800060111C637064000758E11E2C14563130A
:1031F80005523687C28701441306F07F75B763947A
:10320800C5008145E9BF8145DDB79305F07F6300BF
:10321800B6023E98B337F80036973E979317F701F2
:1032280013581800B3E70701058301449DA9638675
:1032380009008D476396F90081E81306F07F81A89D
:1032480089476393F900F5F801447D57FD57130644
:10325800E07F9545894693E515006385D9488D46F5
:10326800638ED9466391094893F6F7001145638C3C
:10327800A64693864700B3B7F6003E97B687A5A142
:10328800638709008D476398F900639D043E0147F1
:103298008147954551A989476396F93EEDF86DB781
:1032A8006356A00CC9E133E50601E30205CC13051A
:1032B800F6FF11E933880741B306D740B3B70701D2
:1032C8009D8E0546A9A09308F07FE30516CD130649
:1032D80080036348A6087D46634FA60413060002D0
:1032E800098EB395C600B358A8003318C800B3E5D3
:1032F80015013338000133E80501B3D6A600338839
:103308000741B306D740B3B707019D8E2286370918
:103318008000B3F72601E38A07D67D1933F9260121
:10332800428A3284B5A41306F07FE305C4C8370681
:103338008000D18E69BF930505FE93080002B3D5BE
:10334800B60001466307150113060004098E33967B
:10335800C600336806013338000133E805018146A9
:1033680079BF33E8060133380001D5BF75CD338600
:10337800854039E43365F70009E59307F07F9A84BF
:1033880019B39308F6FF639C0800B307F840333875
:10339800F800998EB38606419A843E881DB71305B6
:1033A800F07F6316A604B3E70601638E072EB707FE
:1033B8004000F58F3687639B072EC2879A84EDB647
:1033C8001305F07F6391A502B3E706016383072E17
:1033D800B7074000F58F36876391072EC28713061B
:1033E800F07F9A8421B337058000498FB28813068D
:1033F8008003634716077D46634F160313050002D3
:10340800330515413316A70033DE1701B397A7001C
:103418003366C601B337F000D18F33571701B307AE
:10342800F8403387E640B336F800B306D7403E8805
:103438002E869A84E9BD138608FE130E00023356C1
:10344800C70001456388C801130500043305154109
:103458003315A700C98FB337F000D18F0147C1B723
:10346800D98FB337F000DDBF130614001376E67F5B
:103478007DEAB368F70033E506015DE0639208066C
:103488006311051C9384E9FF93B414000147814735
:10349800B3E6E7006380062493D6F70113141700F8
:1034A80036949396170013F67600814505C60946AB
:1034B8006389C91A0D46638CC9188545639C090040
:1034C80013F6F60011456307A60093B6C6FF93C628
:1034D8001600369461801344140005880146E9B14A
:1034E80045D9B385074133B5B7003306D740098EB0
:1034F80037058000718D19C9B307F8403387E64056
:103508003338F800330707419A8459B7B3E7C50041
:10351800639C07129384E9FF93B4140001478DBF9D
:103528001306F07F631EC400638708263706400031
:10353800798E13361600120663938526B28521A06C
:103548006391C502814511C537064000758E11E2A9
:10355800C14563970824630705163687C2879A848E
:1035680059B98145FDB7338A074133B64701330955
:10357800D7403309C940370680003376C9002DC6C5
:10358800330AF840998E33384801338906419A84C2
:10359800630009064A85EF103040130685FFFD4792
:1035A80063CEC70493060002918E3317C900B35641
:1035B800DA00D98E3318CA00634B8606018E1307CA
:1035C8001600FD4763C2E70413060002198EB3977D
:1035D800C6003355E8003316C800C98F3336C0001B
:1035E800D18F33D7E6006DB5B3672A01D5F31DB780
:1035F8005285EF10703A1305050245B7930685FD0D
:10360800B316DA0001484DBF05169305000233D6FC
:10361800C60081476307B70093070004998FB397E3
:10362800F600B367F800B337F000D18FC5BDB70710
:1036380080FFFD173306C440FD8E81BC3687C287E4
:1036480081BD3687C287C9B53287AE8791B5A68551
:10365800E39204E893B686FF93C616003694854530
:1036680095BD8545E38804E693B686FF93C61600A4
:103678003694A68585B501471306F07F81456DA070
:10368800C28791B27D57FD571306E07F0144D1B63A
:103698000147814751A801478147F9BF0147F9BF51
:1036A800C287814511B601479A84C9BFC2879A84E7
:1036B800CDBF01471306F07FC5BFC2871306F07F51
:1036C8009A84A5B681478144370740001306F07FE6
:1036D800C14599A80147814701464DB789E49386BA
:1036E800870051BEEDFCE31A04AC3DA88147638E08
:1036F80009000D476397E90089C8FD571306E07F65
:1037080029A00947E39BE9FEEDD893E555003E87DC
:103718000DA8B285B3E60601E38F06AC81443707EE
:10372800400081471306F07FB7068000F98E91CAE2
:1037380005069306F07FE30BD6FAB70680FFFD1661
:10374800758F13D537009306F07F9317D701C98F6C
:103758000D836319D600D98F014789C73707080039
:1037680081478144B706F07F52063207758E318350
:10377800518FFE04B36697003E87B68799C173A040
:103788001500F2406244D2444249B249224A3A857D
:10379800BE8505618280E38785DA81456DBBB28588
:1037A800E30B05A4A5BFE38E85A4814599B479717F
:1037B80022D456CA66C206D626D24AD04ECE52CC9B
:1037C8005AC85EC662C42A84B28CB68A732920009D
:1037D80013DB4501939BC500137BFB7F93DBCB0079
:1037E80013DAF50163060B029307F07F630BFB0600
:1037F8001357D5018E0BB36B7701B7078000B3EB76
:10380800FB0093193500130B1BC0014C8144BDA06C
:10381800B3E7AB00E9C7638B0B025E85EF10D017E7
:10382800130755FFF14763C8E702F546930985FF7B
:10383800998EB39B3B01B356D400B3EB7601B31911
:1038480034019305D0C0338BA540C1B7EF10D01415
:1038580013050502F1B7930B85FDB31B740181496C
:10386800CDB733E4AB0049C0B7070800B3F7FB0096
:10387800AA89130BF07F0D4CC144C9FB1395CA00EC
:103888001354C50013D54A019375F57FE68793DA7B
:10389800FA01ADC11307F07F6388E50A93D7DC010D
:1038A800131534005D8D37048000498C93973C00D4
:1038B800138515C0014793162C00D98EB305AB406C
:1038C800FD16394533465A016369D50A1755000074
:1038D8001305C52C8A06AA969442AA968286814B1D
:1038E8008149014B054C1DB7814B8149130BF07F72
:1038F800094C29BFB3679401A5C71DC82285EF10DD
:10390800B009AA85938655FFF14763C9D702754761
:10391800938785FF158F3315F40033D7EC00336494
:10392800A700B397FC001307D0C03305B74059B7B9
:103938006685EF10700693050502E9B7138585FDC6
:103948003394AC008147C5B73366940119CE370765
:103958000800618F1305F07F19EF0D47C144A1BF1F
:103968000144814701450547B9B70144814713051B
:10397800F07F094789B70D473DBF636674016394BB
:103988008B2663E2F9261395FB0113D7190093964A
:10399800F90193DB1B00B369E5001315840013D804
:1039A80087013368A800418133DEAB02131F080189
:1039B800135F0F019398870093D70901B3FBAB02FC
:1039C80072833307CF03C20BB3E7770163FCE700C9
:1039D800C2971303FEFF63E7070163F5E7001303CC
:1039E800EEFFC297998FB3DEA702139709014183AF
:1039F800B3F7A702F689330EDF03C2075D8F637C36
:103A0800C70142979389FEFF636707016375C70182
:103A18009389EEFF42974203B36933014163930EE2
:103A2800F3FF93D2090193DF08013307C74133FE3F
:103A3800D901B3FED801B307DE033384D203338E32
:103A4800CF03B3038E0013DE07011E9EB382F20379
:103A580063738E009A92C16313530E01FD139A92F9
:103A680033737E004203B3F777003E9363675700D2
:103A78004E84631E570263FC6602C696B3B71601EE
:103A8800C2973E971384F9FF6366E8006311E80262
:103A980063EF160163665700639BE20063F96600F3
:103AA800C696B3B71601C2971384E9FF3E973383CE
:103AB800664033075740B3B66600158FFD57630756
:103AC800E80EB352A702935703013377A7029686ED
:103AD800330E5F0242075D8F637CC701429793866E
:103AE800F2FF636707016375C7019386E2FF429798
:103AF8003307C741335EA70293170301C1833377A6
:103B0800A702330FCF0342075D8FF287637CE7017B
:103B180042979307FEFF636707016375E701930701
:103B2800EEFF4297C206DD8E93970601C18313D339
:103B38000601338E6F023307E741B38FFF02338FDD
:103B4800FE02B30ED30393570F01F69FFE9763F45B
:103B5800D70141652A9E13D307017293416E7D1EDA
:103B680033F5C7014205337FCF017A956366670055
:103B78006312672CB6871DC942979387F6FF636166
:103B88000703636667006316672A63FDA8009387C7
:103B9800E6FF93961800B3B8160146984297B68880
:103BA800631467006384A80093E717001388F53F40
:103BB8006358001113F7770025CF094793E41400E1
:103BC8006307E9060D476300E9066313090613F75F
:103BD800F7009146630ED70413874700B337F70001
:103BE8003E94BA87B1A0FD15814645BB52865E84D6
:103BF800CE8762878D466307D72285466301D72221
:103C08008946E315D7FA29A05686EDB793E48400D0
:103C1800014581471307F07F91A0370408008147C9
:103C280001460D47C1BF09E61387870045BF6DFEF2
:103C380037070001618F19C7370700FF7D17798C97
:103C4800138805401307E07F6346070513D737003D
:103C58009317D401D98F1355340042875207B706FA
:103C6800F07F3205758F3181598D7E063367C50027
:103C7800BA853E8599C073A01400B250225492545C
:103C88000259F249624AD24A424BB24B224C924CF8
:103C98004561828089476303F9028D476308F9000B
:103CA8006317090081471307F07F29A065DEFD57D8
:103CB8001307E07F93E454003E854DB765F6C5BF12
:103CC80005476314080493F6770022879DCA89463E
:103CD80093E414006306D9028D46630FD90063127A
:103CE800090293F6F7001145638DA60013B7C7FFC5
:103CF80013471700229731A009E613B787FFCDBFF6
:103D08006DFE618313471700058B05453305054193
:103D18009306800363C2A60CFD4663CAA604938576
:103D2800E54133D8A700B316B400B397B700B3E69C
:103D38000601B337F000D58F3355A40093F677000A
:103D4800ADC2894693E41400630CD9048D4663051B
:103D5800D9046318090493F6F70091456383B60400
:103D680093864700B3B7F6003E95B6871DA88556DB
:103D7800B386064193080002B356D400014863068F
:103D880015019385E5433318B400B367F800B337DA
:103D9800F000D58F01455DB709E693868700D9B74E
:103DA8006DFEB7068000E98E81CA93E414000145D0
:103DB800814705E305475DB593D637009317D501CD
:103DC800D58F0D81E30C07E813F71400E30807E823
:103DD800014793E4240059B5C18F91CF894793E4F3
:103DE80014006303F9028D47630CF90085476313D8
:103DF800090095478D8393E4240001450147B9BD27
:103E0800A5476DDA8547FDB7A5476DF6E5BF3705C8
:103E1800080081471307F07F0146C14481B5014579
:103E28008147E9BF3705080081471307F07F01463E
:103E380035B5BE86B6878DBB2A88F3272000B7071D
:103E4800100093D84501FD1713D346012A8E93F825
:103E5800F87F1305F07F33F7B700B28EF58FFD8139
:103E68001373F37FFD826398A8003365070131E57A
:103E78006314130719A06315A30033E5C70015E5FC
:103E88000545639C6804631AF7046318DE05638CB0
:103E9800D50063940804336707013335E000828056
:103EA8007360180015A8014582809306F07F63911E
:103EB800D80233680701630D0800B7060800758F3C
:103EC80065D31307F07F05456319E3005D8E11C6BE
:103ED80037070800F98FE9D705458280AA87732735
:103EE8002000370710007D1713D84501B378B700B5
:103EF8002A831378F87F13D5F501930EF07F93D5B5
:103F08004601758F328E93F5F57FFD82631AD801CD
:103F1800B3EEF80063860E067360180009458280C8
:103F28006396D501B36EC700E3980EFE631C0804C0
:103F3800B3E7F80093B7170099E1598E0DCE81EBDE
:103F48006314D50063D905010DC57D5582807D5563
:103F580091C6368582806354B80065D98280E3654E
:103F680017FF639CE800E3616EFEE368C3FF014549
:103F7800828005458280E5FFC1BFE3E0E8FEC5BF5A
:103F8800E38205FBD5FD81474DBF797122D456CA1E
:103F980066C206D626D24AD04ECE52CC5AC85EC683
:103FA80062C42A84B28CB68A7329200093DB450147
:103FB8009399C50093FBFB7F93D9C90013DBF501E7
:103FC80063860B029307F07F638BFB069357D5013B
:103FD8008E09B3E93701B7078000B3E9F900131A6E
:103FE8003500938B1BC0014C8144BDA0B3E7A900E9
:103FF800E1C7638B09024E85EF10001A130755FFBE
:10400800F14763C8E702F547130A85FF998FB3990B
:104018004901B357F400B3E93701331A4401930B4C
:10402800D0C0B38BAB40C1B7EF1000171305050222
:10403800F1B7930985FDB3193401014ACDB733E4CB
:10404800A90041C0B7070800B3F7F9002A8A930B03
:10405800F07F0D4CC144C9FB13D54A011394CA0023
:104068001375F57FE687318093DAFA012DC11307BE
:10407800F07F6306E50A93D7DC010E045D8CB70771
:1040880080005D8C130515C093973C00014793167B
:104098002C00D98EAA9BFD163946B3455B011385C2
:1040A8001B00636AD60E175600001306E6B28A068E
:1040B800B2969442B29682868149014A814B054C58
:1040C80025B78149014A930BF07F094C31BFB3678B
:1040D8009401B5C30DC82285EF10000C930655FF57
:1040E800F14763C8D7027547930785FF158F3314C7
:1040F800F40033D7EC00598CB397FC001307D0C0F9
:104108003305A74061B76685EF100009130505025E
:10411800F1B7130485FD33948C008147C5B7336626
:10412800940119CE37070800618F1305F07F19EF46
:104138000D47C144A9BF014481470145054781BFD7
:10414800014481471305F07F094791B70D4781B7AF
:104158003704080081471307F07F8145C14452079F
:10416800B706F07F3204758F3180FE05598C3367AE
:10417800B4003E85BA8599C073A01400B250225489
:1041880092540259F249624AD24A424BB24B224CEB
:10419800924C45618280C16E138EFEFF13570A014F
:1041A80093D80701337ACA01B3F7C70133884803A4
:1041B800B3864703330FF7023303E80113D8060128
:1041C8001A98330617036373E8017696935F08011C
:1041D8003378C801B3F6C601935E0401337EC40187
:1041E80042083698330FC703B306CA03338A4E030F
:1041F8003303EA0113DA06011A9A3307D703637403
:10420800EA0141631A9713530A013A934167130F5E
:10421800F7FF337AEA01B3F6E60113D40901420A3B
:10422800B3F9E901338F3703369AD29FB38638033F
:10423800B307F402B3828802B388F60093560F01DD
:10424800C69663F3F600BA9241679307F7FF337F88
:10425800FF0093D80601FD8EB387C903C206FA96FC
:104268009698330EC403B3893E03338F8E02F299B6
:1042780013D40701A29963F3C9013A9F416E7D1EC9
:1042880033F7C901B3F7C70142077E963E97333A21
:1042980046011A97330447013696B336D600330ED3
:1042A8001401B30EDE003337670033344401598CF0
:1042B800B3B6DE0093D90901B3381E014E94B3E6B4
:1042C800D80036947A9493D77E0126045D8C931790
:1042D8009600B3E70701B337F0005D8237070001A6
:1042E800D18FA60E618FB3E7D70125CB13D717005F
:1042F800858BD98F1317F401D98F05801308F53FE3
:104308006350000D13F7770025C3094793E41400A1
:10431800630BE9040D476304E9046317090413F701
:10432800F70091466302D70413874700B337F700B5
:104338003E94BA8715A8DA854E84D2876287894663
:104348006307D71C8D466309D71C8546E318D7FA3F
:104358000144814765A2D685DDB75E8545B789E505
:1043680013878700E1B7EDFD37070001618F19C793
:10437800370700FF7D17798C130805401307E07F86
:10438800634A070113D737009317D401D98F0D80DB
:104398004287F1B389476303F9028D476308F9003F
:1043A8006317090081471307F07F29A0E5DDFD5752
:1043B8001307E07F93E454003E8455B3E5F5C5BF89
:1043C80005476314080493F6770022879DCA894637
:1043D80093E414006306D9028D46630FD900631273
:1043E800090293F6F7001146638DC60013B7C7FF9D
:1043F80013471700229731A089E513B787FFCDBF70
:10440800EDFD618313471700058B8546B38606418A
:10441800130680036342D60C7D46634AD60413050F
:10442800E5413316A40033D8D700B397A700336605
:104438000601B337F000D18F3354D40093F67700D8
:10444800ADC2894693E41400630CD9048D46630514
:10445800D9046318090493F6F70011466383C60468
:1044680093864700B3B7F6003E94B6871DA8055655
:1044780033060641930800023356C4000148638698
:1044880016011305E5433318A400B367F800B337E2
:10449800F000D18F01445DB789E593868700D9B7CD
:1044A800EDFDB7068000E18E81CA93E41400014453
:1044B800814705E3054765B193D637009317D401C3
:1044C800D58F0D80E30D07C813F71400E30907C85B
:1044D800014793E4240061B1C18F91CF894793E4E8
:1044E80014006303F9028D47630CF90085476313D1
:1044F800090095478D8393E424000144014785B161
:10450800A547EDD98547FDB7A547EDF5E5BF0144BA
:1045180081471307F07FA1B13704080081471307CB
:10452800F07F81452DB9011106CE22CC26CA4AC892
:104538004EC652C4F3292000B7081000FD1833F7FF
:10454800B80013D44501B3F8D80093D4F50193D536
:1045580046019317370013D3F6011357D501935625
:10456800D6018E081318360093F5F57F1306F07FF1
:104578005D8F1374F47F93173500B3E616016395C6
:10458800C50033E6060119E2134313003306B440AD
:104598006316933C6350C012A9E933E506010DE1A7
:1045A8009306F07F01446313D624B366F700638E45
:1045B800067837044000798C1334140012043DA4A3
:1045C8001305F6FF01E93E98BA96B337F800BE9690
:1045D800054641A09308F07F631F1603B366F700F2
:1045E800E9FA0147814701448DAC9305F07F6310D8
:1045F800B402B366F700638D0674B7064000F98EFF
:104608001306F07F81456390062E4144C5A2B70585
:104618008000CD8E3285130680036348A6087D4648
:10462800634FA60413060002098EB395C600B3585B
:10463800A8003318C800B3E515013338000133E882
:104648000501B3D6A6003E98BA96B337F800BE96D1
:104658002286B7078000F58FADCB05069307F07F5C
:10466800630EF62C370780FF7D1793571800758F58
:104678001378180033E807019317F7018DA4930501
:1046880005FE93080002B3D5B6000146630715017D
:1046980013060004098E3396C600336806013338C2
:1046A800000133E80501814679BF33E80601333854
:1046B8000001D5BF65CE3386854029E83365F7000C
:1046C80011E99307F07F6306F6023687C287630E07
:1046D800064609AC9308F6FF63990800C29733B8F9
:1046E8000701BA96C2963E88E5B51305F07F6316B2
:1046F800A604B3E70601014763810716B707400020
:10470800F58F368763990764C28715A01305F07F74
:104718006391A502B3E70601638B0760B707400002
:10472800F58F368763990760C2871306F07F814546
:10473800E9BD37058000498FB288130680036343BB
:1047480016077D46634B1603130500023305154112
:104758003316A70033D31701B397A7003366660053
:10476800B337F000D18F33571701C2973697B3B6D6
:104778000701BA963E882E86E9BD138608FE130304
:1047880000023356C700014563886800130500041A
:10479800330515413315A700C98FB337F000D18F02
:1047A8000147E1B7D98FB337F000DDBF1306140016
:1047B8001375E67F631805103366F70039E0630B5D
:1047C800065233E60601630206383E98B337F8000E
:1047D80036973E97B7078000F98F638E0750B70763
:1047E80080FFFD177D8F8145C287054693F67700C8
:1047F80063900612BDC193761400A5C21364240009
:10480800A9A81305F07F6315A4026304065C3704A6
:104818004000798C1334140012046397A502B3E5A1
:10482800060191C9B7054000F58D91E5414421A0E5
:104838000144E386A5FE09EA3687C2878145130647
:10484800F07F6DB70144E1BFB3E60601E5DA8144C4
:104858003707400081471306F07FB7068000F98EBE
:1048680091CA05069306F07F630ED652B70680FFFD
:10487800FD16758F13D537009306F07F9317D70170
:10488800C98F0D836319D600D98F014789C73707A8
:10489800080081478144B706F07F52063207758EBB
:1048A8003183518FFE04B36697003E85B68519C0E3
:1048B80073201400F2406244D2444249B249224A69
:1048C800056182809305F07F6301B6023E98B33795
:1048D800F80036973E979317F70113581800B3E777
:1048E800070105838145014411B7638609008D4797
:1048F8006396F90081E81306F07F81A889476393DE
:10490800F900F5F881457D57FD571306E07F1544FA
:104918008946136414006383D9488D46638CD9464D
:10492800639F094693F6F7001145638AA646938666
:104938004700B3B7F6003E97B68795A1638709008D
:104948008D476398F900639C043E014781471544ED
:1049580029B789476395F93EEDF86DB76357C00CE1
:10496800C9E133E50601E30D05C21305F6FF11E9B8
:1049780033880741B306D740B3B707019D8E054674
:10498800A9A09308F07FE30B16C5130680036349BB
:10499800A6087D466340A60613060002098EB39555
:1049A800C600B358A8003318C800B3E5150133385A
:1049B800000133E80501B3D6A60033880741B306E2
:1049C800D740B3B707019D8E228637098000B3F719
:1049D8002601E38C07CE7D1933F92601428A3284F9
:1049E800B5A49305F07FE306B4C0B7058000CD8E6B
:1049F800328561BF930505FE93080002B3D5B60062
:104A080001466307150113060004098E3396C60094
:104A1800336806013338000133E80501814671BF68
:104A280033E8060133380001D5BF6DCE33868540A3
:104A380039E43365F70009E59307F07F9A8461B19B
:104A48009308F6FF639C0800B307F8403338F80072
:104A5800998EB38606419A843E8815B71305F07F70
:104A68006315A604B3E70601638A072EB70740005B
:104A7800F58F36876397072EC2879A844DB9130539
:104A8800F07F6390A502B3E70601638F072CB70791
:104A98004000F58F3687639E072CC2871306F07F88
:104AA800E9BF37058000498FB28813068003634742
:104AB80016077D46634F160313050002330515419B
:104AC8003316A70033DE1701B397A7003366C60174
:104AD800B337F000D18F33571701B307F840338746
:104AE800E640B336F800B306D7403E882E869A844F
:104AF800E9BD138608FE130E00023356C7000145B0
:104B08006388C80113050004330515413315A70050
:104B1800C98FB337F000D18F0147C1B7D98FB337E9
:104B2800F000DDBF130614001376E67F7DEA3365D7
:104B3800F70033E6060155E02DE16310061C938467
:104B4800E9FF93B4140001478147B3E6E700638F98
:104B5800062293D6F70193151700B695939617007A
:104B680013F67600014405C609466388C91A0D463E
:104B7800638BC9180544639C090013F6F6001145B8
:104B88006307A60093B6C6FF93C61600B695E181E3
:104B980093C515008589014691B945DAB385074162
:104BA80033B5B7003306D740098E37058000718DBD
:104BB80019C9B307F8403387E6403338F80033079C
:104BC80007419A8459B7B3E7C500639B07129384DA
:104BD800E9FF93B4140001478DBF9308F07F631376
:104BE80014036304051E37044000798C1334140041
:104BF80012046395150311CAB7054000F58D91E5B8
:104C0800414421A00144E38815FF09E96308061619
:104C18003687C2879A841DB10144F1BFE30006C2FA
:104C28003DB1338A074133B647013309D7403309C9
:104C3800C940370680003376C90025C6330AF840D4
:104C4800998E33384801338906419A84630F0904E1
:104C58004A859923130685FFFD4763CDC70493064C
:104C68000002918E3317C900B356DA00D98E331873
:104C7800CA00634A8606018E13071600FD4763C102
:104C8800E70413060002198EB397C6003355E800EF
:104C98003316C800C98F3336C000D18F33D7E6002A
:104CA8006DB5B3672A01DDF31DB75285F5211305EC
:104CB80005024DB7930685FDB316DA00014855BFC6
:104CC80005169305000233D6C60081476307B7006F
:104CD80093070004998FB397F600B367F800B337CA
:104CE800F000D18FCDBDB70780FFFD173306C44054
:104CF800FD8EE1BA3687C28789BD3687C287D1B5AE
:104D08003287AE8799B52684E39304E893B686FF85
:104D180093C61600B69505449DBD0544E38904E68F
:104D280093B686FF93C61600B69526848DB50147BF
:104D38001306F07F4DB8C2871306F07F65B67D571E
:104D4800FD571306E07F8145D9B60147814731B643
:104D580001478147F1BFC287814549BC01479A8411
:104D6800EDBCC2879A84CDBF01471306F07F9A84B1
:104D78009DB8C2871306F07F9A84ADB681478144F7
:104D8800370740001306F07F4144C1BC0147814703
:104D9800014691B889E49386870061BEEDFCE39FE4
:104DA80005A465BC8147638E09000D476397E90038
:104DB80089C8FD571306E07F29A00947E39BE9FE50
:104DC800EDD8136454003E8775B4E38785E4014445
:104DD80035BDE38985A6014485B42A87F3272000D9
:104DE800B7071000FD1733F8B700D181F58F93F599
:104DF800F57FD1821305F07F93F6F67F6395A500C2
:104E08003365E80005E19308F07F014563931605D3
:104E1800B3E8C7006393080082806393D5023367C1
:104E2800E80001CF370708003378E800630F08006F
:104E38001307F07F0545639EE6005D8E054511CAA0
:104E480037070800F98F054589E77360180005459D
:104E580082808280411106C622C426C221CD935782
:104E6800F54133C4A7001D8C9354F50122852D26E6
:104E78001307E041A947098F63C8A702AD47898F87
:104E88005505B357F4003314A4002685B20752071A
:104E9800B1837E05D98FB24033E7A700228522442B
:104EA8009244BA85410182805515B317A40026851E
:104EB8000144E9BF01478147E5BF4111D30705E038
:104EC80006C622C426C24AC07327200093D477019D
:104ED80093F4F40F13871400139497001377E70FD4
:104EE800258013D9F7010DCB138504389357340067
:104EF80081447604B2075205B183C98F7E0933E72E
:104F080027012285BA8599C073A01400B2402244B3
:104F1800924402494101828095E829C82285AD2C36
:104F2800A94763CFA700AD47898F13075501B3572A
:104F3800F4003314E400130790383305A7405DBF2D
:104F4800930755FFB317F4000144F5B71DC0B70721
:104F58004000E18F91E3414793573400B7060800BA
:104F68007604D58FBA841305F07F69B78147014568
:104F780051B781478144C5BF7328200013D7450125
:104F88009378F77F9397C50013871800A5839356E6
:104F9800D5011377E77FDD8EFD8193173500630D0B
:104FA8000710138608C81307E00F635DC704630B77
:104FB80008148D476319F80063860514FD57130616
:104FC800E00F014711A88947E31AF8FE639C051210
:104FD8000147FD571306E00F9548894693E81800E6
:104FE8006307D8188D466300D8186318080093F62D
:104FF800F70011456383A60091076309071093E83A
:10500800280029A2634AC0082557634CE60A3707D7
:1050180080007945D98E118D7D47634CA70413878D
:1050280028C833D5A700B397E700B337F000B39685
:10503800E600DD8EB367D500638407121397170067
:1050480093767700814885C289466308D80A8D46D9
:105058006300D80A8548631808009376F70011465C
:105068006383C60011076D8313471700058B01463C
:105078002DA879573306C7401303000233D6C6005C
:10508800014763066500138728CA3397E600D98F5E
:10509800B337F000D18F4DB71A053335A0008E060F
:1050A800F583C98ED58F0147814893F6770095F629
:1050B80031CF13F7180091B7D58F639608000146D2
:1050C800B1C78547A5BFC9CB9307F07F6390F802A6
:1050D800B7084000B3F8160193B8180092088E0676
:1050E800B7070002D58F1306F00FC1B78148C5BFB7
:1050F800AE88B5F921078548BDB78548ADD52107E4
:10510800AE8895B781471306F00F95483707000416
:105118007D8F11CB05061307F00F630DE6043707E3
:1051280000FC7D17F98F1307F00F8D836316E600D7
:1051380081C7B707400081455E063707807FA6070D
:10514800798EA583D18FFE05CD8F6384080073A067
:105158001800538507F0828081481306F00F7DB749
:105168000146814865B7E39A05E8A10779B5E38662
:1051780005E8E5BF8147630E08000D476317E8009F
:1051880089C9FD571306E00F29A00947E31BE8FE6C
:10519800EDD993E8580041BFC1676376F5029307DC
:1051A800F00FB3B7A7008E07130700021D8F335502
:1051B800F500974700009387E7A53E95034505004E
:1051C8003305A740828037070001C147E36EE5FC3D
:1051D800E147D9BFAA858146014601456F00D057EE
:1051E800411122C426C217440000130464F69744F0
:1051F80000009384E4F5058C06C6098411E4B240E6
:1052080022449244410182807D1493172400A6977A
:105218009C438297E5B7411122C426C21744000077
:10522800130404F397440000938484F2818C4AC0E9
:1052380006C68984014963159902174400001304BE
:1052480024F1974400009384A4F0818C8984014957
:10525800631D9900B2402244924402494101828070
:105268001C40050911048297F9B71C40050911046F
:105278008297F9BF797122D44AD052CC56CA5AC8FB
:1052880006D626D24ECE3A8B2E8A32843689C28AE8
:10529800014763580600370700803344C7001307E7
:1052A800D0022380E70093F4F8FD930760048D464D
:1052B8006388F4009307500489466393F400050952
:1052C800D6879308C100130881004A87D2852286B1
:1052D800EF00D06293077004AA896395F4001376EF
:1052E8001B0029CA93076004338B29016397F402D2
:1052F80003C7090093070003631EF70001468146B0
:105308005285A285EFE05FB311C50546B306264175
:1053180023A0DA0083A70A003E9B014681465285F6
:10532800A285EFE07FB111E15AC613070003B24727
:1053380063E26703B2474257B2502254B3873741FA
:105348001CC392540259624AD24A424B4E85F249D2
:10535800456182809386170036C62380E700C1BF67
:105368002300C500930725001307B00263D6050084
:10537800B305B0401307D002A300E50025476352E8
:10538800B70641111307F1003A88A94813033006FC
:1053980033E61503BA867D1713060603A38FC6FEE8
:1053A8002E86B3C51503E345C3FE9388E6FF9385B0
:1053B8000503A30FB7FE3E864687636D07010147C5
:1053C8006365180113071101158FBA973385A74034
:1053D800410182808345070005070506A30FB6FE35
:1053E800E9BF930700032301F5009385050393079D
:1053F8004500A301B5003385A7408280197186DE78
:10540800A2DCA6DA2E84CAD8CED6D2D4D6D23A8A8C
:10541800DAD0DECEE2CC3289B689E6CAEAC8EEC670
:10542800AA84EF10304F032C05006285EF0050145A
:10543800032B040002DC834A840113770B108327B3
:105448000A00AA8B79CB138747002320EA009C43E4
:10545800081098433AD0D8433AD298473AD4DC4710
:105468003ED6EF30001928C46CC4032AC404174779
:1054780000101307A7B4832C8404032D0700832D81
:10548800470093171A0085836A86EE866685BE856F
:105498003ECEEFF09F9449EDF2476A86EE86668528
:1054A800BE85EFE0BFA36355A00801468146668527
:1054B800D285EFE0BFA2635605009307D002A3018F
:1054C800F40493077004174A0000130AAA8463F6C9
:1054D8005701174A0000130A2A84137BBBFF8D4724
:1054E800232064011CC8014B4E87CA867018A28508
:1054F8002685F92EFD5C631395177D55F650665485
:10550800D6544659B659265A965A065BF64B664CF7
:10551800D64C464DB64D096182809D07E19B1387A5
:1055280087002320EA009843DC4338C47CC435BF95
:105538006686D2866685D285EFF03F8A05C56356B2
:105548000A009307D002A301F40493077004173AE2
:105558000000130AAA7CE3F257F9173A0000130A6D
:105568002A7CA5BF5C407D5713FDFA0D6393E708BD
:1055780099475CC0544013670B403C183EC05286A4
:1055880093073103E68518C002C2D6881308410381
:105598002685CD3193077004D2552A8A631BFD00F6
:1055A800F55763C5F5005C4063D7B708F91A93FA55
:1055B800FA0F9307500663E55705FD155686130540
:1055C80004052EDA713B625785462A8BB307A7007C
:1055D8001CC863C5E6001840058B19C385071CC89D
:1055E80083473103E38207F09307D002A301F40451
:1055F800E5BD13077004E31FEDF6ADFF854795BFC2
:1056080093076006639BFA025C40635BB0000CC8BA
:1056180081E71840058B09CF8507AE971CC809A8F4
:1056280089E718408546058B19C39386270014C857
:105638002CCC014B75B7930A7006E25763C9F50085
:105648001C400CC8858BEDD793871500C1BF054753
:105658006344B00009470D8FBA97C9B71C4013F7C8
:10566800074015E314485286CA8526858299E306C1
:1056780095E91C40898B63980724F2574844E35FF7
:10568800F5E63E85A5BD13075006637D57192844E6
:105698006C4401468146EFE02FFA39E98546173612
:1056A800000013062668CA8526858299E30795E5D2
:1056B8005257E2576345F7001C40858BDDDBDE86D9
:1056C8006286CA8526858299FD57E308F5E2014A74
:1056D800930AA4017D5BE257FD17E35CFAF885465F
:1056E8005686CA8526858299E30965E1050AE5B7E4
:1056F800D2576346F00685461736000013068662C1
:10570800CA8526858299E30A95DFD2576257D98FD1
:1057180081E71C40858BB1DFDE866286CA852685D7
:105728008299FD57E30BF5DC814A130BA401FD5B5D
:10573800D257B307F04063CBFA00E2565286CA85C7
:1057480026858299FD57E316F5F245BB85465A86AC
:10575800CA8526858299E30275DB850AD1BF3C4C50
:10576800E25A63D35701BE8A63495007014B130DB0
:10577800A401FD5D832C8405D68763D30A00814785
:10578800B387FC406344FB065257E2576349F70668
:105798001C40858BADE7E25A5257B3879A41B38ACA
:1057A800EA4063D35701BE8A63445007014A130B8A
:1057B800A401FD5B5257E257998F568763D30A00BD
:1057C8000147998FE357FAEA85465A86CA8526859E
:1057D8008299E30475D3050AF1BFD6865286CA8535
:1057E80026858299FD57E313F5F801BB85466A863D
:1057F800CA8526858299E302B5D1050BA5BFDE8649
:105808006286CA8526858299FD57E316F5F8F5B1B3
:10581800D68633069A01CA8526858299FD57E317ED
:10582800F5F8E1B9E25605476344D700858BB5C75B
:1058380085465286CA8526858299FD5AE30F55CB3F
:10584800DE866286CA8526858299E30855CB284478
:105858006C4401468146EFE02FDE1DC9E25613066F
:105868001A00CA85FD1626858299E30855C9DA8685
:1058780013060405E9B585465686CA8526858299A4
:10588800E30D75C7050AE257FD17E346FAFEC5B7EB
:10589800014A930AA401FD5BFDB785465286CA8575
:1058A80026858299E31595FD89B985465686CA8568
:1058B80026858299E30365C5050A5C447257998F6A
:1058C800E345FAFE5DBB014A930A94017D5BF5B797
:1058D800797152CC9C493A8A984522D426D24ECE28
:1058E80056CA06D64AD05AC85EC6AA892E84B28439
:1058F800B68A63D3E700BA879CC00347340419C348
:1059080085079CC01C4093F7070281C79C40890704
:105918009CC00329040013796900631A0900130B5A
:105928009401FD5B5C449840998F634CF90483476C
:105938003404B336F0001C4093F70702A5EB1306B6
:105948003404D6854E85029AFD576303F5041C403E
:1059580011469840998B544481446397C700B38497
:10596800E64063D3040081441C4418486354F7009C
:10597800998FBE94014969047D5B639824050145AC
:1059880009A885465A86D6854E85029A631E7501F2
:105998007D55B250225492540259F249624AD24A71
:1059A800424BB24B456182800509ADBF3307D40035
:1059B80013060003A301C704034754049387160082
:1059C800A2978906A381E7049DBF85462286D685CE
:1059D8004E85029AE30E65FB050945B7797122D415
:1059E80026D24AD04ECE06D652CC56CA5AC803C87A
:1059F800850193078007AA842E843289B68963EECD
:105A08000701930720069386350463ED07016305B4
:105A1800081C93078005630AF812930A24042301DB
:105A2800040515A89307D8F993F7F70F5546E366C9
:105A3800F6FE173600001306A6318A07B2979C4374
:105A4800B29782871C43938A2504938647009C4318
:105A580014C32381F504854765A29C41084313F6C6
:105A68000708930545000DC21C410CC363D8070005
:105A78001307D002B307F040A301E404173600006F
:105A88001306862A2948A1A013F607041C410CC353
:105A980071DEC207C187D9BF90411C431375060840
:105AA8009385470001C50CC39C4339A013760604AF
:105AB8000CC37DDA83D707001307F00617360000FA
:105AC800130686266304E80E2948A30104045840F7
